{
    "contractName": "TravaNFTExpeditionWithdraw",
    "abi": [
        {
            "inputs": [],
            "name": "NonContractCall",
            "type": "error"
        },
        {
            "inputs": [],
            "name": "ReturnIndexValueError",
            "type": "error"
        },
        {
            "inputs": [],
            "name": "SenderNotAdmin",
            "type": "error"
        },
        {
            "inputs": [],
            "name": "SenderNotOwner",
            "type": "error"
        },
        {
            "inputs": [],
            "name": "SubIndexValueError",
            "type": "error"
        },
        {
            "anonymous": false,
            "inputs": [
                {
                    "indexed": true,
                    "internalType": "string",
                    "name": "logName",
                    "type": "string"
                },
                {
                    "indexed": false,
                    "internalType": "bytes",
                    "name": "data",
                    "type": "bytes"
                }
            ],
            "name": "ActionEvent",
            "type": "event"
        },
        {
            "inputs": [],
            "name": "NO_PARAM_MAPPING",
            "outputs": [
                {
                    "internalType": "uint8",
                    "name": "",
                    "type": "uint8"
                }
            ],
            "stateMutability": "view",
            "type": "function"
        },
        {
            "inputs": [],
            "name": "RETURN_MAX_INDEX_VALUE",
            "outputs": [
                {
                    "internalType": "uint8",
                    "name": "",
                    "type": "uint8"
                }
            ],
            "stateMutability": "view",
            "type": "function"
        },
        {
            "inputs": [],
            "name": "RETURN_MIN_INDEX_VALUE",
            "outputs": [
                {
                    "internalType": "uint8",
                    "name": "",
                    "type": "uint8"
                }
            ],
            "stateMutability": "view",
            "type": "function"
        },
        {
            "inputs": [],
            "name": "SUB_MAX_INDEX_VALUE",
            "outputs": [
                {
                    "internalType": "uint8",
                    "name": "",
                    "type": "uint8"
                }
            ],
            "stateMutability": "view",
            "type": "function"
        },
        {
            "inputs": [],
            "name": "SUB_MIN_INDEX_VALUE",
            "outputs": [
                {
                    "internalType": "uint8",
                    "name": "",
                    "type": "uint8"
                }
            ],
            "stateMutability": "view",
            "type": "function"
        },
        {
            "inputs": [],
            "name": "actionType",
            "outputs": [
                {
                    "internalType": "uint8",
                    "name": "",
                    "type": "uint8"
                }
            ],
            "stateMutability": "pure",
            "type": "function"
        },
        {
            "inputs": [],
            "name": "adminVault",
            "outputs": [
                {
                    "internalType": "contract AdminVault",
                    "name": "",
                    "type": "address"
                }
            ],
            "stateMutability": "view",
            "type": "function"
        },
        {
            "inputs": [
                {
                    "internalType": "bytes",
                    "name": "_callData",
                    "type": "bytes"
                },
                {
                    "internalType": "bytes32[]",
                    "name": "_subData",
                    "type": "bytes32[]"
                },
                {
                    "internalType": "uint8[]",
                    "name": "_paramMapping",
                    "type": "uint8[]"
                },
                {
                    "internalType": "bytes32[]",
                    "name": "_returnValues",
                    "type": "bytes32[]"
                }
            ],
            "name": "executeAction",
            "outputs": [
                {
                    "internalType": "bytes32",
                    "name": "",
                    "type": "bytes32"
                }
            ],
            "stateMutability": "payable",
            "type": "function"
        },
        {
            "inputs": [
                {
                    "internalType": "bytes",
                    "name": "_callData",
                    "type": "bytes"
                }
            ],
            "name": "executeActionDirect",
            "outputs": [],
            "stateMutability": "payable",
            "type": "function"
        },
        {
            "inputs": [],
            "name": "kill",
            "outputs": [],
            "stateMutability": "nonpayable",
            "type": "function"
        },
        {
            "inputs": [],
            "name": "logger",
            "outputs": [
                {
                    "internalType": "contract DefisaverLogger",
                    "name": "",
                    "type": "address"
                }
            ],
            "stateMutability": "view",
            "type": "function"
        },
        {
            "inputs": [
                {
                    "internalType": "address",
                    "name": "operator",
                    "type": "address"
                },
                {
                    "internalType": "address",
                    "name": "from",
                    "type": "address"
                },
                {
                    "internalType": "uint256[]",
                    "name": "ids",
                    "type": "uint256[]"
                },
                {
                    "internalType": "uint256[]",
                    "name": "values",
                    "type": "uint256[]"
                },
                {
                    "internalType": "bytes",
                    "name": "data",
                    "type": "bytes"
                }
            ],
            "name": "onERC1155BatchReceived",
            "outputs": [
                {
                    "internalType": "bytes4",
                    "name": "",
                    "type": "bytes4"
                }
            ],
            "stateMutability": "nonpayable",
            "type": "function"
        },
        {
            "inputs": [
                {
                    "internalType": "address",
                    "name": "operator",
                    "type": "address"
                },
                {
                    "internalType": "address",
                    "name": "from",
                    "type": "address"
                },
                {
                    "internalType": "uint256",
                    "name": "id",
                    "type": "uint256"
                },
                {
                    "internalType": "uint256",
                    "name": "value",
                    "type": "uint256"
                },
                {
                    "internalType": "bytes",
                    "name": "data",
                    "type": "bytes"
                }
            ],
            "name": "onERC1155Received",
            "outputs": [
                {
                    "internalType": "bytes4",
                    "name": "",
                    "type": "bytes4"
                }
            ],
            "stateMutability": "nonpayable",
            "type": "function"
        },
        {
            "inputs": [
                {
                    "internalType": "bytes",
                    "name": "_callData",
                    "type": "bytes"
                }
            ],
            "name": "parseInputs",
            "outputs": [
                {
                    "components": [
                        {
                            "internalType": "address",
                            "name": "vault",
                            "type": "address"
                        },
                        {
                            "internalType": "uint256",
                            "name": "id",
                            "type": "uint256"
                        },
                        {
                            "internalType": "address",
                            "name": "to",
                            "type": "address"
                        }
                    ],
                    "internalType": "struct TravaNFTExpeditionWithdraw.Params",
                    "name": "params",
                    "type": "tuple"
                }
            ],
            "stateMutability": "pure",
            "type": "function"
        },
        {
            "inputs": [],
            "name": "registry",
            "outputs": [
                {
                    "internalType": "contract DFSRegistry",
                    "name": "",
                    "type": "address"
                }
            ],
            "stateMutability": "view",
            "type": "function"
        },
        {
            "inputs": [
                {
                    "internalType": "address",
                    "name": "_token",
                    "type": "address"
                },
                {
                    "internalType": "address",
                    "name": "_receiver",
                    "type": "address"
                },
                {
                    "internalType": "uint256",
                    "name": "_amount",
                    "type": "uint256"
                }
            ],
            "name": "withdrawStuckFunds",
            "outputs": [],
            "stateMutability": "nonpayable",
            "type": "function"
        }
    ],
    "bytecode": "608060405234801561001057600080fd5b5061179e806100206000396000f3fe6080604052600436106100f35760003560e01c80638df50f741161008a578063c579d49011610059578063c579d490146102c2578063d3c2e7ed146102e2578063f23a6e61146102f7578063f24ccbfe1461032457600080fd5b80638df50f74146101f45780639093410d146102155780639864dcdd14610265578063bc197c811461027a57600080fd5b806341c0e1b5116100c657806341c0e1b5146101625780637b103999146101775780638bcb6216146101b75780638cedca71146101cc57600080fd5b80630f2eee42146100f8578063247492f8146101245780632fa13cb814610138578063389f87ff1461014d575b600080fd5b34801561010457600080fd5b5061010d608081565b60405160ff90911681526020015b60405180910390f35b34801561013057600080fd5b50600161010d565b34801561014457600080fd5b5061010d600081565b61016061015b366004611407565b61034c565b005b34801561016e57600080fd5b506101606103e4565b34801561018357600080fd5b5061019f73147f157cb4e328e9c0db68dba5305fb7c29e732881565b6040516001600160a01b03909116815260200161011b565b3480156101c357600080fd5b5061010d600181565b3480156101d857600080fd5b5061019f73f30f1fdcc52e1774cbc84c57e11a538d6b1404aa81565b61020761020236600461143a565b61049d565b60405190815260200161011b565b34801561022157600080fd5b50610235610230366004611407565b6105fd565b6040805182516001600160a01b03908116825260208085015190830152928201519092169082015260600161011b565b34801561027157600080fd5b5061010d607f81565b34801561028657600080fd5b506102a9610295366004611272565b63bc197c8160e01b98975050505050505050565b6040516001600160e01b0319909116815260200161011b565b3480156102ce57600080fd5b506101606102dd36600461132d565b610632565b3480156102ee57600080fd5b5061010d60ff81565b34801561030357600080fd5b506102a961031236600461136d565b63f23a6e6160e01b9695505050505050565b34801561033057600080fd5b5061019f7337cfac15ede74f29fe164c460974bd61cc799eff81565b6000610357826105fd565b90506000610372826000015183602001518460400151610762565b60405163f4b24b5560e01b81529092507337cfac15ede74f29fe164c460974bd61cc799eff915063f4b24b55906103ad908490600401611622565b600060405180830381600087803b1580156103c757600080fd5b505af11580156103db573d6000803e3d6000fd5b50505050505050565b336001600160a01b031673f30f1fdcc52e1774cbc84c57e11a538d6b1404aa6001600160a01b031663f851a4406040518163ffffffff1660e01b815260040160206040518083038186803b15801561043b57600080fd5b505afa15801561044f573d6000803e3d6000fd5b505050506040513d601f19601f820116820180604052508101906104739190611256565b6001600160a01b03161461049a5760405163a6c827a960e01b815260040160405180910390fd5b33ff5b6000806104a9866105fd565b90506104e38160000151856000815181106104d457634e487b7160e01b600052603260045260246000fd5b60200260200101518786610900565b6001600160a01b031681526020810151845161052a91908690600190811061051b57634e487b7160e01b600052603260045260246000fd5b60200260200101518786610a2f565b81602001818152505061055c8160400151856002815181106104d457634e487b7160e01b600052603260045260246000fd5b6001600160a01b031660408201819052815160208301516000928392610583929091610762565b6040517f54726176614e465445787065646974696f6e576974686472617700000000000081529193509150601a0160405180910390207f2b6d22f419271bcc89bbac8deec947c664365d6e24d06fef0ca7c325c704dce3826040516105e8919061160f565b60405180910390a2509150505b949350505050565b6040805160608101825260008082526020808301829052928201528251909161062c9184018101908401611547565b92915050565b336001600160a01b031673f30f1fdcc52e1774cbc84c57e11a538d6b1404aa6001600160a01b0316638da5cb5b6040518163ffffffff1660e01b815260040160206040518083038186803b15801561068957600080fd5b505afa15801561069d573d6000803e3d6000fd5b505050506040513d601f19601f820116820180604052508101906106c19190611256565b6001600160a01b0316146106e857604051630ca4a64560e11b815260040160405180910390fd5b73eeeeeeeeeeeeeeeeeeeeeeeeeeeeeeeeeeeeeeee6001600160a01b0384161415610749576040516001600160a01b0383169082156108fc029083906000818181858888f19350505050158015610743573d6000803e3d6000fd5b50505050565b61075d6001600160a01b0384168383610a85565b505050565b600060606001600160a01b038316610778573092505b73e1f005623934d3d8c724ec68cc9bfd95498d443560006107998230610ad7565b604051632e1a7d4d60e01b8152600481018890529091506001600160a01b03881690632e1a7d4d90602401600060405180830381600087803b1580156107de57600080fd5b505af11580156107f2573d6000803e3d6000fd5b506000925061080d9150506001600160a01b03841630610ad7565b90506001600160a01b03861630146108ba5761083e8661082d84846116be565b6001600160a01b0386169190610b8f565b506040516323b872dd60e01b81523060048201526001600160a01b038716602482015260448101889052735d996ec57756ceb127a4ed3302d7f28f52fdebb1906323b872dd90606401600060405180830381600087803b1580156108a157600080fd5b505af11580156108b5573d6000803e3d6000fd5b505050505b604080516001600160a01b03808b166020830152918101899052908716606082015260009060800160408051808303601f19018152919052979997985050505050505050565b600060ff841615610a265761091484610cb7565b15610956578161092385610cd6565b60ff168151811061094457634e487b7160e01b600052603260045260246000fd5b602002602001015160601c9450610a26565b8360ff1660fe14156109695750306105f5565b8360ff1660ff14156109ed57306001600160a01b0316638da5cb5b6040518163ffffffff1660e01b815260040160206040518083038186803b1580156109ae57600080fd5b505afa1580156109c2573d6000803e3d6000fd5b505050506040513d601f19601f820116820180604052508101906109e69190611256565b90506105f5565b826109f785610d09565b60ff1681518110610a1857634e487b7160e01b600052603260045260246000fd5b602002602001015160001c94505b50929392505050565b600060ff841615610a2657610a4384610cb7565b156109ed5781610a5285610cd6565b60ff1681518110610a7357634e487b7160e01b600052603260045260246000fd5b602002602001015160001c9450610a26565b604080516001600160a01b038416602482015260448082018490528251808303909101815260649091019091526020810180516001600160e01b031663a9059cbb60e01b17905261075d908490610d3b565b60006001600160a01b03831673eeeeeeeeeeeeeeeeeeeeeeeeeeeeeeeeeeeeeeee1415610b0f57506001600160a01b0381163161062c565b6040516370a0823160e01b81526001600160a01b0383811660048301528416906370a082319060240160206040518083038186803b158015610b5057600080fd5b505afa158015610b64573d6000803e3d6000fd5b505050506040513d601f19601f82011682018060405250810190610b8891906115af565b9392505050565b6000600019821415610ba857610ba58430610ad7565b91505b6001600160a01b03831615801590610bc957506001600160a01b0383163014155b8015610bd457508115155b15610cb0576001600160a01b03841673eeeeeeeeeeeeeeeeeeeeeeeeeeeeeeeeeeeeeeee14610c1657610c116001600160a01b0385168484610e0d565b610cb0565b6000836001600160a01b03168360405160006040518083038185875af1925050503d8060008114610c63576040519150601f19603f3d011682016040523d82523d6000602084013e610c68565b606091505b5050905080610cae5760405162461bcd60e51b815260206004820152600d60248201526c115d1a081cd95b990819985a5b609a1b60448201526064015b60405180910390fd5b505b5092915050565b6000600160ff83161080159061062c5750607f60ff8316111592915050565b6000610ce182610cb7565b610cfe5760405163dcc95a3960e01b815260040160405180910390fd5b61062c6001836116d5565b6000608060ff83161015610d305760405163866f6e8760e01b815260040160405180910390fd5b61062c6080836116d5565b6000610d90826040518060400160405280602081526020017f5361666545524332303a206c6f772d6c6576656c2063616c6c206661696c6564815250856001600160a01b0316610e5f9092919063ffffffff16565b80519091501561075d5780806020019051810190610dae91906113e7565b61075d5760405162461bcd60e51b815260206004820152602a60248201527f5361666545524332303a204552433230206f7065726174696f6e20646964206e6044820152691bdd081cdd58d8d9595960b21b6064820152608401610ca5565b604080516001600160a01b038416602482015260448082018490528251808303909101815260649091019091526020810180516001600160e01b031663a9059cbb60e01b17905261075d908490610e6e565b60606105f58484600085610ff5565b610e80826001600160a01b03166110b9565b610ecc5760405162461bcd60e51b815260206004820152601f60248201527f5361666542455032303a2063616c6c20746f206e6f6e2d636f6e7472616374006044820152606401610ca5565b600080836001600160a01b031683604051610ee791906115f3565b6000604051808303816000865af19150503d8060008114610f24576040519150601f19603f3d011682016040523d82523d6000602084013e610f29565b606091505b509150915081610f7b5760405162461bcd60e51b815260206004820181905260248201527f5361666542455032303a206c6f772d6c6576656c2063616c6c206661696c65646044820152606401610ca5565b8051156107435780806020019051810190610f9691906113e7565b6107435760405162461bcd60e51b815260206004820152602a60248201527f5361666542455032303a204245503230206f7065726174696f6e20646964206e6044820152691bdd081cdd58d8d9595960b21b6064820152608401610ca5565b6060611000856110b9565b61101d5760405163304619b560e01b815260040160405180910390fd5b600080866001600160a01b0316858760405161103991906115f3565b60006040518083038185875af1925050503d8060008114611076576040519150601f19603f3d011682016040523d82523d6000602084013e61107b565b606091505b5091509150811561108f5791506105f59050565b80511561109f5780518082602001fd5b8360405162461bcd60e51b8152600401610ca5919061160f565b6000813f7fc5d2460186f7233c927e7db2dcc703c0e500b653ca82273b7bfad8045d85a4708181148015906105f5575050151592915050565b600082601f830112611102578081fd5b813560206111176111128361169a565b611669565b80838252828201915082860187848660051b8901011115611136578586fd5b855b8581101561115457813584529284019290840190600101611138565b5090979650505050505050565b60008083601f840112611172578182fd5b50813567ffffffffffffffff811115611189578182fd5b6020830191508360208260051b85010111156111a457600080fd5b9250929050565b60008083601f8401126111bc578182fd5b50813567ffffffffffffffff8111156111d3578182fd5b6020830191508360208285010111156111a457600080fd5b600082601f8301126111fb578081fd5b813567ffffffffffffffff8111156112155761121561173a565b611228601f8201601f1916602001611669565b81815284602083860101111561123c578283fd5b816020850160208301379081016020019190915292915050565b600060208284031215611267578081fd5b8151610b8881611750565b60008060008060008060008060a0898b03121561128d578384fd5b883561129881611750565b975060208901356112a881611750565b9650604089013567ffffffffffffffff808211156112c4578586fd5b6112d08c838d01611161565b909850965060608b01359150808211156112e8578586fd5b6112f48c838d01611161565b909650945060808b013591508082111561130c578384fd5b506113198b828c016111ab565b999c989b5096995094979396929594505050565b600080600060608486031215611341578283fd5b833561134c81611750565b9250602084013561135c81611750565b929592945050506040919091013590565b60008060008060008060a08789031215611385578182fd5b863561139081611750565b955060208701356113a081611750565b94506040870135935060608701359250608087013567ffffffffffffffff8111156113c9578283fd5b6113d589828a016111ab565b979a9699509497509295939492505050565b6000602082840312156113f8578081fd5b81518015158114610b88578182fd5b600060208284031215611418578081fd5b813567ffffffffffffffff81111561142e578182fd5b6105f5848285016111eb565b6000806000806080858703121561144f578182fd5b843567ffffffffffffffff80821115611466578384fd5b611472888389016111eb565b9550602091508187013581811115611488578485fd5b61149489828a016110f2565b9550506040870135818111156114a8578485fd5b8701601f810189136114b8578485fd5b80356114c66111128261169a565b8082825285820191508584018c878560051b87010111156114e5578889fd5b8894505b8385101561151557803560ff8116811461150157898afd5b8352600194909401939186019186016114e9565b509650505050606087013591508082111561152e578283fd5b5061153b878288016110f2565b91505092959194509250565b600060608284031215611558578081fd5b6040516060810181811067ffffffffffffffff8211171561157b5761157b61173a565b604052825161158981611750565b81526020838101519082015260408301516115a381611750565b60408201529392505050565b6000602082840312156115c0578081fd5b5051919050565b600081518084526115df8160208601602086016116f8565b601f01601f19169290920160200192915050565b600082516116058184602087016116f8565b9190910192915050565b602081526000610b8860208301846115c7565b60408152601860408201527f54726176614e465445787065646974696f6e4465706c6f7900000000000000006060820152608060208201526000610b8860808301846115c7565b604051601f8201601f1916810167ffffffffffffffff811182821017156116925761169261173a565b604052919050565b600067ffffffffffffffff8211156116b4576116b461173a565b5060051b60200190565b6000828210156116d0576116d0611724565b500390565b600060ff821660ff8416808210156116ef576116ef611724565b90039392505050565b60005b838110156117135781810151838201526020016116fb565b838111156107435750506000910152565b634e487b7160e01b600052601160045260246000fd5b634e487b7160e01b600052604160045260246000fd5b6001600160a01b038116811461176557600080fd5b5056fea2646970667358221220e78f38da279d2e4b7b8ce48db56401cb3578cc172e77045a1080f171d8bb4a4664736f6c63430008040033",
    "sourcePath": "e:/trava-saver-main-core/trava-station-core/contracts/actions/trava/nft/expedition/TravaNFTExpeditionWithdraw.sol",
    "compiler": {
        "name": "solc",
        "version": "0.8.4+commit.c7e474f2"
    },
    "functionHashes": {
        "NO_PARAM_MAPPING()": "2fa13cb8",
        "RETURN_MAX_INDEX_VALUE()": "9864dcdd",
        "RETURN_MIN_INDEX_VALUE()": "8bcb6216",
        "SUB_MAX_INDEX_VALUE()": "d3c2e7ed",
        "SUB_MIN_INDEX_VALUE()": "0f2eee42",
        "actionType()": "247492f8",
        "adminVault()": "8cedca71",
        "executeAction(bytes,bytes32[],uint8[],bytes32[])": "8df50f74",
        "executeActionDirect(bytes)": "389f87ff",
        "kill()": "41c0e1b5",
        "logger()": "f24ccbfe",
        "onERC1155BatchReceived(address,address,uint256[],uint256[],bytes)": "bc197c81",
        "onERC1155Received(address,address,uint256,uint256,bytes)": "f23a6e61",
        "parseInputs(bytes)": "9093410d",
        "registry()": "7b103999",
        "withdrawStuckFunds(address,address,uint256)": "c579d490"
    },
    "gasEstimates": {
        "creation": {
            "codeDepositCost": "1209200",
            "executionCost": "1254",
            "totalCost": "1210454"
        },
        "external": {
            "NO_PARAM_MAPPING()": "261",
            "RETURN_MAX_INDEX_VALUE()": "260",
            "RETURN_MIN_INDEX_VALUE()": "260",
            "SUB_MAX_INDEX_VALUE()": "237",
            "SUB_MIN_INDEX_VALUE()": "217",
            "actionType()": "236",
            "adminVault()": "305",
            "executeAction(bytes,bytes32[],uint8[],bytes32[])": "infinite",
            "executeActionDirect(bytes)": "infinite",
            "kill()": "infinite",
            "logger()": "304",
            "onERC1155BatchReceived(address,address,uint256[],uint256[],bytes)": "infinite",
            "onERC1155Received(address,address,uint256,uint256,bytes)": "infinite",
            "parseInputs(bytes)": "infinite",
            "registry()": "261",
            "withdrawStuckFunds(address,address,uint256)": "infinite"
        },
        "internal": {
            "_withdraw(address,uint256,address)": "infinite"
        }
    }
}