{
    "contractName": "TravaNFTExpeditionAbandon",
    "abi": [
        {
            "inputs": [],
            "name": "NonContractCall",
            "type": "error"
        },
        {
            "inputs": [],
            "name": "ReturnIndexValueError",
            "type": "error"
        },
        {
            "inputs": [],
            "name": "SenderNotAdmin",
            "type": "error"
        },
        {
            "inputs": [],
            "name": "SenderNotOwner",
            "type": "error"
        },
        {
            "inputs": [],
            "name": "SubIndexValueError",
            "type": "error"
        },
        {
            "anonymous": false,
            "inputs": [
                {
                    "indexed": true,
                    "internalType": "string",
                    "name": "logName",
                    "type": "string"
                },
                {
                    "indexed": false,
                    "internalType": "bytes",
                    "name": "data",
                    "type": "bytes"
                }
            ],
            "name": "ActionEvent",
            "type": "event"
        },
        {
            "inputs": [],
            "name": "NO_PARAM_MAPPING",
            "outputs": [
                {
                    "internalType": "uint8",
                    "name": "",
                    "type": "uint8"
                }
            ],
            "stateMutability": "view",
            "type": "function"
        },
        {
            "inputs": [],
            "name": "RETURN_MAX_INDEX_VALUE",
            "outputs": [
                {
                    "internalType": "uint8",
                    "name": "",
                    "type": "uint8"
                }
            ],
            "stateMutability": "view",
            "type": "function"
        },
        {
            "inputs": [],
            "name": "RETURN_MIN_INDEX_VALUE",
            "outputs": [
                {
                    "internalType": "uint8",
                    "name": "",
                    "type": "uint8"
                }
            ],
            "stateMutability": "view",
            "type": "function"
        },
        {
            "inputs": [],
            "name": "SUB_MAX_INDEX_VALUE",
            "outputs": [
                {
                    "internalType": "uint8",
                    "name": "",
                    "type": "uint8"
                }
            ],
            "stateMutability": "view",
            "type": "function"
        },
        {
            "inputs": [],
            "name": "SUB_MIN_INDEX_VALUE",
            "outputs": [
                {
                    "internalType": "uint8",
                    "name": "",
                    "type": "uint8"
                }
            ],
            "stateMutability": "view",
            "type": "function"
        },
        {
            "inputs": [],
            "name": "actionType",
            "outputs": [
                {
                    "internalType": "uint8",
                    "name": "",
                    "type": "uint8"
                }
            ],
            "stateMutability": "pure",
            "type": "function"
        },
        {
            "inputs": [],
            "name": "adminVault",
            "outputs": [
                {
                    "internalType": "contract AdminVault",
                    "name": "",
                    "type": "address"
                }
            ],
            "stateMutability": "view",
            "type": "function"
        },
        {
            "inputs": [
                {
                    "internalType": "bytes",
                    "name": "_callData",
                    "type": "bytes"
                },
                {
                    "internalType": "bytes32[]",
                    "name": "_subData",
                    "type": "bytes32[]"
                },
                {
                    "internalType": "uint8[]",
                    "name": "_paramMapping",
                    "type": "uint8[]"
                },
                {
                    "internalType": "bytes32[]",
                    "name": "_returnValues",
                    "type": "bytes32[]"
                }
            ],
            "name": "executeAction",
            "outputs": [
                {
                    "internalType": "bytes32",
                    "name": "",
                    "type": "bytes32"
                }
            ],
            "stateMutability": "payable",
            "type": "function"
        },
        {
            "inputs": [
                {
                    "internalType": "bytes",
                    "name": "_callData",
                    "type": "bytes"
                }
            ],
            "name": "executeActionDirect",
            "outputs": [],
            "stateMutability": "payable",
            "type": "function"
        },
        {
            "inputs": [],
            "name": "kill",
            "outputs": [],
            "stateMutability": "nonpayable",
            "type": "function"
        },
        {
            "inputs": [],
            "name": "logger",
            "outputs": [
                {
                    "internalType": "contract DefisaverLogger",
                    "name": "",
                    "type": "address"
                }
            ],
            "stateMutability": "view",
            "type": "function"
        },
        {
            "inputs": [
                {
                    "internalType": "address",
                    "name": "operator",
                    "type": "address"
                },
                {
                    "internalType": "address",
                    "name": "from",
                    "type": "address"
                },
                {
                    "internalType": "uint256[]",
                    "name": "ids",
                    "type": "uint256[]"
                },
                {
                    "internalType": "uint256[]",
                    "name": "values",
                    "type": "uint256[]"
                },
                {
                    "internalType": "bytes",
                    "name": "data",
                    "type": "bytes"
                }
            ],
            "name": "onERC1155BatchReceived",
            "outputs": [
                {
                    "internalType": "bytes4",
                    "name": "",
                    "type": "bytes4"
                }
            ],
            "stateMutability": "nonpayable",
            "type": "function"
        },
        {
            "inputs": [
                {
                    "internalType": "address",
                    "name": "operator",
                    "type": "address"
                },
                {
                    "internalType": "address",
                    "name": "from",
                    "type": "address"
                },
                {
                    "internalType": "uint256",
                    "name": "id",
                    "type": "uint256"
                },
                {
                    "internalType": "uint256",
                    "name": "value",
                    "type": "uint256"
                },
                {
                    "internalType": "bytes",
                    "name": "data",
                    "type": "bytes"
                }
            ],
            "name": "onERC1155Received",
            "outputs": [
                {
                    "internalType": "bytes4",
                    "name": "",
                    "type": "bytes4"
                }
            ],
            "stateMutability": "nonpayable",
            "type": "function"
        },
        {
            "inputs": [
                {
                    "internalType": "bytes",
                    "name": "_callData",
                    "type": "bytes"
                }
            ],
            "name": "parseInputs",
            "outputs": [
                {
                    "components": [
                        {
                            "internalType": "address",
                            "name": "vault",
                            "type": "address"
                        },
                        {
                            "internalType": "uint256",
                            "name": "id",
                            "type": "uint256"
                        },
                        {
                            "internalType": "address",
                            "name": "to",
                            "type": "address"
                        }
                    ],
                    "internalType": "struct TravaNFTExpeditionAbandon.Params",
                    "name": "params",
                    "type": "tuple"
                }
            ],
            "stateMutability": "pure",
            "type": "function"
        },
        {
            "inputs": [],
            "name": "registry",
            "outputs": [
                {
                    "internalType": "contract DFSRegistry",
                    "name": "",
                    "type": "address"
                }
            ],
            "stateMutability": "view",
            "type": "function"
        },
        {
            "inputs": [
                {
                    "internalType": "address",
                    "name": "_token",
                    "type": "address"
                },
                {
                    "internalType": "address",
                    "name": "_receiver",
                    "type": "address"
                },
                {
                    "internalType": "uint256",
                    "name": "_amount",
                    "type": "uint256"
                }
            ],
            "name": "withdrawStuckFunds",
            "outputs": [],
            "stateMutability": "nonpayable",
            "type": "function"
        }
    ],
    "bytecode": "608060405234801561001057600080fd5b5061134e806100206000396000f3fe6080604052600436106100f35760003560e01c80638df50f741161008a578063c579d49011610059578063c579d490146102c2578063d3c2e7ed146102e2578063f23a6e61146102f7578063f24ccbfe1461032457600080fd5b80638df50f74146101f45780639093410d146102155780639864dcdd14610265578063bc197c811461027a57600080fd5b806341c0e1b5116100c657806341c0e1b5146101625780637b103999146101775780638bcb6216146101b75780638cedca71146101cc57600080fd5b80630f2eee42146100f8578063247492f8146101245780632fa13cb814610138578063389f87ff1461014d575b600080fd5b34801561010457600080fd5b5061010d608081565b60405160ff90911681526020015b60405180910390f35b34801561013057600080fd5b50600161010d565b34801561014457600080fd5b5061010d600081565b61016061015b366004610ff0565b61034c565b005b34801561016e57600080fd5b506101606103e4565b34801561018357600080fd5b5061019f73147f157cb4e328e9c0db68dba5305fb7c29e732881565b6040516001600160a01b03909116815260200161011b565b3480156101c357600080fd5b5061010d600181565b3480156101d857600080fd5b5061019f73f30f1fdcc52e1774cbc84c57e11a538d6b1404aa81565b610207610202366004611023565b61049d565b60405190815260200161011b565b34801561022157600080fd5b50610235610230366004610ff0565b6105fd565b6040805182516001600160a01b03908116825260208085015190830152928201519092169082015260600161011b565b34801561027157600080fd5b5061010d607f81565b34801561028657600080fd5b506102a9610295366004610e5b565b63bc197c8160e01b98975050505050505050565b6040516001600160e01b0319909116815260200161011b565b3480156102ce57600080fd5b506101606102dd366004610f16565b610632565b3480156102ee57600080fd5b5061010d60ff81565b34801561030357600080fd5b506102a9610312366004610f56565b63f23a6e6160e01b9695505050505050565b34801561033057600080fd5b5061019f7337cfac15ede74f29fe164c460974bd61cc799eff81565b6000610357826105fd565b90506000610372826000015183602001518460400151610762565b60405163f4b24b5560e01b81529092507337cfac15ede74f29fe164c460974bd61cc799eff915063f4b24b55906103ad9084906004016111f3565b600060405180830381600087803b1580156103c757600080fd5b505af11580156103db573d6000803e3d6000fd5b50505050505050565b336001600160a01b031673f30f1fdcc52e1774cbc84c57e11a538d6b1404aa6001600160a01b031663f851a4406040518163ffffffff1660e01b815260040160206040518083038186803b15801561043b57600080fd5b505afa15801561044f573d6000803e3d6000fd5b505050506040513d601f19601f820116820180604052508101906104739190610e38565b6001600160a01b03161461049a5760405163a6c827a960e01b815260040160405180910390fd5b33ff5b6000806104a9866105fd565b90506104e38160000151856000815181106104d457634e487b7160e01b600052603260045260246000fd5b6020026020010151878661089b565b6001600160a01b031681526020810151845161052a91908690600190811061051b57634e487b7160e01b600052603260045260246000fd5b602002602001015187866109ca565b81602001818152505061055c8160400151856002815181106104d457634e487b7160e01b600052603260045260246000fd5b6001600160a01b031660408201819052815160208301516000928392610583929091610762565b6040517f54726176614e465445787065646974696f6e4162616e646f6e000000000000008152919350915060190160405180910390207f2b6d22f419271bcc89bbac8deec947c664365d6e24d06fef0ca7c325c704dce3826040516105e891906111e0565b60405180910390a2509150505b949350505050565b6040805160608101825260008082526020808301829052928201528251909161062c9184018101908401611130565b92915050565b336001600160a01b031673f30f1fdcc52e1774cbc84c57e11a538d6b1404aa6001600160a01b0316638da5cb5b6040518163ffffffff1660e01b815260040160206040518083038186803b15801561068957600080fd5b505afa15801561069d573d6000803e3d6000fd5b505050506040513d601f19601f820116820180604052508101906106c19190610e38565b6001600160a01b0316146106e857604051630ca4a64560e11b815260040160405180910390fd5b73eeeeeeeeeeeeeeeeeeeeeeeeeeeeeeeeeeeeeeee6001600160a01b0384161415610749576040516001600160a01b0383169082156108fc029083906000818181858888f19350505050158015610743573d6000803e3d6000fd5b50505050565b61075d6001600160a01b0384168383610a20565b505050565b600060606001600160a01b038316610778573092505b6040516370690bf960e11b8152600481018590526001600160a01b0386169063e0d217f290602401600060405180830381600087803b1580156107ba57600080fd5b505af11580156107ce573d6000803e3d6000fd5b505050506001600160a01b038316301461085d576040516323b872dd60e01b81523060048201526001600160a01b038416602482015260448101859052735d996ec57756ceb127a4ed3302d7f28f52fdebb1906323b872dd90606401600060405180830381600087803b15801561084457600080fd5b505af1158015610858573d6000803e3d6000fd5b505050505b5050604080516001600160a01b0394851660208201528082018490529190931660608083019190915283518083039091018152608090910190925291565b600060ff8416156109c1576108af84610a72565b156108f157816108be85610a91565b60ff16815181106108df57634e487b7160e01b600052603260045260246000fd5b602002602001015160601c94506109c1565b8360ff1660fe14156109045750306105f5565b8360ff1660ff141561098857306001600160a01b0316638da5cb5b6040518163ffffffff1660e01b815260040160206040518083038186803b15801561094957600080fd5b505afa15801561095d573d6000803e3d6000fd5b505050506040513d601f19601f820116820180604052508101906109819190610e38565b90506105f5565b8261099285610ac4565b60ff16815181106109b357634e487b7160e01b600052603260045260246000fd5b602002602001015160001c94505b50929392505050565b600060ff8416156109c1576109de84610a72565b1561098857816109ed85610a91565b60ff1681518110610a0e57634e487b7160e01b600052603260045260246000fd5b602002602001015160001c94506109c1565b604080516001600160a01b038416602482015260448082018490528251808303909101815260649091019091526020810180516001600160e01b031663a9059cbb60e01b17905261075d908490610af6565b6000600160ff83161080159061062c5750607f60ff8316111592915050565b6000610a9c82610a72565b610ab95760405163dcc95a3960e01b815260040160405180910390fd5b61062c60018361128f565b6000608060ff83161015610aeb5760405163866f6e8760e01b815260040160405180910390fd5b61062c60808361128f565b6000610b4b826040518060400160405280602081526020017f5361666545524332303a206c6f772d6c6576656c2063616c6c206661696c6564815250856001600160a01b0316610bcd9092919063ffffffff16565b80519091501561075d5780806020019051810190610b699190610fd0565b61075d5760405162461bcd60e51b815260206004820152602a60248201527f5361666545524332303a204552433230206f7065726174696f6e20646964206e6044820152691bdd081cdd58d8d9595960b21b60648201526084015b60405180910390fd5b60606105f584846000856060610be285610c9b565b610bff5760405163304619b560e01b815260040160405180910390fd5b600080866001600160a01b03168587604051610c1b91906111c4565b60006040518083038185875af1925050503d8060008114610c58576040519150601f19603f3d011682016040523d82523d6000602084013e610c5d565b606091505b50915091508115610c715791506105f59050565b805115610c815780518082602001fd5b8360405162461bcd60e51b8152600401610bc491906111e0565b6000813f7fc5d2460186f7233c927e7db2dcc703c0e500b653ca82273b7bfad8045d85a4708181148015906105f5575050151592915050565b600082601f830112610ce4578081fd5b81356020610cf9610cf48361126b565b61123a565b80838252828201915082860187848660051b8901011115610d18578586fd5b855b85811015610d3657813584529284019290840190600101610d1a565b5090979650505050505050565b60008083601f840112610d54578182fd5b50813567ffffffffffffffff811115610d6b578182fd5b6020830191508360208260051b8501011115610d8657600080fd5b9250929050565b60008083601f840112610d9e578182fd5b50813567ffffffffffffffff811115610db5578182fd5b602083019150836020828501011115610d8657600080fd5b600082601f830112610ddd578081fd5b813567ffffffffffffffff811115610df757610df76112ea565b610e0a601f8201601f191660200161123a565b818152846020838601011115610e1e578283fd5b816020850160208301379081016020019190915292915050565b600060208284031215610e49578081fd5b8151610e5481611300565b9392505050565b60008060008060008060008060a0898b031215610e76578384fd5b8835610e8181611300565b97506020890135610e9181611300565b9650604089013567ffffffffffffffff80821115610ead578586fd5b610eb98c838d01610d43565b909850965060608b0135915080821115610ed1578586fd5b610edd8c838d01610d43565b909650945060808b0135915080821115610ef5578384fd5b50610f028b828c01610d8d565b999c989b5096995094979396929594505050565b600080600060608486031215610f2a578283fd5b8335610f3581611300565b92506020840135610f4581611300565b929592945050506040919091013590565b60008060008060008060a08789031215610f6e578182fd5b8635610f7981611300565b95506020870135610f8981611300565b94506040870135935060608701359250608087013567ffffffffffffffff811115610fb2578283fd5b610fbe89828a01610d8d565b979a9699509497509295939492505050565b600060208284031215610fe1578081fd5b81518015158114610e54578182fd5b600060208284031215611001578081fd5b813567ffffffffffffffff811115611017578182fd5b6105f584828501610dcd565b60008060008060808587031215611038578182fd5b843567ffffffffffffffff8082111561104f578384fd5b61105b88838901610dcd565b9550602091508187013581811115611071578485fd5b61107d89828a01610cd4565b955050604087013581811115611091578485fd5b8701601f810189136110a1578485fd5b80356110af610cf48261126b565b8082825285820191508584018c878560051b87010111156110ce578889fd5b8894505b838510156110fe57803560ff811681146110ea57898afd5b8352600194909401939186019186016110d2565b5096505050506060870135915080821115611117578283fd5b5061112487828801610cd4565b91505092959194509250565b600060608284031215611141578081fd5b6040516060810181811067ffffffffffffffff82111715611164576111646112ea565b604052825161117281611300565b815260208381015190820152604083015161118c81611300565b60408201529392505050565b600081518084526111b08160208601602086016112be565b601f01601f19169290920160200192915050565b600082516111d68184602087016112be565b9190910192915050565b602081526000610e546020830184611198565b60408152601860408201527f54726176614e465445787065646974696f6e4465706c6f7900000000000000006060820152608060208201526000610e546080830184611198565b604051601f8201601f1916810167ffffffffffffffff81118282101715611263576112636112ea565b604052919050565b600067ffffffffffffffff821115611285576112856112ea565b5060051b60200190565b600060ff821660ff8416808210156112b557634e487b7160e01b83526011600452602483fd5b90039392505050565b60005b838110156112d95781810151838201526020016112c1565b838111156107435750506000910152565b634e487b7160e01b600052604160045260246000fd5b6001600160a01b038116811461131557600080fd5b5056fea26469706673582212203007c2d087b174a975b577842fae7ced764f52e9f5bcc6b8483acefe96a62a9d64736f6c63430008040033",
    "sourcePath": "e:/trava-saver-main-core/trava-station-core/contracts/actions/trava/nft/expedition/TravaNFTExpeditionAbandon.sol",
    "compiler": {
        "name": "solc",
        "version": "0.8.4+commit.c7e474f2"
    },
    "functionHashes": {
        "NO_PARAM_MAPPING()": "2fa13cb8",
        "RETURN_MAX_INDEX_VALUE()": "9864dcdd",
        "RETURN_MIN_INDEX_VALUE()": "8bcb6216",
        "SUB_MAX_INDEX_VALUE()": "d3c2e7ed",
        "SUB_MIN_INDEX_VALUE()": "0f2eee42",
        "actionType()": "247492f8",
        "adminVault()": "8cedca71",
        "executeAction(bytes,bytes32[],uint8[],bytes32[])": "8df50f74",
        "executeActionDirect(bytes)": "389f87ff",
        "kill()": "41c0e1b5",
        "logger()": "f24ccbfe",
        "onERC1155BatchReceived(address,address,uint256[],uint256[],bytes)": "bc197c81",
        "onERC1155Received(address,address,uint256,uint256,bytes)": "f23a6e61",
        "parseInputs(bytes)": "9093410d",
        "registry()": "7b103999",
        "withdrawStuckFunds(address,address,uint256)": "c579d490"
    },
    "gasEstimates": {
        "creation": {
            "codeDepositCost": "988400",
            "executionCost": "1027",
            "totalCost": "989427"
        },
        "external": {
            "NO_PARAM_MAPPING()": "261",
            "RETURN_MAX_INDEX_VALUE()": "260",
            "RETURN_MIN_INDEX_VALUE()": "260",
            "SUB_MAX_INDEX_VALUE()": "237",
            "SUB_MIN_INDEX_VALUE()": "217",
            "actionType()": "236",
            "adminVault()": "305",
            "executeAction(bytes,bytes32[],uint8[],bytes32[])": "infinite",
            "executeActionDirect(bytes)": "infinite",
            "kill()": "infinite",
            "logger()": "304",
            "onERC1155BatchReceived(address,address,uint256[],uint256[],bytes)": "infinite",
            "onERC1155Received(address,address,uint256,uint256,bytes)": "infinite",
            "parseInputs(bytes)": "infinite",
            "registry()": "261",
            "withdrawStuckFunds(address,address,uint256)": "infinite"
        },
        "internal": {
            "_abandon(address,uint256,address)": "infinite"
        }
    }
}