{
    "contractName": "TravaNFTExpeditionWithdraw",
    "abi": [
        {
            "inputs": [],
            "name": "NonContractCall",
            "type": "error"
        },
        {
            "inputs": [],
            "name": "ReturnIndexValueError",
            "type": "error"
        },
        {
            "inputs": [],
            "name": "SenderNotAdmin",
            "type": "error"
        },
        {
            "inputs": [],
            "name": "SenderNotOwner",
            "type": "error"
        },
        {
            "inputs": [],
            "name": "SubIndexValueError",
            "type": "error"
        },
        {
            "anonymous": false,
            "inputs": [
                {
                    "indexed": true,
                    "internalType": "string",
                    "name": "logName",
                    "type": "string"
                },
                {
                    "indexed": false,
                    "internalType": "bytes",
                    "name": "data",
                    "type": "bytes"
                }
            ],
            "name": "ActionEvent",
            "type": "event"
        },
        {
            "inputs": [],
            "name": "NO_PARAM_MAPPING",
            "outputs": [
                {
                    "internalType": "uint8",
                    "name": "",
                    "type": "uint8"
                }
            ],
            "stateMutability": "view",
            "type": "function"
        },
        {
            "inputs": [],
            "name": "RETURN_MAX_INDEX_VALUE",
            "outputs": [
                {
                    "internalType": "uint8",
                    "name": "",
                    "type": "uint8"
                }
            ],
            "stateMutability": "view",
            "type": "function"
        },
        {
            "inputs": [],
            "name": "RETURN_MIN_INDEX_VALUE",
            "outputs": [
                {
                    "internalType": "uint8",
                    "name": "",
                    "type": "uint8"
                }
            ],
            "stateMutability": "view",
            "type": "function"
        },
        {
            "inputs": [],
            "name": "SUB_MAX_INDEX_VALUE",
            "outputs": [
                {
                    "internalType": "uint8",
                    "name": "",
                    "type": "uint8"
                }
            ],
            "stateMutability": "view",
            "type": "function"
        },
        {
            "inputs": [],
            "name": "SUB_MIN_INDEX_VALUE",
            "outputs": [
                {
                    "internalType": "uint8",
                    "name": "",
                    "type": "uint8"
                }
            ],
            "stateMutability": "view",
            "type": "function"
        },
        {
            "inputs": [],
            "name": "actionType",
            "outputs": [
                {
                    "internalType": "uint8",
                    "name": "",
                    "type": "uint8"
                }
            ],
            "stateMutability": "pure",
            "type": "function"
        },
        {
            "inputs": [],
            "name": "adminVault",
            "outputs": [
                {
                    "internalType": "contract AdminVault",
                    "name": "",
                    "type": "address"
                }
            ],
            "stateMutability": "view",
            "type": "function"
        },
        {
            "inputs": [
                {
                    "internalType": "bytes",
                    "name": "_callData",
                    "type": "bytes"
                },
                {
                    "internalType": "bytes32[]",
                    "name": "_subData",
                    "type": "bytes32[]"
                },
                {
                    "internalType": "uint8[]",
                    "name": "_paramMapping",
                    "type": "uint8[]"
                },
                {
                    "internalType": "bytes32[]",
                    "name": "_returnValues",
                    "type": "bytes32[]"
                }
            ],
            "name": "executeAction",
            "outputs": [
                {
                    "internalType": "bytes32",
                    "name": "",
                    "type": "bytes32"
                }
            ],
            "stateMutability": "payable",
            "type": "function"
        },
        {
            "inputs": [
                {
                    "internalType": "bytes",
                    "name": "_callData",
                    "type": "bytes"
                }
            ],
            "name": "executeActionDirect",
            "outputs": [],
            "stateMutability": "payable",
            "type": "function"
        },
        {
            "inputs": [],
            "name": "kill",
            "outputs": [],
            "stateMutability": "nonpayable",
            "type": "function"
        },
        {
            "inputs": [],
            "name": "logger",
            "outputs": [
                {
                    "internalType": "contract DefisaverLogger",
                    "name": "",
                    "type": "address"
                }
            ],
            "stateMutability": "view",
            "type": "function"
        },
        {
            "inputs": [
                {
                    "internalType": "bytes",
                    "name": "_callData",
                    "type": "bytes"
                }
            ],
            "name": "parseInputs",
            "outputs": [
                {
                    "components": [
                        {
                            "internalType": "address",
                            "name": "vault",
                            "type": "address"
                        },
                        {
                            "internalType": "uint256",
                            "name": "id",
                            "type": "uint256"
                        },
                        {
                            "internalType": "address",
                            "name": "toKnight",
                            "type": "address"
                        },
                        {
                            "internalType": "address",
                            "name": "toToken",
                            "type": "address"
                        }
                    ],
                    "internalType": "struct TravaNFTExpeditionWithdraw.Params",
                    "name": "params",
                    "type": "tuple"
                }
            ],
            "stateMutability": "pure",
            "type": "function"
        },
        {
            "inputs": [],
            "name": "registry",
            "outputs": [
                {
                    "internalType": "contract DFSRegistry",
                    "name": "",
                    "type": "address"
                }
            ],
            "stateMutability": "view",
            "type": "function"
        },
        {
            "inputs": [
                {
                    "internalType": "address",
                    "name": "_token",
                    "type": "address"
                },
                {
                    "internalType": "address",
                    "name": "_receiver",
                    "type": "address"
                },
                {
                    "internalType": "uint256",
                    "name": "_amount",
                    "type": "uint256"
                }
            ],
            "name": "withdrawStuckFunds",
            "outputs": [],
            "stateMutability": "nonpayable",
            "type": "function"
        }
    ],
    "bytecode": "608060405234801561001057600080fd5b506116a6806100206000396000f3fe6080604052600436106100dd5760003560e01c80638cedca711161007f5780639864dcdd116100595780639864dcdd14610260578063c579d49014610275578063d3c2e7ed14610295578063f24ccbfe146102aa57600080fd5b80638cedca71146101b65780638df50f74146101de5780639093410d146101ff57600080fd5b8063389f87ff116100bb578063389f87ff1461013757806341c0e1b51461014c5780637b103999146101615780638bcb6216146101a157600080fd5b80630f2eee42146100e2578063247492f81461010e5780632fa13cb814610122575b600080fd5b3480156100ee57600080fd5b506100f7608081565b60405160ff90911681526020015b60405180910390f35b34801561011a57600080fd5b5060016100f7565b34801561012e57600080fd5b506100f7600081565b61014a6101453660046112fc565b6102d2565b005b34801561015857600080fd5b5061014a61036f565b34801561016d57600080fd5b5061018973147f157cb4e328e9c0db68dba5305fb7c29e732881565b6040516001600160a01b039091168152602001610105565b3480156101ad57600080fd5b506100f7600181565b3480156101c257600080fd5b5061018973f30f1fdcc52e1774cbc84c57e11a538d6b1404aa81565b6101f16101ec36600461132f565b610428565b604051908152602001610105565b34801561020b57600080fd5b5061021f61021a3660046112fc565b6105ca565b604051610105919081516001600160a01b03908116825260208084015190830152604080840151821690830152606092830151169181019190915260800190565b34801561026c57600080fd5b506100f7607f81565b34801561028157600080fd5b5061014a61029036600461129c565b610606565b3480156102a157600080fd5b506100f760ff81565b3480156102b657600080fd5b506101897337cfac15ede74f29fe164c460974bd61cc799eff81565b60006102dd826105ca565b905060006102fd8260000151836020015184604001518560600151610736565b60405163f4b24b5560e01b81529092507337cfac15ede74f29fe164c460974bd61cc799eff915063f4b24b559061033890849060040161152a565b600060405180830381600087803b15801561035257600080fd5b505af1158015610366573d6000803e3d6000fd5b50505050505050565b336001600160a01b031673f30f1fdcc52e1774cbc84c57e11a538d6b1404aa6001600160a01b031663f851a4406040518163ffffffff1660e01b815260040160206040518083038186803b1580156103c657600080fd5b505afa1580156103da573d6000803e3d6000fd5b505050506040513d601f19601f820116820180604052508101906103fe9190611280565b6001600160a01b0316146104255760405163a6c827a960e01b815260040160405180910390fd5b33ff5b600080610434866105ca565b905061046e81600001518560008151811061045f57634e487b7160e01b600052603260045260246000fd5b602002602001015187866109b9565b6001600160a01b03168152602081015184516104b59190869060019081106104a657634e487b7160e01b600052603260045260246000fd5b60200260200101518786610ae8565b8160200181815250506104e781604001518560028151811061045f57634e487b7160e01b600052603260045260246000fd5b6001600160a01b031660408201526060810151845161052291908690600390811061045f57634e487b7160e01b600052603260045260246000fd5b6001600160a01b03166060820181905281516020830151604084015160009384936105509390929091610736565b6040517f54726176614e465445787065646974696f6e576974686472617700000000000081529193509150601a0160405180910390207f2b6d22f419271bcc89bbac8deec947c664365d6e24d06fef0ca7c325c704dce3826040516105b59190611517565b60405180910390a2509150505b949350505050565b6040805160808101825260008082526020808301829052928201819052606082015282519091610600918401810190840161143c565b92915050565b336001600160a01b031673f30f1fdcc52e1774cbc84c57e11a538d6b1404aa6001600160a01b0316638da5cb5b6040518163ffffffff1660e01b815260040160206040518083038186803b15801561065d57600080fd5b505afa158015610671573d6000803e3d6000fd5b505050506040513d601f19601f820116820180604052508101906106959190611280565b6001600160a01b0316146106bc57604051630ca4a64560e11b815260040160405180910390fd5b73eeeeeeeeeeeeeeeeeeeeeeeeeeeeeeeeeeeeeeee6001600160a01b038416141561071d576040516001600160a01b0383169082156108fc029083906000818181858888f19350505050158015610717573d6000803e3d6000fd5b50505050565b6107316001600160a01b0384168383610b3e565b505050565b600060606001600160a01b03841661074c573093505b6001600160a01b03831661075e573092505b60405163102fab0760e11b8152600481018690526001600160a01b0387169063205f560e9060240160206040518083038186803b15801561079e57600080fd5b505afa1580156107b2573d6000803e3d6000fd5b505050506040513d601f19601f820116820180604052508101906107d691906112dc565b156108175760405162461bcd60e51b815260206004820152600c60248201526b139bdd08199a5b9a5cda195960a21b60448201526064015b60405180910390fd5b73e1f005623934d3d8c724ec68cc9bfd95498d443560006108388230610b90565b604051632e1a7d4d60e01b8152600481018990529091506001600160a01b03891690632e1a7d4d90602401600060405180830381600087803b15801561087d57600080fd5b505af1158015610891573d6000803e3d6000fd5b50600092506108ac9150506001600160a01b03841630610b90565b90506001600160a01b0387163014610939576040516323b872dd60e01b81523060048201526001600160a01b038816602482015260448101899052735d996ec57756ceb127a4ed3302d7f28f52fdebb1906323b872dd90606401600060405180830381600087803b15801561092057600080fd5b505af1158015610934573d6000803e3d6000fd5b505050505b6001600160a01b038616301461096a576109688661095784846115c6565b6001600160a01b0386169190610c48565b505b604080516001600160a01b03808c1660208301529181018a90528189166060820152908716608082015260009060a00160408051808303601f19018152919052989a9899505050505050505050565b600060ff841615610adf576109cd84610d6b565b15610a0f57816109dc85610d8a565b60ff16815181106109fd57634e487b7160e01b600052603260045260246000fd5b602002602001015160601c9450610adf565b8360ff1660fe1415610a225750306105c2565b8360ff1660ff1415610aa657306001600160a01b0316638da5cb5b6040518163ffffffff1660e01b815260040160206040518083038186803b158015610a6757600080fd5b505afa158015610a7b573d6000803e3d6000fd5b505050506040513d601f19601f82011682018060405250810190610a9f9190611280565b90506105c2565b82610ab085610dbd565b60ff1681518110610ad157634e487b7160e01b600052603260045260246000fd5b602002602001015160001c94505b50929392505050565b600060ff841615610adf57610afc84610d6b565b15610aa65781610b0b85610d8a565b60ff1681518110610b2c57634e487b7160e01b600052603260045260246000fd5b602002602001015160001c9450610adf565b604080516001600160a01b038416602482015260448082018490528251808303909101815260649091019091526020810180516001600160e01b031663a9059cbb60e01b179052610731908490610def565b60006001600160a01b03831673eeeeeeeeeeeeeeeeeeeeeeeeeeeeeeeeeeeeeeee1415610bc857506001600160a01b03811631610600565b6040516370a0823160e01b81526001600160a01b0383811660048301528416906370a082319060240160206040518083038186803b158015610c0957600080fd5b505afa158015610c1d573d6000803e3d6000fd5b505050506040513d601f19601f82011682018060405250810190610c4191906114b7565b9392505050565b6000600019821415610c6157610c5e8430610b90565b91505b6001600160a01b03831615801590610c8257506001600160a01b0383163014155b8015610c8d57508115155b15610d64576001600160a01b03841673eeeeeeeeeeeeeeeeeeeeeeeeeeeeeeeeeeeeeeee14610ccf57610cca6001600160a01b0385168484610ec1565b610d64565b6000836001600160a01b03168360405160006040518083038185875af1925050503d8060008114610d1c576040519150601f19603f3d011682016040523d82523d6000602084013e610d21565b606091505b5050905080610d625760405162461bcd60e51b815260206004820152600d60248201526c115d1a081cd95b990819985a5b609a1b604482015260640161080e565b505b5092915050565b6000600160ff8316108015906106005750607f60ff8316111592915050565b6000610d9582610d6b565b610db25760405163dcc95a3960e01b815260040160405180910390fd5b6106006001836115dd565b6000608060ff83161015610de45760405163866f6e8760e01b815260040160405180910390fd5b6106006080836115dd565b6000610e44826040518060400160405280602081526020017f5361666545524332303a206c6f772d6c6576656c2063616c6c206661696c6564815250856001600160a01b0316610f139092919063ffffffff16565b8051909150156107315780806020019051810190610e6291906112dc565b6107315760405162461bcd60e51b815260206004820152602a60248201527f5361666545524332303a204552433230206f7065726174696f6e20646964206e6044820152691bdd081cdd58d8d9595960b21b606482015260840161080e565b604080516001600160a01b038416602482015260448082018490528251808303909101815260649091019091526020810180516001600160e01b031663a9059cbb60e01b179052610731908490610f22565b60606105c284846000856110a9565b610f34826001600160a01b031661116d565b610f805760405162461bcd60e51b815260206004820152601f60248201527f5361666542455032303a2063616c6c20746f206e6f6e2d636f6e747261637400604482015260640161080e565b600080836001600160a01b031683604051610f9b91906114fb565b6000604051808303816000865af19150503d8060008114610fd8576040519150601f19603f3d011682016040523d82523d6000602084013e610fdd565b606091505b50915091508161102f5760405162461bcd60e51b815260206004820181905260248201527f5361666542455032303a206c6f772d6c6576656c2063616c6c206661696c6564604482015260640161080e565b805115610717578080602001905181019061104a91906112dc565b6107175760405162461bcd60e51b815260206004820152602a60248201527f5361666542455032303a204245503230206f7065726174696f6e20646964206e6044820152691bdd081cdd58d8d9595960b21b606482015260840161080e565b60606110b48561116d565b6110d15760405163304619b560e01b815260040160405180910390fd5b600080866001600160a01b031685876040516110ed91906114fb565b60006040518083038185875af1925050503d806000811461112a576040519150601f19603f3d011682016040523d82523d6000602084013e61112f565b606091505b509150915081156111435791506105c29050565b8051156111535780518082602001fd5b8360405162461bcd60e51b815260040161080e9190611517565b6000813f7fc5d2460186f7233c927e7db2dcc703c0e500b653ca82273b7bfad8045d85a4708181148015906105c2575050151592915050565b600082601f8301126111b6578081fd5b813560206111cb6111c6836115a2565b611571565b80838252828201915082860187848660051b89010111156111ea578586fd5b855b85811015611208578135845292840192908401906001016111ec565b5090979650505050505050565b600082601f830112611225578081fd5b813567ffffffffffffffff81111561123f5761123f611642565b611252601f8201601f1916602001611571565b818152846020838601011115611266578283fd5b816020850160208301379081016020019190915292915050565b600060208284031215611291578081fd5b8151610c4181611658565b6000806000606084860312156112b0578182fd5b83356112bb81611658565b925060208401356112cb81611658565b929592945050506040919091013590565b6000602082840312156112ed578081fd5b81518015158114610c41578182fd5b60006020828403121561130d578081fd5b813567ffffffffffffffff811115611323578182fd5b6105c284828501611215565b60008060008060808587031215611344578081fd5b843567ffffffffffffffff8082111561135b578283fd5b61136788838901611215565b955060209150818701358181111561137d578384fd5b61138989828a016111a6565b95505060408701358181111561139d578384fd5b8701601f810189136113ad578384fd5b80356113bb6111c6826115a2565b8082825285820191508584018c878560051b87010111156113da578788fd5b8794505b8385101561140a57803560ff811681146113f6578889fd5b8352600194909401939186019186016113de565b5096505050506060870135915080821115611423578283fd5b50611430878288016111a6565b91505092959194509250565b60006080828403121561144d578081fd5b6040516080810181811067ffffffffffffffff8211171561147057611470611642565b604052825161147e81611658565b815260208381015190820152604083015161149881611658565b604082015260608301516114ab81611658565b60608201529392505050565b6000602082840312156114c8578081fd5b5051919050565b600081518084526114e7816020860160208601611600565b601f01601f19169290920160200192915050565b6000825161150d818460208701611600565b9190910192915050565b602081526000610c4160208301846114cf565b60408152601860408201527f54726176614e465445787065646974696f6e4465706c6f7900000000000000006060820152608060208201526000610c4160808301846114cf565b604051601f8201601f1916810167ffffffffffffffff8111828210171561159a5761159a611642565b604052919050565b600067ffffffffffffffff8211156115bc576115bc611642565b5060051b60200190565b6000828210156115d8576115d861162c565b500390565b600060ff821660ff8416808210156115f7576115f761162c565b90039392505050565b60005b8381101561161b578181015183820152602001611603565b838111156107175750506000910152565b634e487b7160e01b600052601160045260246000fd5b634e487b7160e01b600052604160045260246000fd5b6001600160a01b038116811461166d57600080fd5b5056fea26469706673582212204bf74ffd78846fe8350d69e26617b6d5b556f9497c7cb73dbda679684912f44d64736f6c63430008040033",
    "sourcePath": "e:/trava-saver-main-core/trava-station-core/contracts/actions/trava/nft/expedition/TravaNFTExpeditionWithdraw.sol",
    "compiler": {
        "name": "solc",
        "version": "0.8.4+commit.c7e474f2"
    },
    "functionHashes": {
        "NO_PARAM_MAPPING()": "2fa13cb8",
        "RETURN_MAX_INDEX_VALUE()": "9864dcdd",
        "RETURN_MIN_INDEX_VALUE()": "8bcb6216",
        "SUB_MAX_INDEX_VALUE()": "d3c2e7ed",
        "SUB_MIN_INDEX_VALUE()": "0f2eee42",
        "actionType()": "247492f8",
        "adminVault()": "8cedca71",
        "executeAction(bytes,bytes32[],uint8[],bytes32[])": "8df50f74",
        "executeActionDirect(bytes)": "389f87ff",
        "kill()": "41c0e1b5",
        "logger()": "f24ccbfe",
        "parseInputs(bytes)": "9093410d",
        "registry()": "7b103999",
        "withdrawStuckFunds(address,address,uint256)": "c579d490"
    },
    "gasEstimates": {
        "creation": {
            "codeDepositCost": "1159600",
            "executionCost": "1207",
            "totalCost": "1160807"
        },
        "external": {
            "NO_PARAM_MAPPING()": "261",
            "RETURN_MAX_INDEX_VALUE()": "215",
            "RETURN_MIN_INDEX_VALUE()": "282",
            "SUB_MAX_INDEX_VALUE()": "259",
            "SUB_MIN_INDEX_VALUE()": "217",
            "actionType()": "236",
            "adminVault()": "239",
            "executeAction(bytes,bytes32[],uint8[],bytes32[])": "infinite",
            "executeActionDirect(bytes)": "infinite",
            "kill()": "infinite",
            "logger()": "304",
            "parseInputs(bytes)": "infinite",
            "registry()": "283",
            "withdrawStuckFunds(address,address,uint256)": "infinite"
        },
        "internal": {
            "_withdraw(address,uint256,address,address)": "infinite"
        }
    }
}