{
    "contractName": "TravaNFTHeuristicFarmingStake",
    "abi": [
        {
            "inputs": [],
            "name": "NonContractCall",
            "type": "error"
        },
        {
            "inputs": [],
            "name": "ReturnIndexValueError",
            "type": "error"
        },
        {
            "inputs": [],
            "name": "SenderNotAdmin",
            "type": "error"
        },
        {
            "inputs": [],
            "name": "SenderNotOwner",
            "type": "error"
        },
        {
            "inputs": [],
            "name": "SubIndexValueError",
            "type": "error"
        },
        {
            "anonymous": false,
            "inputs": [
                {
                    "indexed": true,
                    "internalType": "string",
                    "name": "logName",
                    "type": "string"
                },
                {
                    "indexed": false,
                    "internalType": "bytes",
                    "name": "data",
                    "type": "bytes"
                }
            ],
            "name": "ActionEvent",
            "type": "event"
        },
        {
            "inputs": [],
            "name": "NO_PARAM_MAPPING",
            "outputs": [
                {
                    "internalType": "uint8",
                    "name": "",
                    "type": "uint8"
                }
            ],
            "stateMutability": "view",
            "type": "function"
        },
        {
            "inputs": [],
            "name": "RETURN_MAX_INDEX_VALUE",
            "outputs": [
                {
                    "internalType": "uint8",
                    "name": "",
                    "type": "uint8"
                }
            ],
            "stateMutability": "view",
            "type": "function"
        },
        {
            "inputs": [],
            "name": "RETURN_MIN_INDEX_VALUE",
            "outputs": [
                {
                    "internalType": "uint8",
                    "name": "",
                    "type": "uint8"
                }
            ],
            "stateMutability": "view",
            "type": "function"
        },
        {
            "inputs": [],
            "name": "SUB_MAX_INDEX_VALUE",
            "outputs": [
                {
                    "internalType": "uint8",
                    "name": "",
                    "type": "uint8"
                }
            ],
            "stateMutability": "view",
            "type": "function"
        },
        {
            "inputs": [],
            "name": "SUB_MIN_INDEX_VALUE",
            "outputs": [
                {
                    "internalType": "uint8",
                    "name": "",
                    "type": "uint8"
                }
            ],
            "stateMutability": "view",
            "type": "function"
        },
        {
            "inputs": [],
            "name": "actionType",
            "outputs": [
                {
                    "internalType": "uint8",
                    "name": "",
                    "type": "uint8"
                }
            ],
            "stateMutability": "pure",
            "type": "function"
        },
        {
            "inputs": [],
            "name": "adminVault",
            "outputs": [
                {
                    "internalType": "contract AdminVault",
                    "name": "",
                    "type": "address"
                }
            ],
            "stateMutability": "view",
            "type": "function"
        },
        {
            "inputs": [
                {
                    "internalType": "bytes",
                    "name": "_callData",
                    "type": "bytes"
                },
                {
                    "internalType": "bytes32[]",
                    "name": "_subData",
                    "type": "bytes32[]"
                },
                {
                    "internalType": "uint8[]",
                    "name": "_paramMapping",
                    "type": "uint8[]"
                },
                {
                    "internalType": "bytes32[]",
                    "name": "_returnValues",
                    "type": "bytes32[]"
                }
            ],
            "name": "executeAction",
            "outputs": [
                {
                    "internalType": "bytes32",
                    "name": "",
                    "type": "bytes32"
                }
            ],
            "stateMutability": "payable",
            "type": "function"
        },
        {
            "inputs": [
                {
                    "internalType": "bytes",
                    "name": "_callData",
                    "type": "bytes"
                }
            ],
            "name": "executeActionDirect",
            "outputs": [],
            "stateMutability": "payable",
            "type": "function"
        },
        {
            "inputs": [],
            "name": "kill",
            "outputs": [],
            "stateMutability": "nonpayable",
            "type": "function"
        },
        {
            "inputs": [],
            "name": "logger",
            "outputs": [
                {
                    "internalType": "contract DefisaverLogger",
                    "name": "",
                    "type": "address"
                }
            ],
            "stateMutability": "view",
            "type": "function"
        },
        {
            "inputs": [
                {
                    "internalType": "bytes",
                    "name": "_callData",
                    "type": "bytes"
                }
            ],
            "name": "parseInputs",
            "outputs": [
                {
                    "components": [
                        {
                            "internalType": "address",
                            "name": "vault",
                            "type": "address"
                        },
                        {
                            "internalType": "uint256[]",
                            "name": "ids",
                            "type": "uint256[]"
                        },
                        {
                            "internalType": "uint128",
                            "name": "level",
                            "type": "uint128"
                        },
                        {
                            "internalType": "address",
                            "name": "from",
                            "type": "address"
                        }
                    ],
                    "internalType": "struct TravaNFTHeuristicFarmingStake.Params",
                    "name": "params",
                    "type": "tuple"
                }
            ],
            "stateMutability": "pure",
            "type": "function"
        },
        {
            "inputs": [],
            "name": "registry",
            "outputs": [
                {
                    "internalType": "contract DFSRegistry",
                    "name": "",
                    "type": "address"
                }
            ],
            "stateMutability": "view",
            "type": "function"
        },
        {
            "inputs": [
                {
                    "internalType": "address",
                    "name": "_token",
                    "type": "address"
                },
                {
                    "internalType": "address",
                    "name": "_receiver",
                    "type": "address"
                },
                {
                    "internalType": "uint256",
                    "name": "_amount",
                    "type": "uint256"
                }
            ],
            "name": "withdrawStuckFunds",
            "outputs": [],
            "stateMutability": "nonpayable",
            "type": "function"
        }
    ],
    "bytecode": "608060405234801561001057600080fd5b5061163b806100206000396000f3fe6080604052600436106100dd5760003560e01c80638cedca711161007f5780639864dcdd116100595780639864dcdd1461022c578063c579d49014610241578063d3c2e7ed14610261578063f24ccbfe1461027657600080fd5b80638cedca71146101b65780638df50f74146101de5780639093410d146101ff57600080fd5b8063389f87ff116100bb578063389f87ff1461013757806341c0e1b51461014c5780637b103999146101615780638bcb6216146101a157600080fd5b80630f2eee42146100e2578063247492f81461010e5780632fa13cb814610122575b600080fd5b3480156100ee57600080fd5b506100f7608081565b60405160ff90911681526020015b60405180910390f35b34801561011a57600080fd5b5060016100f7565b34801561012e57600080fd5b506100f7600081565b61014a6101453660046110e5565b61029e565b005b34801561015857600080fd5b5061014a61033b565b34801561016d57600080fd5b5061018973147f157cb4e328e9c0db68dba5305fb7c29e732881565b6040516001600160a01b039091168152602001610105565b3480156101ad57600080fd5b506100f7600181565b3480156101c257600080fd5b5061018973f30f1fdcc52e1774cbc84c57e11a538d6b1404aa81565b6101f16101ec366004611118565b6103f4565b604051908152602001610105565b34801561020b57600080fd5b5061021f61021a3660046110e5565b610646565b6040516101059190611466565b34801561023857600080fd5b506100f7607f81565b34801561024d57600080fd5b5061014a61025c366004611085565b610682565b34801561026d57600080fd5b506100f760ff81565b34801561028257600080fd5b506101897337cfac15ede74f29fe164c460974bd61cc799eff81565b60006102a982610646565b905060006102c982600001518360200151846040015185606001516107b2565b60405163f4b24b5560e01b81529092507337cfac15ede74f29fe164c460974bd61cc799eff915063f4b24b559061030490849060040161141f565b600060405180830381600087803b15801561031e57600080fd5b505af1158015610332573d6000803e3d6000fd5b50505050505050565b336001600160a01b031673f30f1fdcc52e1774cbc84c57e11a538d6b1404aa6001600160a01b031663f851a4406040518163ffffffff1660e01b815260040160206040518083038186803b15801561039257600080fd5b505afa1580156103a6573d6000803e3d6000fd5b505050506040513d601f19601f820116820180604052508101906103ca9190611062565b6001600160a01b0316146103f15760405163a6c827a960e01b815260040160405180910390fd5b33ff5b60008061040086610646565b905061043a81600001518560008151811061042b57634e487b7160e01b600052603260045260246000fd5b60200260200101518786610b2d565b6001600160a01b0316815260208101515160005b81811015610501576104c08360200151828151811061047d57634e487b7160e01b600052603260045260246000fd5b602002602001015187836001610493919061153f565b815181106104b157634e487b7160e01b600052603260045260246000fd5b60200260200101518988610c5c565b836020015182815181106104e457634e487b7160e01b600052603260045260246000fd5b6020908102919091010152806104f9816115a6565b91505061044e565b50604082015161054d906001600160801b03168661052084600161153f565b8151811061053e57634e487b7160e01b600052603260045260246000fd5b60200260200101518887610c5c565b6001600160801b03166040830152606082015161059d908661057084600261153f565b8151811061058e57634e487b7160e01b600052603260045260246000fd5b60200260200101518887610b2d565b6001600160a01b03166060830181905282516020840151604085015160009384936105cb93909290916107b2565b6040517f54726176614e46544865757269737469634661726d696e675374616b6500000081529193509150601d0160405180910390207f2b6d22f419271bcc89bbac8deec947c664365d6e24d06fef0ca7c325c704dce382604051610630919061140c565b60405180910390a250925050505b949350505050565b604080516080810182526000808252606060208084018290529383018290528201528251909161067c9184018101908401611225565b92915050565b336001600160a01b031673f30f1fdcc52e1774cbc84c57e11a538d6b1404aa6001600160a01b0316638da5cb5b6040518163ffffffff1660e01b815260040160206040518083038186803b1580156106d957600080fd5b505afa1580156106ed573d6000803e3d6000fd5b505050506040513d601f19601f820116820180604052508101906107119190611062565b6001600160a01b03161461073857604051630ca4a64560e11b815260040160405180910390fd5b73eeeeeeeeeeeeeeeeeeeeeeeeeeeeeeeeeeeeeeee6001600160a01b0384161415610799576040516001600160a01b0383169082156108fc029083906000818181858888f19350505050158015610793573d6000803e3d6000fd5b50505050565b6107ad6001600160a01b0384168383610cb2565b505050565b600060606001600160a01b0383166107c8573092505b60005b855181101561089e57735d996ec57756ceb127a4ed3302d7f28f52fdebb16001600160a01b03166323b872dd853089858151811061081957634e487b7160e01b600052603260045260246000fd5b60209081029190910101516040516001600160e01b031960e086901b1681526001600160a01b0393841660048201529290911660248301526044820152606401600060405180830381600087803b15801561087357600080fd5b505af1158015610887573d6000803e3d6000fd5b505050508080610896906115a6565b9150506107cb565b5060005b8551811015610a8b57306001600160a01b0316735d996ec57756ceb127a4ed3302d7f28f52fdebb16001600160a01b0316636352211e8884815181106108f857634e487b7160e01b600052603260045260246000fd5b60200260200101516040518263ffffffff1660e01b815260040161091e91815260200190565b60206040518083038186803b15801561093657600080fd5b505afa15801561094a573d6000803e3d6000fd5b505050506040513d601f19601f8201168201806040525081019061096e9190611062565b6001600160a01b0316146109c95760405162461bcd60e51b815260206004820152601c60248201527f4f776e657220646f6573206e6f7420706f737365737320746f6b656e0000000060448201526064015b60405180910390fd5b735d996ec57756ceb127a4ed3302d7f28f52fdebb16001600160a01b031663095ea7b388888481518110610a0d57634e487b7160e01b600052603260045260246000fd5b60200260200101516040518363ffffffff1660e01b8152600401610a469291906001600160a01b03929092168252602082015260400190565b600060405180830381600087803b158015610a6057600080fd5b505af1158015610a74573d6000803e3d6000fd5b505050508080610a83906115a6565b9150506108a2565b50604051632739a44f60e01b81526001600160a01b03871690632739a44f90610aba90889088906004016113e1565b600060405180830381600087803b158015610ad457600080fd5b505af1158015610ae8573d6000803e3d6000fd5b50505050600086868686604051602001610b05949392919061139d565b60408051601f198184030181529190526001600160801b038616935091505094509492505050565b600060ff841615610c5357610b4184610d04565b15610b835781610b5085610d23565b60ff1681518110610b7157634e487b7160e01b600052603260045260246000fd5b602002602001015160601c9450610c53565b8360ff1660fe1415610b9657503061063e565b8360ff1660ff1415610c1a57306001600160a01b0316638da5cb5b6040518163ffffffff1660e01b815260040160206040518083038186803b158015610bdb57600080fd5b505afa158015610bef573d6000803e3d6000fd5b505050506040513d601f19601f82011682018060405250810190610c139190611062565b905061063e565b82610c2485610d56565b60ff1681518110610c4557634e487b7160e01b600052603260045260246000fd5b602002602001015160001c94505b50929392505050565b600060ff841615610c5357610c7084610d04565b15610c1a5781610c7f85610d23565b60ff1681518110610ca057634e487b7160e01b600052603260045260246000fd5b602002602001015160001c9450610c53565b604080516001600160a01b038416602482015260448082018490528251808303909101815260649091019091526020810180516001600160e01b031663a9059cbb60e01b1790526107ad908490610d88565b6000600160ff83161080159061067c5750607f60ff8316111592915050565b6000610d2e82610d04565b610d4b5760405163dcc95a3960e01b815260040160405180910390fd5b61067c600183611557565b6000608060ff83161015610d7d5760405163866f6e8760e01b815260040160405180910390fd5b61067c608083611557565b6000610ddd826040518060400160405280602081526020017f5361666545524332303a206c6f772d6c6576656c2063616c6c206661696c6564815250856001600160a01b0316610e5a9092919063ffffffff16565b8051909150156107ad5780806020019051810190610dfb91906110c5565b6107ad5760405162461bcd60e51b815260206004820152602a60248201527f5361666545524332303a204552433230206f7065726174696f6e20646964206e6044820152691bdd081cdd58d8d9595960b21b60648201526084016109c0565b606061063e84846000856060610e6f85610f28565b610e8c5760405163304619b560e01b815260040160405180910390fd5b600080866001600160a01b03168587604051610ea89190611381565b60006040518083038185875af1925050503d8060008114610ee5576040519150601f19603f3d011682016040523d82523d6000602084013e610eea565b606091505b50915091508115610efe57915061063e9050565b805115610f0e5780518082602001fd5b8360405162461bcd60e51b81526004016109c0919061140c565b6000813f7fc5d2460186f7233c927e7db2dcc703c0e500b653ca82273b7bfad8045d85a47081811480159061063e575050151592915050565b8051610f6c816115ed565b919050565b600082601f830112610f81578081fd5b81356020610f96610f918361151b565b6114ea565b80838252828201915082860187848660051b8901011115610fb5578586fd5b855b85811015610fd357813584529284019290840190600101610fb7565b5090979650505050505050565b600082601f830112610ff0578081fd5b813567ffffffffffffffff81111561100a5761100a6115d7565b61101d601f8201601f19166020016114ea565b818152846020838601011115611031578283fd5b816020850160208301379081016020019190915292915050565b80516001600160801b0381168114610f6c57600080fd5b600060208284031215611073578081fd5b815161107e816115ed565b9392505050565b600080600060608486031215611099578182fd5b83356110a4816115ed565b925060208401356110b4816115ed565b929592945050506040919091013590565b6000602082840312156110d6578081fd5b8151801515811461107e578182fd5b6000602082840312156110f6578081fd5b813567ffffffffffffffff81111561110c578182fd5b61063e84828501610fe0565b6000806000806080858703121561112d578081fd5b843567ffffffffffffffff80821115611144578283fd5b61115088838901610fe0565b9550602091508187013581811115611166578384fd5b61117289828a01610f71565b955050604087013581811115611186578384fd5b8701601f81018913611196578384fd5b80356111a4610f918261151b565b8082825285820191508584018c878560051b87010111156111c3578788fd5b8794505b838510156111f357803560ff811681146111df578889fd5b8352600194909401939186019186016111c7565b509650505050606087013591508082111561120c578283fd5b5061121987828801610f71565b91505092959194509250565b60006020808385031215611237578182fd5b825167ffffffffffffffff8082111561124e578384fd5b9084019060808287031215611261578384fd5b6112696114c1565b8251611274816115ed565b81528284015182811115611286578586fd5b83019150601f82018713611298578485fd5b81516112a6610f918261151b565b8082825286820191508685018a888560051b88010111156112c5578889fd5b8895505b838610156112e75780518352600195909501949187019187016112c9565b5083870152506112fb90506040840161104b565b604082015261130c60608401610f61565b60608201529695505050505050565b6000815180845260208085019450808401835b8381101561134a5781518752958201959082019060010161132e565b509495945050505050565b6000815180845261136d81602086016020860161157a565b601f01601f19169290920160200192915050565b6000825161139381846020870161157a565b9190910192915050565b600060018060a01b038087168352608060208401526113bf608084018761131b565b6001600160801b03959095166040840152929092166060909101525092915050565b6040815260006113f4604083018561131b565b90506001600160801b03831660208301529392505050565b60208152600061107e6020830184611355565b60408152601d60408201527f54726176614e46544865757269737469634661726d696e675374616b65000000606082015260806020820152600061107e6080830184611355565b60208152600060018060a01b0380845116602084015260208401516080604085015261149560a085018261131b565b90506001600160801b036040860151166060850152816060860151166080850152809250505092915050565b6040516080810167ffffffffffffffff811182821017156114e4576114e46115d7565b60405290565b604051601f8201601f1916810167ffffffffffffffff81118282101715611513576115136115d7565b604052919050565b600067ffffffffffffffff821115611535576115356115d7565b5060051b60200190565b60008219821115611552576115526115c1565b500190565b600060ff821660ff841680821015611571576115716115c1565b90039392505050565b60005b8381101561159557818101518382015260200161157d565b838111156107935750506000910152565b60006000198214156115ba576115ba6115c1565b5060010190565b634e487b7160e01b600052601160045260246000fd5b634e487b7160e01b600052604160045260246000fd5b6001600160a01b038116811461160257600080fd5b5056fea2646970667358221220563a1b89bea8872bb10cc21650bb5c690939f0cce3cdc102b615c9d57c9b743464736f6c63430008040033",
    "sourcePath": "e:/trava-saver-main-core/trava-station-core/contracts/actions/trava/nft/heuristicFarming/TravaNFTHeuristicFarmingStake.sol",
    "compiler": {
        "name": "solc",
        "version": "0.8.4+commit.c7e474f2"
    },
    "functionHashes": {
        "NO_PARAM_MAPPING()": "2fa13cb8",
        "RETURN_MAX_INDEX_VALUE()": "9864dcdd",
        "RETURN_MIN_INDEX_VALUE()": "8bcb6216",
        "SUB_MAX_INDEX_VALUE()": "d3c2e7ed",
        "SUB_MIN_INDEX_VALUE()": "0f2eee42",
        "actionType()": "247492f8",
        "adminVault()": "8cedca71",
        "executeAction(bytes,bytes32[],uint8[],bytes32[])": "8df50f74",
        "executeActionDirect(bytes)": "389f87ff",
        "kill()": "41c0e1b5",
        "logger()": "f24ccbfe",
        "parseInputs(bytes)": "9093410d",
        "registry()": "7b103999",
        "withdrawStuckFunds(address,address,uint256)": "c579d490"
    },
    "gasEstimates": {
        "creation": {
            "codeDepositCost": "1138200",
            "executionCost": "1180",
            "totalCost": "1139380"
        },
        "external": {
            "NO_PARAM_MAPPING()": "261",
            "RETURN_MAX_INDEX_VALUE()": "215",
            "RETURN_MIN_INDEX_VALUE()": "282",
            "SUB_MAX_INDEX_VALUE()": "259",
            "SUB_MIN_INDEX_VALUE()": "217",
            "actionType()": "236",
            "adminVault()": "239",
            "executeAction(bytes,bytes32[],uint8[],bytes32[])": "infinite",
            "executeActionDirect(bytes)": "infinite",
            "kill()": "infinite",
            "logger()": "304",
            "parseInputs(bytes)": "infinite",
            "registry()": "283",
            "withdrawStuckFunds(address,address,uint256)": "infinite"
        },
        "internal": {
            "_stake(address,uint256[] memory,uint128,address)": "infinite"
        }
    }
}