{
    "contractName": "RadiantRepay",
    "abi": [
        {
            "inputs": [],
            "name": "NonContractCall",
            "type": "error"
        },
        {
            "inputs": [],
            "name": "ReturnIndexValueError",
            "type": "error"
        },
        {
            "inputs": [],
            "name": "SenderNotAdmin",
            "type": "error"
        },
        {
            "inputs": [],
            "name": "SenderNotOwner",
            "type": "error"
        },
        {
            "inputs": [],
            "name": "SubIndexValueError",
            "type": "error"
        },
        {
            "anonymous": false,
            "inputs": [
                {
                    "indexed": true,
                    "internalType": "string",
                    "name": "logName",
                    "type": "string"
                },
                {
                    "indexed": false,
                    "internalType": "bytes",
                    "name": "data",
                    "type": "bytes"
                }
            ],
            "name": "ActionEvent",
            "type": "event"
        },
        {
            "inputs": [],
            "name": "DATA_PROVIDER_ID",
            "outputs": [
                {
                    "internalType": "bytes32",
                    "name": "",
                    "type": "bytes32"
                }
            ],
            "stateMutability": "view",
            "type": "function"
        },
        {
            "inputs": [],
            "name": "NO_PARAM_MAPPING",
            "outputs": [
                {
                    "internalType": "uint8",
                    "name": "",
                    "type": "uint8"
                }
            ],
            "stateMutability": "view",
            "type": "function"
        },
        {
            "inputs": [],
            "name": "RADIANT_REFERRAL_CODE",
            "outputs": [
                {
                    "internalType": "uint16",
                    "name": "",
                    "type": "uint16"
                }
            ],
            "stateMutability": "view",
            "type": "function"
        },
        {
            "inputs": [],
            "name": "RETURN_MAX_INDEX_VALUE",
            "outputs": [
                {
                    "internalType": "uint8",
                    "name": "",
                    "type": "uint8"
                }
            ],
            "stateMutability": "view",
            "type": "function"
        },
        {
            "inputs": [],
            "name": "RETURN_MIN_INDEX_VALUE",
            "outputs": [
                {
                    "internalType": "uint8",
                    "name": "",
                    "type": "uint8"
                }
            ],
            "stateMutability": "view",
            "type": "function"
        },
        {
            "inputs": [],
            "name": "SUB_MAX_INDEX_VALUE",
            "outputs": [
                {
                    "internalType": "uint8",
                    "name": "",
                    "type": "uint8"
                }
            ],
            "stateMutability": "view",
            "type": "function"
        },
        {
            "inputs": [],
            "name": "SUB_MIN_INDEX_VALUE",
            "outputs": [
                {
                    "internalType": "uint8",
                    "name": "",
                    "type": "uint8"
                }
            ],
            "stateMutability": "view",
            "type": "function"
        },
        {
            "inputs": [],
            "name": "actionType",
            "outputs": [
                {
                    "internalType": "uint8",
                    "name": "",
                    "type": "uint8"
                }
            ],
            "stateMutability": "pure",
            "type": "function"
        },
        {
            "inputs": [],
            "name": "adminVault",
            "outputs": [
                {
                    "internalType": "contract AdminVault",
                    "name": "",
                    "type": "address"
                }
            ],
            "stateMutability": "view",
            "type": "function"
        },
        {
            "inputs": [
                {
                    "internalType": "address",
                    "name": "_market",
                    "type": "address"
                },
                {
                    "internalType": "address",
                    "name": "_tokenAddr",
                    "type": "address"
                },
                {
                    "internalType": "bool",
                    "name": "_useAsCollateral",
                    "type": "bool"
                }
            ],
            "name": "enableAsCollateral",
            "outputs": [],
            "stateMutability": "nonpayable",
            "type": "function"
        },
        {
            "inputs": [
                {
                    "internalType": "bytes",
                    "name": "_callData",
                    "type": "bytes"
                },
                {
                    "internalType": "bytes32[]",
                    "name": "_subData",
                    "type": "bytes32[]"
                },
                {
                    "internalType": "uint8[]",
                    "name": "_paramMapping",
                    "type": "uint8[]"
                },
                {
                    "internalType": "bytes32[]",
                    "name": "_returnValues",
                    "type": "bytes32[]"
                }
            ],
            "name": "executeAction",
            "outputs": [
                {
                    "internalType": "bytes32",
                    "name": "",
                    "type": "bytes32"
                }
            ],
            "stateMutability": "payable",
            "type": "function"
        },
        {
            "inputs": [
                {
                    "internalType": "bytes",
                    "name": "_callData",
                    "type": "bytes"
                }
            ],
            "name": "executeActionDirect",
            "outputs": [],
            "stateMutability": "payable",
            "type": "function"
        },
        {
            "inputs": [],
            "name": "kill",
            "outputs": [],
            "stateMutability": "nonpayable",
            "type": "function"
        },
        {
            "inputs": [],
            "name": "logger",
            "outputs": [
                {
                    "internalType": "contract DefisaverLogger",
                    "name": "",
                    "type": "address"
                }
            ],
            "stateMutability": "view",
            "type": "function"
        },
        {
            "inputs": [
                {
                    "internalType": "bytes",
                    "name": "_callData",
                    "type": "bytes"
                }
            ],
            "name": "parseInputs",
            "outputs": [
                {
                    "components": [
                        {
                            "internalType": "address",
                            "name": "market",
                            "type": "address"
                        },
                        {
                            "internalType": "address",
                            "name": "tokenAddr",
                            "type": "address"
                        },
                        {
                            "internalType": "uint256",
                            "name": "amount",
                            "type": "uint256"
                        },
                        {
                            "internalType": "uint256",
                            "name": "rateMode",
                            "type": "uint256"
                        },
                        {
                            "internalType": "address",
                            "name": "from",
                            "type": "address"
                        },
                        {
                            "internalType": "address",
                            "name": "onBehalf",
                            "type": "address"
                        }
                    ],
                    "internalType": "struct RadiantRepay.Params",
                    "name": "params",
                    "type": "tuple"
                }
            ],
            "stateMutability": "pure",
            "type": "function"
        },
        {
            "inputs": [],
            "name": "registry",
            "outputs": [
                {
                    "internalType": "contract DFSRegistry",
                    "name": "",
                    "type": "address"
                }
            ],
            "stateMutability": "view",
            "type": "function"
        },
        {
            "inputs": [
                {
                    "internalType": "address",
                    "name": "_token",
                    "type": "address"
                },
                {
                    "internalType": "address",
                    "name": "_receiver",
                    "type": "address"
                },
                {
                    "internalType": "uint256",
                    "name": "_amount",
                    "type": "uint256"
                }
            ],
            "name": "withdrawStuckFunds",
            "outputs": [],
            "stateMutability": "nonpayable",
            "type": "function"
        }
    ],
    "bytecode": "608060405234801561001057600080fd5b50611cc6806100206000396000f3fe6080604052600436106100fe5760003560e01c80638df50f7411610095578063c579d49011610064578063c579d490146102d4578063d3c2e7ed146102f4578063daa6059914610309578063f1cb308814610321578063f24ccbfe1461034157600080fd5b80638df50f74146101ff5780639093410d146102205780639864dcdd14610297578063bbd8c72e146102ac57600080fd5b806341c0e1b5116100d157806341c0e1b51461016d5780637b103999146101825780638bcb6216146101c25780638cedca71146101d757600080fd5b80630f2eee4214610103578063247492f81461012f5780632fa13cb814610143578063389f87ff14610158575b600080fd5b34801561010f57600080fd5b50610118608081565b60405160ff90911681526020015b60405180910390f35b34801561013b57600080fd5b506001610118565b34801561014f57600080fd5b50610118600081565b61016b61016636600461187a565b610369565b005b34801561017957600080fd5b5061016b610410565b34801561018e57600080fd5b506101aa73147f157cb4e328e9c0db68dba5305fb7c29e732881565b6040516001600160a01b039091168152602001610126565b3480156101ce57600080fd5b50610118600181565b3480156101e357600080fd5b506101aa73f30f1fdcc52e1774cbc84c57e11a538d6b1404aa81565b61021261020d3660046118ad565b6104c9565b604051908152602001610126565b34801561022c57600080fd5b5061024061023b36600461187a565b6106d5565b604051610126919081516001600160a01b039081168252602080840151821690830152604080840151908301526060808401519083015260808084015182169083015260a092830151169181019190915260c00190565b3480156102a357600080fd5b50610118607f81565b3480156102b857600080fd5b506102c1604081565b60405161ffff9091168152602001610126565b3480156102e057600080fd5b5061016b6102ef36600461181e565b61071f565b34801561030057600080fd5b5061011860ff81565b34801561031557600080fd5b50610212600160f81b81565b34801561032d57600080fd5b5061016b61033c3660046117d4565b61084f565b34801561034d57600080fd5b506101aa7337cfac15ede74f29fe164c460974bd61cc799eff81565b6000610374826106d5565b9050600061039e826000015183602001518460400151856060015186608001518760a0015161092f565b60405163f4b24b5560e01b81529092507337cfac15ede74f29fe164c460974bd61cc799eff915063f4b24b55906103d9908490600401611b4d565b600060405180830381600087803b1580156103f357600080fd5b505af1158015610407573d6000803e3d6000fd5b50505050505050565b336001600160a01b031673f30f1fdcc52e1774cbc84c57e11a538d6b1404aa6001600160a01b031663f851a4406040518163ffffffff1660e01b815260040160206040518083038186803b15801561046757600080fd5b505afa15801561047b573d6000803e3d6000fd5b505050506040513d601f19601f8201168201806040525081019061049f91906117b8565b6001600160a01b0316146104c65760405163a6c827a960e01b815260040160405180910390fd5b33ff5b6000806104d5866106d5565b905061050f81600001518560008151811061050057634e487b7160e01b600052603260045260246000fd5b60200260200101518786610ad1565b6001600160a01b031681526020810151845161054791908690600190811061050057634e487b7160e01b600052603260045260246000fd5b6001600160a01b031660208201526040810151845161059191908690600290811061058257634e487b7160e01b600052603260045260246000fd5b60200260200101518786610c00565b8160400181815250506105c381606001518560038151811061058257634e487b7160e01b600052603260045260246000fd5b8160600181815250506105f581608001518560048151811061050057634e487b7160e01b600052603260045260246000fd5b6001600160a01b0316608082015260a0810151845161063091908690600590811061050057634e487b7160e01b600052603260045260246000fd5b6001600160a01b031660a0820181905281516020830151604084015160608501516080860151600095869561066c95909490939092909161092f565b6040516b52616469616e74526570617960a01b81529193509150600c0160405180910390207f2b6d22f419271bcc89bbac8deec947c664365d6e24d06fef0ca7c325c704dce3826040516106c09190611b3a565b60405180910390a2509150505b949350505050565b6040805160c08101825260008082526020808301829052928201819052606082018190526080820181905260a08201528251909161071991840181019084016119ba565b92915050565b336001600160a01b031673f30f1fdcc52e1774cbc84c57e11a538d6b1404aa6001600160a01b0316638da5cb5b6040518163ffffffff1660e01b815260040160206040518083038186803b15801561077657600080fd5b505afa15801561078a573d6000803e3d6000fd5b505050506040513d601f19601f820116820180604052508101906107ae91906117b8565b6001600160a01b0316146107d557604051630ca4a64560e11b815260040160405180910390fd5b73eeeeeeeeeeeeeeeeeeeeeeeeeeeeeeeeeeeeeeee6001600160a01b0384161415610836576040516001600160a01b0383169082156108fc029083906000818181858888f19350505050158015610830573d6000803e3d6000fd5b50505050565b61084a6001600160a01b0384168383610c56565b505050565b6000836001600160a01b0316630261bf8b6040518163ffffffff1660e01b815260040160206040518083038186803b15801561088a57600080fd5b505afa15801561089e573d6000803e3d6000fd5b505050506040513d601f19601f820116820180604052508101906108c291906117b8565b604051635a3b74b960e01b81526001600160a01b038581166004830152841515602483015291925090821690635a3b74b990604401600060405180830381600087803b15801561091157600080fd5b505af1158015610925573d6000803e3d6000fd5b5050505050505050565b600060606001600160a01b038316610945573092505b876000610954828a8988610ca8565b90508088116109635787610965565b805b975061097b6001600160a01b038a16878a610d83565b506109906001600160a01b038a16838a610e12565b60006109a56001600160a01b038b1630610ed8565b60405163573ade8160e01b81526001600160a01b038c81166004830152602482018c9052604482018b905288811660648301529192509084169063573ade8190608401602060405180830381600087803b158015610a0257600080fd5b505af1158015610a16573d6000803e3d6000fd5b505050506040513d601f19601f82011682018060405250810190610a3a9190611a54565b506000610a506001600160a01b038c1630610ed8565b9050610a666001600160a01b038c168983610f90565b50604080516001600160a01b038e811660208301528d811682840152606082018d9052608082018c90528a811660a0830152891660c0808301919091528251808303909101815260e0909101909152610abf8284611bd8565b9d909c509a5050505050505050505050565b600060ff841615610bf757610ae5846110b8565b15610b275781610af4856110d7565b60ff1681518110610b1557634e487b7160e01b600052603260045260246000fd5b602002602001015160601c9450610bf7565b8360ff1660fe1415610b3a5750306106cd565b8360ff1660ff1415610bbe57306001600160a01b0316638da5cb5b6040518163ffffffff1660e01b815260040160206040518083038186803b158015610b7f57600080fd5b505afa158015610b93573d6000803e3d6000fd5b505050506040513d601f19601f82011682018060405250810190610bb791906117b8565b90506106cd565b82610bc88561110a565b60ff1681518110610be957634e487b7160e01b600052603260045260246000fd5b602002602001015160001c94505b50929392505050565b600060ff841615610bf757610c14846110b8565b15610bbe5781610c23856110d7565b60ff1681518110610c4457634e487b7160e01b600052603260045260246000fd5b602002602001015160001c9450610bf7565b604080516001600160a01b038416602482015260448082018490528251808303909101815260649091019091526020810180516001600160e01b031663a9059cbb60e01b17905261084a90849061113c565b60006001600282610cb88861120e565b6040516328dd2d0160e01b81526001600160a01b03898116600483015287811660248301529192506000918291908416906328dd2d01906044016101206040518083038186803b158015610d0b57600080fd5b505afa158015610d1f573d6000803e3d6000fd5b505050506040513d601f19601f82011682018060405250810190610d439190611a6c565b505050505050925092505084881415610d62575093506106cd92505050565b83881415610d765794506106cd9350505050565b5050505050949350505050565b6000600019821415610d9c57610d998484610ed8565b91505b6001600160a01b03831615801590610dbd57506001600160a01b0383163014155b8015610de657506001600160a01b03841673eeeeeeeeeeeeeeeeeeeeeeeeeeeeeeeeeeeeeeee14155b8015610df157508115155b15610e0b57610e0b6001600160a01b03851684308561128c565b5092915050565b6001600160a01b03831673eeeeeeeeeeeeeeeeeeeeeeeeeeeeeeeeeeeeeeee1415610e3c57505050565b604051636eb1769f60e11b81523060048201526001600160a01b03838116602483015282919085169063dd62ed3e9060440160206040518083038186803b158015610e8657600080fd5b505afa158015610e9a573d6000803e3d6000fd5b505050506040513d601f19601f82011682018060405250810190610ebe9190611a54565b101561084a5761084a6001600160a01b03841683836112f7565b60006001600160a01b03831673eeeeeeeeeeeeeeeeeeeeeeeeeeeeeeeeeeeeeeee1415610f1057506001600160a01b03811631610719565b6040516370a0823160e01b81526001600160a01b0383811660048301528416906370a082319060240160206040518083038186803b158015610f5157600080fd5b505afa158015610f65573d6000803e3d6000fd5b505050506040513d601f19601f82011682018060405250810190610f899190611a54565b9392505050565b6000600019821415610fa957610fa68430610ed8565b91505b6001600160a01b03831615801590610fca57506001600160a01b0383163014155b8015610fd557508115155b15610e0b576001600160a01b03841673eeeeeeeeeeeeeeeeeeeeeeeeeeeeeeeeeeeeeeee14611017576110126001600160a01b038516848461141b565b610e0b565b6000836001600160a01b03168360405160006040518083038185875af1925050503d8060008114611064576040519150601f19603f3d011682016040523d82523d6000602084013e611069565b606091505b50509050806110af5760405162461bcd60e51b815260206004820152600d60248201526c115d1a081cd95b990819985a5b609a1b60448201526064015b60405180910390fd5b50909392505050565b6000600160ff8316108015906107195750607f60ff8316111592915050565b60006110e2826110b8565b6110ff5760405163dcc95a3960e01b815260040160405180910390fd5b610719600183611bef565b6000608060ff831610156111315760405163866f6e8760e01b815260040160405180910390fd5b610719608083611bef565b6000611191826040518060400160405280602081526020017f5361666545524332303a206c6f772d6c6576656c2063616c6c206661696c6564815250856001600160a01b031661144b9092919063ffffffff16565b80519091501561084a57808060200190518101906111af919061185e565b61084a5760405162461bcd60e51b815260206004820152602a60248201527f5361666545524332303a204552433230206f7065726174696f6e20646964206e6044820152691bdd081cdd58d8d9595960b21b60648201526084016110a6565b6040516321f8a72160e01b8152600160f81b60048201526000906001600160a01b038316906321f8a7219060240160206040518083038186803b15801561125457600080fd5b505afa158015611268573d6000803e3d6000fd5b505050506040513d601f19601f8201168201806040525081019061071991906117b8565b6040516001600160a01b03808516602483015283166044820152606481018290526108309085906323b872dd60e01b906084015b60408051601f198184030181529190526020810180516001600160e01b03166001600160e01b03199093169290921790915261145a565b8015806113805750604051636eb1769f60e11b81523060048201526001600160a01b03838116602483015284169063dd62ed3e9060440160206040518083038186803b15801561134657600080fd5b505afa15801561135a573d6000803e3d6000fd5b505050506040513d601f19601f8201168201806040525081019061137e9190611a54565b155b6113eb5760405162461bcd60e51b815260206004820152603660248201527f5361666542455032303a20617070726f76652066726f6d206e6f6e2d7a65726f60448201527520746f206e6f6e2d7a65726f20616c6c6f77616e636560501b60648201526084016110a6565b6040516001600160a01b03831660248201526044810182905261084a90849063095ea7b360e01b906064016112c0565b6040516001600160a01b03831660248201526044810182905261084a90849063a9059cbb60e01b906064016112c0565b60606106cd84846000856115e1565b61146c826001600160a01b03166116a5565b6114b85760405162461bcd60e51b815260206004820152601f60248201527f5361666542455032303a2063616c6c20746f206e6f6e2d636f6e74726163740060448201526064016110a6565b600080836001600160a01b0316836040516114d39190611b1e565b6000604051808303816000865af19150503d8060008114611510576040519150601f19603f3d011682016040523d82523d6000602084013e611515565b606091505b5091509150816115675760405162461bcd60e51b815260206004820181905260248201527f5361666542455032303a206c6f772d6c6576656c2063616c6c206661696c656460448201526064016110a6565b8051156108305780806020019051810190611582919061185e565b6108305760405162461bcd60e51b815260206004820152602a60248201527f5361666542455032303a204245503230206f7065726174696f6e20646964206e6044820152691bdd081cdd58d8d9595960b21b60648201526084016110a6565b60606115ec856116a5565b6116095760405163304619b560e01b815260040160405180910390fd5b600080866001600160a01b031685876040516116259190611b1e565b60006040518083038185875af1925050503d8060008114611662576040519150601f19603f3d011682016040523d82523d6000602084013e611667565b606091505b5091509150811561167b5791506106cd9050565b80511561168b5780518082602001fd5b8360405162461bcd60e51b81526004016110a69190611b3a565b6000813f7fc5d2460186f7233c927e7db2dcc703c0e500b653ca82273b7bfad8045d85a4708181148015906106cd575050151592915050565b600082601f8301126116ee578081fd5b813560206117036116fe83611bb4565b611b83565b80838252828201915082860187848660051b8901011115611722578586fd5b855b8581101561174057813584529284019290840190600101611724565b5090979650505050505050565b600082601f83011261175d578081fd5b813567ffffffffffffffff81111561177757611777611c54565b61178a601f8201601f1916602001611b83565b81815284602083860101111561179e578283fd5b816020850160208301379081016020019190915292915050565b6000602082840312156117c9578081fd5b8151610f8981611c6a565b6000806000606084860312156117e8578182fd5b83356117f381611c6a565b9250602084013561180381611c6a565b9150604084013561181381611c82565b809150509250925092565b600080600060608486031215611832578283fd5b833561183d81611c6a565b9250602084013561184d81611c6a565b929592945050506040919091013590565b60006020828403121561186f578081fd5b8151610f8981611c82565b60006020828403121561188b578081fd5b813567ffffffffffffffff8111156118a1578182fd5b6106cd8482850161174d565b600080600080608085870312156118c2578081fd5b843567ffffffffffffffff808211156118d9578283fd5b6118e58883890161174d565b95506020915081870135818111156118fb578384fd5b61190789828a016116de565b95505060408701358181111561191b578384fd5b8701601f8101891361192b578384fd5b80356119396116fe82611bb4565b8082825285820191508584018c878560051b8701011115611958578788fd5b8794505b8385101561198857803560ff81168114611974578889fd5b83526001949094019391860191860161195c565b50965050505060608701359150808211156119a1578283fd5b506119ae878288016116de565b91505092959194509250565b600060c082840312156119cb578081fd5b60405160c0810181811067ffffffffffffffff821117156119ee576119ee611c54565b60405282516119fc81611c6a565b81526020830151611a0c81611c6a565b8060208301525060408301516040820152606083015160608201526080830151611a3581611c6a565b608082015260a0830151611a4881611c6a565b60a08201529392505050565b600060208284031215611a65578081fd5b5051919050565b60008060008060008060008060006101208a8c031215611a8a578687fd5b8951985060208a0151975060408a0151965060608a0151955060808a0151945060a08a0151935060c08a0151925060e08a015164ffffffffff81168114611acf578283fd5b6101008b0151909250611ae181611c82565b809150509295985092959850929598565b60008151808452611b0a816020860160208601611c12565b601f01601f19169290920160200192915050565b60008251611b30818460208701611c12565b9190910192915050565b602081526000610f896020830184611af2565b60408152600c60408201526b52616469616e74526570617960a01b6060820152608060208201526000610f896080830184611af2565b604051601f8201601f1916810167ffffffffffffffff81118282101715611bac57611bac611c54565b604052919050565b600067ffffffffffffffff821115611bce57611bce611c54565b5060051b60200190565b600082821015611bea57611bea611c3e565b500390565b600060ff821660ff841680821015611c0957611c09611c3e565b90039392505050565b60005b83811015611c2d578181015183820152602001611c15565b838111156108305750506000910152565b634e487b7160e01b600052601160045260246000fd5b634e487b7160e01b600052604160045260246000fd5b6001600160a01b0381168114611c7f57600080fd5b50565b8015158114611c7f57600080fdfea264697066735822122073c1d30ef21fa901dd067459a1680ff0e6879a8a675a6cdd95a1ae8a40690a2364736f6c63430008040033",
    "sourcePath": "e:/trava-saver-main-core/trava-station-core/contracts/actions/radiant/RadiantRepay.sol",
    "compiler": {
        "name": "solc",
        "version": "0.8.4+commit.c7e474f2"
    },
    "functionHashes": {
        "DATA_PROVIDER_ID()": "daa60599",
        "NO_PARAM_MAPPING()": "2fa13cb8",
        "RADIANT_REFERRAL_CODE()": "bbd8c72e",
        "RETURN_MAX_INDEX_VALUE()": "9864dcdd",
        "RETURN_MIN_INDEX_VALUE()": "8bcb6216",
        "SUB_MAX_INDEX_VALUE()": "d3c2e7ed",
        "SUB_MIN_INDEX_VALUE()": "0f2eee42",
        "actionType()": "247492f8",
        "adminVault()": "8cedca71",
        "enableAsCollateral(address,address,bool)": "f1cb3088",
        "executeAction(bytes,bytes32[],uint8[],bytes32[])": "8df50f74",
        "executeActionDirect(bytes)": "389f87ff",
        "kill()": "41c0e1b5",
        "logger()": "f24ccbfe",
        "parseInputs(bytes)": "9093410d",
        "registry()": "7b103999",
        "withdrawStuckFunds(address,address,uint256)": "c579d490"
    },
    "gasEstimates": {
        "creation": {
            "codeDepositCost": "1473200",
            "executionCost": "1541",
            "totalCost": "1474741"
        },
        "external": {
            "DATA_PROVIDER_ID()": "267",
            "NO_PARAM_MAPPING()": "261",
            "RADIANT_REFERRAL_CODE()": "293",
            "RETURN_MAX_INDEX_VALUE()": "260",
            "RETURN_MIN_INDEX_VALUE()": "260",
            "SUB_MAX_INDEX_VALUE()": "237",
            "SUB_MIN_INDEX_VALUE()": "217",
            "actionType()": "236",
            "adminVault()": "305",
            "enableAsCollateral(address,address,bool)": "infinite",
            "executeAction(bytes,bytes32[],uint8[],bytes32[])": "infinite",
            "executeActionDirect(bytes)": "infinite",
            "kill()": "infinite",
            "logger()": "326",
            "parseInputs(bytes)": "infinite",
            "registry()": "261",
            "withdrawStuckFunds(address,address,uint256)": "infinite"
        },
        "internal": {
            "_payback(address,address,uint256,uint256,address,address)": "infinite"
        }
    }
}