{
    "contractName": "RadiantPayback",
    "abi": [
        {
            "inputs": [],
            "name": "NonContractCall",
            "type": "error"
        },
        {
            "inputs": [],
            "name": "ReturnIndexValueError",
            "type": "error"
        },
        {
            "inputs": [],
            "name": "SenderNotAdmin",
            "type": "error"
        },
        {
            "inputs": [],
            "name": "SenderNotOwner",
            "type": "error"
        },
        {
            "inputs": [],
            "name": "SubIndexValueError",
            "type": "error"
        },
        {
            "anonymous": false,
            "inputs": [
                {
                    "indexed": true,
                    "internalType": "string",
                    "name": "logName",
                    "type": "string"
                },
                {
                    "indexed": false,
                    "internalType": "bytes",
                    "name": "data",
                    "type": "bytes"
                }
            ],
            "name": "ActionEvent",
            "type": "event"
        },
        {
            "inputs": [],
            "name": "DATA_PROVIDER_ID",
            "outputs": [
                {
                    "internalType": "bytes32",
                    "name": "",
                    "type": "bytes32"
                }
            ],
            "stateMutability": "view",
            "type": "function"
        },
        {
            "inputs": [],
            "name": "NO_PARAM_MAPPING",
            "outputs": [
                {
                    "internalType": "uint8",
                    "name": "",
                    "type": "uint8"
                }
            ],
            "stateMutability": "view",
            "type": "function"
        },
        {
            "inputs": [],
            "name": "RADIANT_REFERRAL_CODE",
            "outputs": [
                {
                    "internalType": "uint16",
                    "name": "",
                    "type": "uint16"
                }
            ],
            "stateMutability": "view",
            "type": "function"
        },
        {
            "inputs": [],
            "name": "RETURN_MAX_INDEX_VALUE",
            "outputs": [
                {
                    "internalType": "uint8",
                    "name": "",
                    "type": "uint8"
                }
            ],
            "stateMutability": "view",
            "type": "function"
        },
        {
            "inputs": [],
            "name": "RETURN_MIN_INDEX_VALUE",
            "outputs": [
                {
                    "internalType": "uint8",
                    "name": "",
                    "type": "uint8"
                }
            ],
            "stateMutability": "view",
            "type": "function"
        },
        {
            "inputs": [],
            "name": "SUB_MAX_INDEX_VALUE",
            "outputs": [
                {
                    "internalType": "uint8",
                    "name": "",
                    "type": "uint8"
                }
            ],
            "stateMutability": "view",
            "type": "function"
        },
        {
            "inputs": [],
            "name": "SUB_MIN_INDEX_VALUE",
            "outputs": [
                {
                    "internalType": "uint8",
                    "name": "",
                    "type": "uint8"
                }
            ],
            "stateMutability": "view",
            "type": "function"
        },
        {
            "inputs": [],
            "name": "actionType",
            "outputs": [
                {
                    "internalType": "uint8",
                    "name": "",
                    "type": "uint8"
                }
            ],
            "stateMutability": "pure",
            "type": "function"
        },
        {
            "inputs": [],
            "name": "adminVault",
            "outputs": [
                {
                    "internalType": "contract AdminVault",
                    "name": "",
                    "type": "address"
                }
            ],
            "stateMutability": "view",
            "type": "function"
        },
        {
            "inputs": [
                {
                    "internalType": "address",
                    "name": "_market",
                    "type": "address"
                },
                {
                    "internalType": "address",
                    "name": "_tokenAddr",
                    "type": "address"
                },
                {
                    "internalType": "bool",
                    "name": "_useAsCollateral",
                    "type": "bool"
                }
            ],
            "name": "enableAsCollateral",
            "outputs": [],
            "stateMutability": "nonpayable",
            "type": "function"
        },
        {
            "inputs": [
                {
                    "internalType": "bytes",
                    "name": "_callData",
                    "type": "bytes"
                },
                {
                    "internalType": "bytes32[]",
                    "name": "_subData",
                    "type": "bytes32[]"
                },
                {
                    "internalType": "uint8[]",
                    "name": "_paramMapping",
                    "type": "uint8[]"
                },
                {
                    "internalType": "bytes32[]",
                    "name": "_returnValues",
                    "type": "bytes32[]"
                }
            ],
            "name": "executeAction",
            "outputs": [
                {
                    "internalType": "bytes32",
                    "name": "",
                    "type": "bytes32"
                }
            ],
            "stateMutability": "payable",
            "type": "function"
        },
        {
            "inputs": [
                {
                    "internalType": "bytes",
                    "name": "_callData",
                    "type": "bytes"
                }
            ],
            "name": "executeActionDirect",
            "outputs": [],
            "stateMutability": "payable",
            "type": "function"
        },
        {
            "inputs": [],
            "name": "kill",
            "outputs": [],
            "stateMutability": "nonpayable",
            "type": "function"
        },
        {
            "inputs": [],
            "name": "logger",
            "outputs": [
                {
                    "internalType": "contract DefisaverLogger",
                    "name": "",
                    "type": "address"
                }
            ],
            "stateMutability": "view",
            "type": "function"
        },
        {
            "inputs": [
                {
                    "internalType": "bytes",
                    "name": "_callData",
                    "type": "bytes"
                }
            ],
            "name": "parseInputs",
            "outputs": [
                {
                    "components": [
                        {
                            "internalType": "address",
                            "name": "market",
                            "type": "address"
                        },
                        {
                            "internalType": "address",
                            "name": "tokenAddr",
                            "type": "address"
                        },
                        {
                            "internalType": "uint256",
                            "name": "amount",
                            "type": "uint256"
                        },
                        {
                            "internalType": "uint256",
                            "name": "rateMode",
                            "type": "uint256"
                        },
                        {
                            "internalType": "address",
                            "name": "from",
                            "type": "address"
                        },
                        {
                            "internalType": "address",
                            "name": "onBehalf",
                            "type": "address"
                        }
                    ],
                    "internalType": "struct RadiantPayback.Params",
                    "name": "params",
                    "type": "tuple"
                }
            ],
            "stateMutability": "pure",
            "type": "function"
        },
        {
            "inputs": [],
            "name": "registry",
            "outputs": [
                {
                    "internalType": "contract DFSRegistry",
                    "name": "",
                    "type": "address"
                }
            ],
            "stateMutability": "view",
            "type": "function"
        },
        {
            "inputs": [
                {
                    "internalType": "address",
                    "name": "_token",
                    "type": "address"
                },
                {
                    "internalType": "address",
                    "name": "_receiver",
                    "type": "address"
                },
                {
                    "internalType": "uint256",
                    "name": "_amount",
                    "type": "uint256"
                }
            ],
            "name": "withdrawStuckFunds",
            "outputs": [],
            "stateMutability": "nonpayable",
            "type": "function"
        }
    ],
    "bytecode": "608060405234801561001057600080fd5b50611ed2806100206000396000f3fe6080604052600436106100fe5760003560e01c80638df50f7411610095578063c579d49011610064578063c579d490146102d4578063d3c2e7ed146102f4578063daa6059914610309578063f1cb308814610321578063f24ccbfe1461034157600080fd5b80638df50f74146101ff5780639093410d146102205780639864dcdd14610297578063bbd8c72e146102ac57600080fd5b806341c0e1b5116100d157806341c0e1b51461016d5780637b103999146101825780638bcb6216146101c25780638cedca71146101d757600080fd5b80630f2eee4214610103578063247492f81461012f5780632fa13cb814610143578063389f87ff14610158575b600080fd5b34801561010f57600080fd5b50610118608081565b60405160ff90911681526020015b60405180910390f35b34801561013b57600080fd5b506001610118565b34801561014f57600080fd5b50610118600081565b61016b610166366004611a3b565b610369565b005b34801561017957600080fd5b5061016b610410565b34801561018e57600080fd5b506101aa73147f157cb4e328e9c0db68dba5305fb7c29e732881565b6040516001600160a01b039091168152602001610126565b3480156101ce57600080fd5b50610118600181565b3480156101e357600080fd5b506101aa73f30f1fdcc52e1774cbc84c57e11a538d6b1404aa81565b61021261020d366004611a6e565b6104c9565b604051908152602001610126565b34801561022c57600080fd5b5061024061023b366004611a3b565b6106d7565b604051610126919081516001600160a01b039081168252602080840151821690830152604080840151908301526060808401519083015260808084015182169083015260a092830151169181019190915260c00190565b3480156102a357600080fd5b50610118607f81565b3480156102b857600080fd5b506102c1604081565b60405161ffff9091168152602001610126565b3480156102e057600080fd5b5061016b6102ef3660046119df565b610721565b34801561030057600080fd5b5061011860ff81565b34801561031557600080fd5b50610212600160f81b81565b34801561032d57600080fd5b5061016b61033c366004611995565b610851565b34801561034d57600080fd5b506101aa7337cfac15ede74f29fe164c460974bd61cc799eff81565b6000610374826106d7565b9050600061039e826000015183602001518460400151856060015186608001518760a00151610931565b60405163f4b24b5560e01b81529092507337cfac15ede74f29fe164c460974bd61cc799eff915063f4b24b55906103d9908490600401611d5a565b600060405180830381600087803b1580156103f357600080fd5b505af1158015610407573d6000803e3d6000fd5b50505050505050565b336001600160a01b031673f30f1fdcc52e1774cbc84c57e11a538d6b1404aa6001600160a01b031663f851a4406040518163ffffffff1660e01b815260040160206040518083038186803b15801561046757600080fd5b505afa15801561047b573d6000803e3d6000fd5b505050506040513d601f19601f8201168201806040525081019061049f9190611979565b6001600160a01b0316146104c65760405163a6c827a960e01b815260040160405180910390fd5b33ff5b6000806104d5866106d7565b905061050f81600001518560008151811061050057634e487b7160e01b600052603260045260246000fd5b60200260200101518786610bd7565b6001600160a01b031681526020810151845161054791908690600190811061050057634e487b7160e01b600052603260045260246000fd5b6001600160a01b031660208201526040810151845161059191908690600290811061058257634e487b7160e01b600052603260045260246000fd5b60200260200101518786610d06565b8160400181815250506105c381606001518560038151811061058257634e487b7160e01b600052603260045260246000fd5b8160600181815250506105f581608001518560048151811061050057634e487b7160e01b600052603260045260246000fd5b6001600160a01b0316608082015260a0810151845161063091908690600590811061050057634e487b7160e01b600052603260045260246000fd5b6001600160a01b031660a0820181905281516020830151604084015160608501516080860151600095869561066c959094909390929091610931565b6040516d52616469616e745061796261636b60901b81529193509150600e0160405180910390207f2b6d22f419271bcc89bbac8deec947c664365d6e24d06fef0ca7c325c704dce3826040516106c29190611cfb565b60405180910390a2509150505b949350505050565b6040805160c08101825260008082526020808301829052928201819052606082018190526080820181905260a08201528251909161071b9184018101908401611b7b565b92915050565b336001600160a01b031673f30f1fdcc52e1774cbc84c57e11a538d6b1404aa6001600160a01b0316638da5cb5b6040518163ffffffff1660e01b815260040160206040518083038186803b15801561077857600080fd5b505afa15801561078c573d6000803e3d6000fd5b505050506040513d601f19601f820116820180604052508101906107b09190611979565b6001600160a01b0316146107d757604051630ca4a64560e11b815260040160405180910390fd5b73eeeeeeeeeeeeeeeeeeeeeeeeeeeeeeeeeeeeeeee6001600160a01b0384161415610838576040516001600160a01b0383169082156108fc029083906000818181858888f19350505050158015610832573d6000803e3d6000fd5b50505050565b61084c6001600160a01b0384168383610d5c565b505050565b6000836001600160a01b0316630261bf8b6040518163ffffffff1660e01b815260040160206040518083038186803b15801561088c57600080fd5b505afa1580156108a0573d6000803e3d6000fd5b505050506040513d601f19601f820116820180604052508101906108c49190611979565b604051635a3b74b960e01b81526001600160a01b038581166004830152841515602483015291925090821690635a3b74b990604401600060405180830381600087803b15801561091357600080fd5b505af1158015610927573d6000803e3d6000fd5b5050505050505050565b600060606001600160a01b038316610947573092505b6040805180820190915260098152684d61726b657420257360b81b602082015288906109739082610dae565b61099d60405180604001604052806008815260200167546f6b656e20257360c01b81525089610dae565b6109c860405180604001604052806009815260200168416d6f756e7420257360b81b81525088610df7565b6109f56040518060400160405280600b81526020016a526174656d6f646520257360a81b81525087610df7565b610a1e6040518060400160405280600781526020016666726f6d20257360c81b81525086610dae565b610a4c6040518060400160405280600c81526020016b5f6f6e626568616c6620257360a01b81525085610dae565b6000610a5a8a8a8988610e3c565b9050808811610a695787610a6b565b805b9750610a816001600160a01b038a16878a610f17565b50610a966001600160a01b038a16838a610fa6565b6000610aab6001600160a01b038b163061106c565b60405163573ade8160e01b81526001600160a01b038c81166004830152602482018c9052604482018b905288811660648301529192509084169063573ade8190608401602060405180830381600087803b158015610b0857600080fd5b505af1158015610b1c573d6000803e3d6000fd5b505050506040513d601f19601f82011682018060405250810190610b409190611c15565b506000610b566001600160a01b038c163061106c565b9050610b6c6001600160a01b038c168983611124565b50604080516001600160a01b038e811660208301528d811682840152606082018d9052608082018c90528a811660a0830152891660c0808301919091528251808303909101815260e0909101909152610bc58284611de7565b9d909c509a5050505050505050505050565b600060ff841615610cfd57610beb8461124c565b15610c2d5781610bfa8561126b565b60ff1681518110610c1b57634e487b7160e01b600052603260045260246000fd5b602002602001015160601c9450610cfd565b8360ff1660fe1415610c405750306106cf565b8360ff1660ff1415610cc457306001600160a01b0316638da5cb5b6040518163ffffffff1660e01b815260040160206040518083038186803b158015610c8557600080fd5b505afa158015610c99573d6000803e3d6000fd5b505050506040513d601f19601f82011682018060405250810190610cbd9190611979565b90506106cf565b82610cce8561129e565b60ff1681518110610cef57634e487b7160e01b600052603260045260246000fd5b602002602001015160001c94505b50929392505050565b600060ff841615610cfd57610d1a8461124c565b15610cc45781610d298561126b565b60ff1681518110610d4a57634e487b7160e01b600052603260045260246000fd5b602002602001015160001c9450610cfd565b604080516001600160a01b038416602482015260448082018490528251808303909101815260649091019091526020810180516001600160e01b031663a9059cbb60e01b17905261084c9084906112d0565b610df38282604051602401610dc4929190611d0e565b60408051601f198184030181529190526020810180516001600160e01b031663319af33360e01b1790526113a2565b5050565b610df38282604051602401610e0d929190611d38565b60408051601f198184030181529190526020810180516001600160e01b0316632d839cb360e21b1790526113a2565b60006001600282610e4c886113ae565b6040516328dd2d0160e01b81526001600160a01b03898116600483015287811660248301529192506000918291908416906328dd2d01906044016101206040518083038186803b158015610e9f57600080fd5b505afa158015610eb3573d6000803e3d6000fd5b505050506040513d601f19601f82011682018060405250810190610ed79190611c2d565b505050505050925092505084881415610ef6575093506106cf92505050565b83881415610f0a5794506106cf9350505050565b5050505050949350505050565b6000600019821415610f3057610f2d848461106c565b91505b6001600160a01b03831615801590610f5157506001600160a01b0383163014155b8015610f7a57506001600160a01b03841673eeeeeeeeeeeeeeeeeeeeeeeeeeeeeeeeeeeeeeee14155b8015610f8557508115155b15610f9f57610f9f6001600160a01b03851684308561142c565b5092915050565b6001600160a01b03831673eeeeeeeeeeeeeeeeeeeeeeeeeeeeeeeeeeeeeeee1415610fd057505050565b604051636eb1769f60e11b81523060048201526001600160a01b03838116602483015282919085169063dd62ed3e9060440160206040518083038186803b15801561101a57600080fd5b505afa15801561102e573d6000803e3d6000fd5b505050506040513d601f19601f820116820180604052508101906110529190611c15565b101561084c5761084c6001600160a01b0384168383611497565b60006001600160a01b03831673eeeeeeeeeeeeeeeeeeeeeeeeeeeeeeeeeeeeeeee14156110a457506001600160a01b0381163161071b565b6040516370a0823160e01b81526001600160a01b0383811660048301528416906370a082319060240160206040518083038186803b1580156110e557600080fd5b505afa1580156110f9573d6000803e3d6000fd5b505050506040513d601f19601f8201168201806040525081019061111d9190611c15565b9392505050565b600060001982141561113d5761113a843061106c565b91505b6001600160a01b0383161580159061115e57506001600160a01b0383163014155b801561116957508115155b15610f9f576001600160a01b03841673eeeeeeeeeeeeeeeeeeeeeeeeeeeeeeeeeeeeeeee146111ab576111a66001600160a01b03851684846115bb565b610f9f565b6000836001600160a01b03168360405160006040518083038185875af1925050503d80600081146111f8576040519150601f19603f3d011682016040523d82523d6000602084013e6111fd565b606091505b50509050806112435760405162461bcd60e51b815260206004820152600d60248201526c115d1a081cd95b990819985a5b609a1b60448201526064015b60405180910390fd5b50909392505050565b6000600160ff83161080159061071b5750607f60ff8316111592915050565b60006112768261124c565b6112935760405163dcc95a3960e01b815260040160405180910390fd5b61071b600183611dfe565b6000608060ff831610156112c55760405163866f6e8760e01b815260040160405180910390fd5b61071b608083611dfe565b6000611325826040518060400160405280602081526020017f5361666545524332303a206c6f772d6c6576656c2063616c6c206661696c6564815250856001600160a01b03166115eb9092919063ffffffff16565b80519091501561084c57808060200190518101906113439190611a1f565b61084c5760405162461bcd60e51b815260206004820152602a60248201527f5361666545524332303a204552433230206f7065726174696f6e20646964206e6044820152691bdd081cdd58d8d9595960b21b606482015260840161123a565b6113ab816115fa565b50565b6040516321f8a72160e01b8152600160f81b60048201526000906001600160a01b038316906321f8a7219060240160206040518083038186803b1580156113f457600080fd5b505afa158015611408573d6000803e3d6000fd5b505050506040513d601f19601f8201168201806040525081019061071b9190611979565b6040516001600160a01b03808516602483015283166044820152606481018290526108329085906323b872dd60e01b906084015b60408051601f198184030181529190526020810180516001600160e01b03166001600160e01b03199093169290921790915261161b565b8015806115205750604051636eb1769f60e11b81523060048201526001600160a01b03838116602483015284169063dd62ed3e9060440160206040518083038186803b1580156114e657600080fd5b505afa1580156114fa573d6000803e3d6000fd5b505050506040513d601f19601f8201168201806040525081019061151e9190611c15565b155b61158b5760405162461bcd60e51b815260206004820152603660248201527f5361666542455032303a20617070726f76652066726f6d206e6f6e2d7a65726f60448201527520746f206e6f6e2d7a65726f20616c6c6f77616e636560501b606482015260840161123a565b6040516001600160a01b03831660248201526044810182905261084c90849063095ea7b360e01b90606401611460565b6040516001600160a01b03831660248201526044810182905261084c90849063a9059cbb60e01b90606401611460565b60606106cf84846000856117a2565b60006a636f6e736f6c652e6c6f679050600080835160208501845afa505050565b61162d826001600160a01b0316611866565b6116795760405162461bcd60e51b815260206004820152601f60248201527f5361666542455032303a2063616c6c20746f206e6f6e2d636f6e747261637400604482015260640161123a565b600080836001600160a01b0316836040516116949190611cdf565b6000604051808303816000865af19150503d80600081146116d1576040519150601f19603f3d011682016040523d82523d6000602084013e6116d6565b606091505b5091509150816117285760405162461bcd60e51b815260206004820181905260248201527f5361666542455032303a206c6f772d6c6576656c2063616c6c206661696c6564604482015260640161123a565b80511561083257808060200190518101906117439190611a1f565b6108325760405162461bcd60e51b815260206004820152602a60248201527f5361666542455032303a204245503230206f7065726174696f6e20646964206e6044820152691bdd081cdd58d8d9595960b21b606482015260840161123a565b60606117ad85611866565b6117ca5760405163304619b560e01b815260040160405180910390fd5b600080866001600160a01b031685876040516117e69190611cdf565b60006040518083038185875af1925050503d8060008114611823576040519150601f19603f3d011682016040523d82523d6000602084013e611828565b606091505b5091509150811561183c5791506106cf9050565b80511561184c5780518082602001fd5b8360405162461bcd60e51b815260040161123a9190611cfb565b6000813f7fc5d2460186f7233c927e7db2dcc703c0e500b653ca82273b7bfad8045d85a4708181148015906106cf575050151592915050565b600082601f8301126118af578081fd5b813560206118c46118bf83611dc3565b611d92565b80838252828201915082860187848660051b89010111156118e3578586fd5b855b85811015611901578135845292840192908401906001016118e5565b5090979650505050505050565b600082601f83011261191e578081fd5b813567ffffffffffffffff81111561193857611938611e63565b61194b601f8201601f1916602001611d92565b81815284602083860101111561195f578283fd5b816020850160208301379081016020019190915292915050565b60006020828403121561198a578081fd5b815161111d81611e79565b6000806000606084860312156119a9578182fd5b83356119b481611e79565b925060208401356119c481611e79565b915060408401356119d481611e8e565b809150509250925092565b6000806000606084860312156119f3578283fd5b83356119fe81611e79565b92506020840135611a0e81611e79565b929592945050506040919091013590565b600060208284031215611a30578081fd5b815161111d81611e8e565b600060208284031215611a4c578081fd5b813567ffffffffffffffff811115611a62578182fd5b6106cf8482850161190e565b60008060008060808587031215611a83578081fd5b843567ffffffffffffffff80821115611a9a578283fd5b611aa68883890161190e565b9550602091508187013581811115611abc578384fd5b611ac889828a0161189f565b955050604087013581811115611adc578384fd5b8701601f81018913611aec578384fd5b8035611afa6118bf82611dc3565b8082825285820191508584018c878560051b8701011115611b19578788fd5b8794505b83851015611b4957803560ff81168114611b35578889fd5b835260019490940193918601918601611b1d565b5096505050506060870135915080821115611b62578283fd5b50611b6f8782880161189f565b91505092959194509250565b600060c08284031215611b8c578081fd5b60405160c0810181811067ffffffffffffffff82111715611baf57611baf611e63565b6040528251611bbd81611e79565b81526020830151611bcd81611e79565b8060208301525060408301516040820152606083015160608201526080830151611bf681611e79565b608082015260a0830151611c0981611e79565b60a08201529392505050565b600060208284031215611c26578081fd5b5051919050565b60008060008060008060008060006101208a8c031215611c4b578687fd5b8951985060208a0151975060408a0151965060608a0151955060808a0151945060a08a0151935060c08a0151925060e08a015164ffffffffff81168114611c90578283fd5b6101008b0151909250611ca281611e8e565b809150509295985092959850929598565b60008151808452611ccb816020860160208601611e21565b601f01601f19169290920160200192915050565b60008251611cf1818460208701611e21565b9190910192915050565b60208152600061111d6020830184611cb3565b604081526000611d216040830185611cb3565b905060018060a01b03831660208301529392505050565b604081526000611d4b6040830185611cb3565b90508260208301529392505050565b60408152600e60408201526d52616469616e745061796261636b60901b606082015260806020820152600061111d6080830184611cb3565b604051601f8201601f1916810167ffffffffffffffff81118282101715611dbb57611dbb611e63565b604052919050565b600067ffffffffffffffff821115611ddd57611ddd611e63565b5060051b60200190565b600082821015611df957611df9611e4d565b500390565b600060ff821660ff841680821015611e1857611e18611e4d565b90039392505050565b60005b83811015611e3c578181015183820152602001611e24565b838111156108325750506000910152565b634e487b7160e01b600052601160045260246000fd5b634e487b7160e01b600052604160045260246000fd5b6001600160a01b03811681146113ab57600080fd5b80151581146113ab57600080fdfea2646970667358221220b8fd6556d3b86119f10f9c9293129aa64f05f079ed26f61e6826c378bac1dd1a64736f6c63430008040033",
    "sourcePath": "e:/trava-saver-main-core/trava-station-core/contracts/actions/radiant/RadiantPayback.sol",
    "compiler": {
        "name": "solc",
        "version": "0.8.4+commit.c7e474f2"
    },
    "functionHashes": {
        "DATA_PROVIDER_ID()": "daa60599",
        "NO_PARAM_MAPPING()": "2fa13cb8",
        "RADIANT_REFERRAL_CODE()": "bbd8c72e",
        "RETURN_MAX_INDEX_VALUE()": "9864dcdd",
        "RETURN_MIN_INDEX_VALUE()": "8bcb6216",
        "SUB_MAX_INDEX_VALUE()": "d3c2e7ed",
        "SUB_MIN_INDEX_VALUE()": "0f2eee42",
        "actionType()": "247492f8",
        "adminVault()": "8cedca71",
        "enableAsCollateral(address,address,bool)": "f1cb3088",
        "executeAction(bytes,bytes32[],uint8[],bytes32[])": "8df50f74",
        "executeActionDirect(bytes)": "389f87ff",
        "kill()": "41c0e1b5",
        "logger()": "f24ccbfe",
        "parseInputs(bytes)": "9093410d",
        "registry()": "7b103999",
        "withdrawStuckFunds(address,address,uint256)": "c579d490"
    },
    "gasEstimates": {
        "creation": {
            "codeDepositCost": "1578000",
            "executionCost": "1652",
            "totalCost": "1579652"
        },
        "external": {
            "DATA_PROVIDER_ID()": "267",
            "NO_PARAM_MAPPING()": "261",
            "RADIANT_REFERRAL_CODE()": "293",
            "RETURN_MAX_INDEX_VALUE()": "260",
            "RETURN_MIN_INDEX_VALUE()": "260",
            "SUB_MAX_INDEX_VALUE()": "237",
            "SUB_MIN_INDEX_VALUE()": "217",
            "actionType()": "236",
            "adminVault()": "305",
            "enableAsCollateral(address,address,bool)": "infinite",
            "executeAction(bytes,bytes32[],uint8[],bytes32[])": "infinite",
            "executeActionDirect(bytes)": "infinite",
            "kill()": "infinite",
            "logger()": "326",
            "parseInputs(bytes)": "infinite",
            "registry()": "261",
            "withdrawStuckFunds(address,address,uint256)": "infinite"
        },
        "internal": {
            "_payback(address,address,uint256,uint256,address,address)": "infinite"
        }
    }
}