{
    "contractName": "RadiantSupply",
    "abi": [
        {
            "inputs": [],
            "name": "NonContractCall",
            "type": "error"
        },
        {
            "inputs": [],
            "name": "ReturnIndexValueError",
            "type": "error"
        },
        {
            "inputs": [],
            "name": "SenderNotAdmin",
            "type": "error"
        },
        {
            "inputs": [],
            "name": "SenderNotOwner",
            "type": "error"
        },
        {
            "inputs": [],
            "name": "SubIndexValueError",
            "type": "error"
        },
        {
            "anonymous": false,
            "inputs": [
                {
                    "indexed": true,
                    "internalType": "string",
                    "name": "logName",
                    "type": "string"
                },
                {
                    "indexed": false,
                    "internalType": "bytes",
                    "name": "data",
                    "type": "bytes"
                }
            ],
            "name": "ActionEvent",
            "type": "event"
        },
        {
            "inputs": [],
            "name": "DATA_PROVIDER_ID",
            "outputs": [
                {
                    "internalType": "bytes32",
                    "name": "",
                    "type": "bytes32"
                }
            ],
            "stateMutability": "view",
            "type": "function"
        },
        {
            "inputs": [],
            "name": "NO_PARAM_MAPPING",
            "outputs": [
                {
                    "internalType": "uint8",
                    "name": "",
                    "type": "uint8"
                }
            ],
            "stateMutability": "view",
            "type": "function"
        },
        {
            "inputs": [],
            "name": "RADIANT_REFERRAL_CODE",
            "outputs": [
                {
                    "internalType": "uint16",
                    "name": "",
                    "type": "uint16"
                }
            ],
            "stateMutability": "view",
            "type": "function"
        },
        {
            "inputs": [],
            "name": "RETURN_MAX_INDEX_VALUE",
            "outputs": [
                {
                    "internalType": "uint8",
                    "name": "",
                    "type": "uint8"
                }
            ],
            "stateMutability": "view",
            "type": "function"
        },
        {
            "inputs": [],
            "name": "RETURN_MIN_INDEX_VALUE",
            "outputs": [
                {
                    "internalType": "uint8",
                    "name": "",
                    "type": "uint8"
                }
            ],
            "stateMutability": "view",
            "type": "function"
        },
        {
            "inputs": [],
            "name": "SUB_MAX_INDEX_VALUE",
            "outputs": [
                {
                    "internalType": "uint8",
                    "name": "",
                    "type": "uint8"
                }
            ],
            "stateMutability": "view",
            "type": "function"
        },
        {
            "inputs": [],
            "name": "SUB_MIN_INDEX_VALUE",
            "outputs": [
                {
                    "internalType": "uint8",
                    "name": "",
                    "type": "uint8"
                }
            ],
            "stateMutability": "view",
            "type": "function"
        },
        {
            "inputs": [],
            "name": "actionType",
            "outputs": [
                {
                    "internalType": "uint8",
                    "name": "",
                    "type": "uint8"
                }
            ],
            "stateMutability": "pure",
            "type": "function"
        },
        {
            "inputs": [],
            "name": "adminVault",
            "outputs": [
                {
                    "internalType": "contract AdminVault",
                    "name": "",
                    "type": "address"
                }
            ],
            "stateMutability": "view",
            "type": "function"
        },
        {
            "inputs": [
                {
                    "internalType": "address",
                    "name": "_market",
                    "type": "address"
                },
                {
                    "internalType": "address",
                    "name": "_tokenAddr",
                    "type": "address"
                },
                {
                    "internalType": "bool",
                    "name": "_useAsCollateral",
                    "type": "bool"
                }
            ],
            "name": "enableAsCollateral",
            "outputs": [],
            "stateMutability": "nonpayable",
            "type": "function"
        },
        {
            "inputs": [
                {
                    "internalType": "bytes",
                    "name": "_callData",
                    "type": "bytes"
                },
                {
                    "internalType": "bytes32[]",
                    "name": "_subData",
                    "type": "bytes32[]"
                },
                {
                    "internalType": "uint8[]",
                    "name": "_paramMapping",
                    "type": "uint8[]"
                },
                {
                    "internalType": "bytes32[]",
                    "name": "_returnValues",
                    "type": "bytes32[]"
                }
            ],
            "name": "executeAction",
            "outputs": [
                {
                    "internalType": "bytes32",
                    "name": "",
                    "type": "bytes32"
                }
            ],
            "stateMutability": "payable",
            "type": "function"
        },
        {
            "inputs": [
                {
                    "internalType": "bytes",
                    "name": "_callData",
                    "type": "bytes"
                }
            ],
            "name": "executeActionDirect",
            "outputs": [],
            "stateMutability": "payable",
            "type": "function"
        },
        {
            "inputs": [],
            "name": "kill",
            "outputs": [],
            "stateMutability": "nonpayable",
            "type": "function"
        },
        {
            "inputs": [],
            "name": "logger",
            "outputs": [
                {
                    "internalType": "contract DefisaverLogger",
                    "name": "",
                    "type": "address"
                }
            ],
            "stateMutability": "view",
            "type": "function"
        },
        {
            "inputs": [
                {
                    "internalType": "bytes",
                    "name": "_callData",
                    "type": "bytes"
                }
            ],
            "name": "parseInputs",
            "outputs": [
                {
                    "components": [
                        {
                            "internalType": "address",
                            "name": "market",
                            "type": "address"
                        },
                        {
                            "internalType": "address",
                            "name": "tokenAddr",
                            "type": "address"
                        },
                        {
                            "internalType": "uint256",
                            "name": "amount",
                            "type": "uint256"
                        },
                        {
                            "internalType": "address",
                            "name": "from",
                            "type": "address"
                        },
                        {
                            "internalType": "address",
                            "name": "onBehalf",
                            "type": "address"
                        },
                        {
                            "internalType": "bool",
                            "name": "enableAsColl",
                            "type": "bool"
                        }
                    ],
                    "internalType": "struct RadiantSupply.Params",
                    "name": "params",
                    "type": "tuple"
                }
            ],
            "stateMutability": "pure",
            "type": "function"
        },
        {
            "inputs": [],
            "name": "registry",
            "outputs": [
                {
                    "internalType": "contract DFSRegistry",
                    "name": "",
                    "type": "address"
                }
            ],
            "stateMutability": "view",
            "type": "function"
        },
        {
            "inputs": [
                {
                    "internalType": "address",
                    "name": "_market",
                    "type": "address"
                },
                {
                    "internalType": "address",
                    "name": "_tokenAddr",
                    "type": "address"
                },
                {
                    "internalType": "uint256",
                    "name": "_rateMode",
                    "type": "uint256"
                }
            ],
            "name": "switchRateMode",
            "outputs": [],
            "stateMutability": "nonpayable",
            "type": "function"
        },
        {
            "inputs": [
                {
                    "internalType": "address",
                    "name": "_token",
                    "type": "address"
                },
                {
                    "internalType": "address",
                    "name": "_receiver",
                    "type": "address"
                },
                {
                    "internalType": "uint256",
                    "name": "_amount",
                    "type": "uint256"
                }
            ],
            "name": "withdrawStuckFunds",
            "outputs": [],
            "stateMutability": "nonpayable",
            "type": "function"
        }
    ],
    "bytecode": "608060405234801561001057600080fd5b50611a82806100206000396000f3fe6080604052600436106101095760003560e01c80639093410d11610095578063c579d49011610064578063c579d49014610303578063d3c2e7ed14610323578063daa6059914610338578063f1cb308814610350578063f24ccbfe1461037057600080fd5b80639093410d1461022b5780639864dcdd146102a6578063b38ea016146102bb578063bbd8c72e146102db57600080fd5b806341c0e1b5116100dc57806341c0e1b5146101785780637b1039991461018d5780638bcb6216146101cd5780638cedca71146101e25780638df50f741461020a57600080fd5b80630f2eee421461010e578063247492f81461013a5780632fa13cb81461014e578063389f87ff14610163575b600080fd5b34801561011a57600080fd5b50610123608081565b60405160ff90911681526020015b60405180910390f35b34801561014657600080fd5b506001610123565b34801561015a57600080fd5b50610123600081565b6101766101713660046116d5565b610398565b005b34801561018457600080fd5b5061017661043f565b34801561019957600080fd5b506101b573147f157cb4e328e9c0db68dba5305fb7c29e732881565b6040516001600160a01b039091168152602001610131565b3480156101d957600080fd5b50610123600181565b3480156101ee57600080fd5b506101b573f30f1fdcc52e1774cbc84c57e11a538d6b1404aa81565b61021d610218366004611708565b6104f8565b604051908152602001610131565b34801561023757600080fd5b5061024b6102463660046116d5565b610716565b604051610131919081516001600160a01b039081168252602080840151821690830152604080840151908301526060808401518216908301526080808401519091169082015260a09182015115159181019190915260c00190565b3480156102b257600080fd5b50610123607f81565b3480156102c757600080fd5b506101766102d6366004611679565b610760565b3480156102e757600080fd5b506102f0604081565b60405161ffff9091168152602001610131565b34801561030f57600080fd5b5061017661031e366004611679565b610840565b34801561032f57600080fd5b5061012360ff81565b34801561034457600080fd5b5061021d600160f81b81565b34801561035c57600080fd5b5061017661036b36600461162f565b610970565b34801561037c57600080fd5b506101b57337cfac15ede74f29fe164c460974bd61cc799eff81565b60006103a382610716565b905060006103cd826000015183602001518460400151856060015186608001518760a00151610a1d565b60405163f4b24b5560e01b81529092507337cfac15ede74f29fe164c460974bd61cc799eff915063f4b24b5590610408908490600401611929565b600060405180830381600087803b15801561042257600080fd5b505af1158015610436573d6000803e3d6000fd5b50505050505050565b336001600160a01b031673f30f1fdcc52e1774cbc84c57e11a538d6b1404aa6001600160a01b031663f851a4406040518163ffffffff1660e01b815260040160206040518083038186803b15801561049657600080fd5b505afa1580156104aa573d6000803e3d6000fd5b505050506040513d601f19601f820116820180604052508101906104ce9190611613565b6001600160a01b0316146104f55760405163a6c827a960e01b815260040160405180910390fd5b33ff5b60008061050486610716565b905061053e81600001518560008151811061052f57634e487b7160e01b600052603260045260246000fd5b60200260200101518786610b65565b6001600160a01b031681526020810151845161057691908690600190811061052f57634e487b7160e01b600052603260045260246000fd5b6001600160a01b03166020820152604081015184516105c09190869060029081106105b157634e487b7160e01b600052603260045260246000fd5b60200260200101518786610c94565b8160400181815250506105f281606001518560038151811061052f57634e487b7160e01b600052603260045260246000fd5b6001600160a01b031660608201526080810151845161062d91908690600490811061052f57634e487b7160e01b600052603260045260246000fd5b6001600160a01b0316608082015260a08101516106769061064f576000610652565b60015b60ff16856005815181106105b157634e487b7160e01b600052603260045260246000fd5b60011460a082018190528151602083015160408401516060850151608086015160009586956106ac959094909390929091610a1d565b6040516c52616469616e74537570706c7960981b81529193509150600d0160405180910390207f2b6d22f419271bcc89bbac8deec947c664365d6e24d06fef0ca7c325c704dce3826040516107019190611916565b60405180910390a2509150505b949350505050565b6040805160c08101825260008082526020808301829052928201819052606082018190526080820181905260a08201528251909161075a9184018101908401611815565b92915050565b6000836001600160a01b0316630261bf8b6040518163ffffffff1660e01b815260040160206040518083038186803b15801561079b57600080fd5b505afa1580156107af573d6000803e3d6000fd5b505050506040513d601f19601f820116820180604052508101906107d39190611613565b604051634a5d44d160e11b81526001600160a01b03858116600483015260248201859052919250908216906394ba89a2906044015b600060405180830381600087803b15801561082257600080fd5b505af1158015610836573d6000803e3d6000fd5b5050505050505050565b336001600160a01b031673f30f1fdcc52e1774cbc84c57e11a538d6b1404aa6001600160a01b0316638da5cb5b6040518163ffffffff1660e01b815260040160206040518083038186803b15801561089757600080fd5b505afa1580156108ab573d6000803e3d6000fd5b505050506040513d601f19601f820116820180604052508101906108cf9190611613565b6001600160a01b0316146108f657604051630ca4a64560e11b815260040160405180910390fd5b73eeeeeeeeeeeeeeeeeeeeeeeeeeeeeeeeeeeeeeee6001600160a01b0384161415610957576040516001600160a01b0383169082156108fc029083906000818181858888f19350505050158015610951573d6000803e3d6000fd5b50505050565b61096b6001600160a01b0384168383610cea565b505050565b6000836001600160a01b0316630261bf8b6040518163ffffffff1660e01b815260040160206040518083038186803b1580156109ab57600080fd5b505afa1580156109bf573d6000803e3d6000fd5b505050506040513d601f19601f820116820180604052508101906109e39190611613565b604051635a3b74b960e01b81526001600160a01b038581166004830152841515602483015291925090821690635a3b74b990604401610808565b600060606000610a2c89610d3c565b9050600019871415610a4e57610a4b6001600160a01b03891687610daf565b96505b6001600160a01b038516610a60573094505b610a746001600160a01b0389168789610e67565b50610a896001600160a01b0389168289610ef6565b6040805163e8eda9df60e01b81526001600160a01b038a81166004830152602482018a9052878116604483015260648201929092529082169063e8eda9df90608401600060405180830381600087803b158015610ae557600080fd5b505af1158015610af9573d6000803e3d6000fd5b505050508315610b0f57610b0f89896001610970565b5050604080516001600160a01b0398891660208201529688168782015260608701869052938716608087015250941660a084015292151560c0808401919091528351808403909101815260e09092019092529091565b600060ff841615610c8b57610b7984610fbc565b15610bbb5781610b8885610fdb565b60ff1681518110610ba957634e487b7160e01b600052603260045260246000fd5b602002602001015160601c9450610c8b565b8360ff1660fe1415610bce57503061070e565b8360ff1660ff1415610c5257306001600160a01b0316638da5cb5b6040518163ffffffff1660e01b815260040160206040518083038186803b158015610c1357600080fd5b505afa158015610c27573d6000803e3d6000fd5b505050506040513d601f19601f82011682018060405250810190610c4b9190611613565b905061070e565b82610c5c8561100e565b60ff1681518110610c7d57634e487b7160e01b600052603260045260246000fd5b602002602001015160001c94505b50929392505050565b600060ff841615610c8b57610ca884610fbc565b15610c525781610cb785610fdb565b60ff1681518110610cd857634e487b7160e01b600052603260045260246000fd5b602002602001015160001c9450610c8b565b604080516001600160a01b038416602482015260448082018490528251808303909101815260649091019091526020810180516001600160e01b031663a9059cbb60e01b17905261096b908490611040565b6000816001600160a01b0316630261bf8b6040518163ffffffff1660e01b815260040160206040518083038186803b158015610d7757600080fd5b505afa158015610d8b573d6000803e3d6000fd5b505050506040513d601f19601f8201168201806040525081019061075a9190611613565b60006001600160a01b03831673eeeeeeeeeeeeeeeeeeeeeeeeeeeeeeeeeeeeeeee1415610de757506001600160a01b0381163161075a565b6040516370a0823160e01b81526001600160a01b0383811660048301528416906370a082319060240160206040518083038186803b158015610e2857600080fd5b505afa158015610e3c573d6000803e3d6000fd5b505050506040513d601f19601f82011682018060405250810190610e6091906118b6565b9392505050565b6000600019821415610e8057610e7d8484610daf565b91505b6001600160a01b03831615801590610ea157506001600160a01b0383163014155b8015610eca57506001600160a01b03841673eeeeeeeeeeeeeeeeeeeeeeeeeeeeeeeeeeeeeeee14155b8015610ed557508115155b15610eef57610eef6001600160a01b038516843085611117565b5092915050565b6001600160a01b03831673eeeeeeeeeeeeeeeeeeeeeeeeeeeeeeeeeeeeeeee1415610f2057505050565b604051636eb1769f60e11b81523060048201526001600160a01b03838116602483015282919085169063dd62ed3e9060440160206040518083038186803b158015610f6a57600080fd5b505afa158015610f7e573d6000803e3d6000fd5b505050506040513d601f19601f82011682018060405250810190610fa291906118b6565b101561096b5761096b6001600160a01b0384168383611182565b6000600160ff83161080159061075a5750607f60ff8316111592915050565b6000610fe682610fbc565b6110035760405163dcc95a3960e01b815260040160405180910390fd5b61075a6001836119b5565b6000608060ff831610156110355760405163866f6e8760e01b815260040160405180910390fd5b61075a6080836119b5565b6000611095826040518060400160405280602081526020017f5361666545524332303a206c6f772d6c6576656c2063616c6c206661696c6564815250856001600160a01b03166112a69092919063ffffffff16565b80519091501561096b57808060200190518101906110b391906116b9565b61096b5760405162461bcd60e51b815260206004820152602a60248201527f5361666545524332303a204552433230206f7065726174696f6e20646964206e6044820152691bdd081cdd58d8d9595960b21b60648201526084015b60405180910390fd5b6040516001600160a01b03808516602483015283166044820152606481018290526109519085906323b872dd60e01b906084015b60408051601f198184030181529190526020810180516001600160e01b03166001600160e01b0319909316929092179091526112b5565b80158061120b5750604051636eb1769f60e11b81523060048201526001600160a01b03838116602483015284169063dd62ed3e9060440160206040518083038186803b1580156111d157600080fd5b505afa1580156111e5573d6000803e3d6000fd5b505050506040513d601f19601f8201168201806040525081019061120991906118b6565b155b6112765760405162461bcd60e51b815260206004820152603660248201527f5361666542455032303a20617070726f76652066726f6d206e6f6e2d7a65726f60448201527520746f206e6f6e2d7a65726f20616c6c6f77616e636560501b606482015260840161110e565b6040516001600160a01b03831660248201526044810182905261096b90849063095ea7b360e01b9060640161114b565b606061070e848460008561143c565b6112c7826001600160a01b0316611500565b6113135760405162461bcd60e51b815260206004820152601f60248201527f5361666542455032303a2063616c6c20746f206e6f6e2d636f6e747261637400604482015260640161110e565b600080836001600160a01b03168360405161132e91906118fa565b6000604051808303816000865af19150503d806000811461136b576040519150601f19603f3d011682016040523d82523d6000602084013e611370565b606091505b5091509150816113c25760405162461bcd60e51b815260206004820181905260248201527f5361666542455032303a206c6f772d6c6576656c2063616c6c206661696c6564604482015260640161110e565b80511561095157808060200190518101906113dd91906116b9565b6109515760405162461bcd60e51b815260206004820152602a60248201527f5361666542455032303a204245503230206f7065726174696f6e20646964206e6044820152691bdd081cdd58d8d9595960b21b606482015260840161110e565b606061144785611500565b6114645760405163304619b560e01b815260040160405180910390fd5b600080866001600160a01b0316858760405161148091906118fa565b60006040518083038185875af1925050503d80600081146114bd576040519150601f19603f3d011682016040523d82523d6000602084013e6114c2565b606091505b509150915081156114d657915061070e9050565b8051156114e65780518082602001fd5b8360405162461bcd60e51b815260040161110e9190611916565b6000813f7fc5d2460186f7233c927e7db2dcc703c0e500b653ca82273b7bfad8045d85a47081811480159061070e575050151592915050565b600082601f830112611549578081fd5b8135602061155e61155983611991565b611960565b80838252828201915082860187848660051b890101111561157d578586fd5b855b8581101561159b5781358452928401929084019060010161157f565b5090979650505050505050565b600082601f8301126115b8578081fd5b813567ffffffffffffffff8111156115d2576115d2611a10565b6115e5601f8201601f1916602001611960565b8181528460208386010111156115f9578283fd5b816020850160208301379081016020019190915292915050565b600060208284031215611624578081fd5b8151610e6081611a26565b600080600060608486031215611643578182fd5b833561164e81611a26565b9250602084013561165e81611a26565b9150604084013561166e81611a3e565b809150509250925092565b60008060006060848603121561168d578283fd5b833561169881611a26565b925060208401356116a881611a26565b929592945050506040919091013590565b6000602082840312156116ca578081fd5b8151610e6081611a3e565b6000602082840312156116e6578081fd5b813567ffffffffffffffff8111156116fc578182fd5b61070e848285016115a8565b6000806000806080858703121561171d578081fd5b843567ffffffffffffffff80821115611734578283fd5b611740888389016115a8565b9550602091508187013581811115611756578384fd5b61176289828a01611539565b955050604087013581811115611776578384fd5b8701601f81018913611786578384fd5b803561179461155982611991565b8082825285820191508584018c878560051b87010111156117b3578788fd5b8794505b838510156117e357803560ff811681146117cf578889fd5b8352600194909401939186019186016117b7565b50965050505060608701359150808211156117fc578283fd5b5061180987828801611539565b91505092959194509250565b600060c08284031215611826578081fd5b60405160c0810181811067ffffffffffffffff8211171561184957611849611a10565b604052825161185781611a26565b8152602083015161186781611a26565b602082015260408381015190820152606083015161188481611a26565b6060820152608083015161189781611a26565b608082015260a08301516118aa81611a3e565b60a08201529392505050565b6000602082840312156118c7578081fd5b5051919050565b600081518084526118e68160208601602086016119e4565b601f01601f19169290920160200192915050565b6000825161190c8184602087016119e4565b9190910192915050565b602081526000610e6060208301846118ce565b60408152600d60408201526c52616469616e74537570706c7960981b6060820152608060208201526000610e6060808301846118ce565b604051601f8201601f1916810167ffffffffffffffff8111828210171561198957611989611a10565b604052919050565b600067ffffffffffffffff8211156119ab576119ab611a10565b5060051b60200190565b600060ff821660ff8416808210156119db57634e487b7160e01b83526011600452602483fd5b90039392505050565b60005b838110156119ff5781810151838201526020016119e7565b838111156109515750506000910152565b634e487b7160e01b600052604160045260246000fd5b6001600160a01b0381168114611a3b57600080fd5b50565b8015158114611a3b57600080fdfea26469706673582212206e68847503524d775e160062079069818498cccb4d8f3b082a6a10983be6049664736f6c63430008040033",
    "sourcePath": "e:/trava-saver-main-core/trava-station-core/contracts/actions/radiant/RadiantSupply.sol",
    "compiler": {
        "name": "solc",
        "version": "0.8.4+commit.c7e474f2"
    },
    "functionHashes": {
        "DATA_PROVIDER_ID()": "daa60599",
        "NO_PARAM_MAPPING()": "2fa13cb8",
        "RADIANT_REFERRAL_CODE()": "bbd8c72e",
        "RETURN_MAX_INDEX_VALUE()": "9864dcdd",
        "RETURN_MIN_INDEX_VALUE()": "8bcb6216",
        "SUB_MAX_INDEX_VALUE()": "d3c2e7ed",
        "SUB_MIN_INDEX_VALUE()": "0f2eee42",
        "actionType()": "247492f8",
        "adminVault()": "8cedca71",
        "enableAsCollateral(address,address,bool)": "f1cb3088",
        "executeAction(bytes,bytes32[],uint8[],bytes32[])": "8df50f74",
        "executeActionDirect(bytes)": "389f87ff",
        "kill()": "41c0e1b5",
        "logger()": "f24ccbfe",
        "parseInputs(bytes)": "9093410d",
        "registry()": "7b103999",
        "switchRateMode(address,address,uint256)": "b38ea016",
        "withdrawStuckFunds(address,address,uint256)": "c579d490"
    },
    "gasEstimates": {
        "creation": {
            "codeDepositCost": "1357200",
            "executionCost": "1417",
            "totalCost": "1358617"
        },
        "external": {
            "DATA_PROVIDER_ID()": "267",
            "NO_PARAM_MAPPING()": "261",
            "RADIANT_REFERRAL_CODE()": "293",
            "RETURN_MAX_INDEX_VALUE()": "238",
            "RETURN_MIN_INDEX_VALUE()": "260",
            "SUB_MAX_INDEX_VALUE()": "237",
            "SUB_MIN_INDEX_VALUE()": "217",
            "actionType()": "236",
            "adminVault()": "305",
            "enableAsCollateral(address,address,bool)": "infinite",
            "executeAction(bytes,bytes32[],uint8[],bytes32[])": "infinite",
            "executeActionDirect(bytes)": "infinite",
            "kill()": "infinite",
            "logger()": "326",
            "parseInputs(bytes)": "infinite",
            "registry()": "261",
            "switchRateMode(address,address,uint256)": "infinite",
            "withdrawStuckFunds(address,address,uint256)": "infinite"
        },
        "internal": {
            "_supply(address,address,uint256,address,address,bool)": "infinite"
        }
    }
}