{
    "contractName": "RadiantPayback",
    "abi": [
        {
            "inputs": [],
            "name": "NonContractCall",
            "type": "error"
        },
        {
            "inputs": [],
            "name": "ReturnIndexValueError",
            "type": "error"
        },
        {
            "inputs": [],
            "name": "SenderNotAdmin",
            "type": "error"
        },
        {
            "inputs": [],
            "name": "SenderNotOwner",
            "type": "error"
        },
        {
            "inputs": [],
            "name": "SubIndexValueError",
            "type": "error"
        },
        {
            "anonymous": false,
            "inputs": [
                {
                    "indexed": true,
                    "internalType": "string",
                    "name": "logName",
                    "type": "string"
                },
                {
                    "indexed": false,
                    "internalType": "bytes",
                    "name": "data",
                    "type": "bytes"
                }
            ],
            "name": "ActionEvent",
            "type": "event"
        },
        {
            "inputs": [],
            "name": "DATA_PROVIDER_ID",
            "outputs": [
                {
                    "internalType": "bytes32",
                    "name": "",
                    "type": "bytes32"
                }
            ],
            "stateMutability": "view",
            "type": "function"
        },
        {
            "inputs": [],
            "name": "NO_PARAM_MAPPING",
            "outputs": [
                {
                    "internalType": "uint8",
                    "name": "",
                    "type": "uint8"
                }
            ],
            "stateMutability": "view",
            "type": "function"
        },
        {
            "inputs": [],
            "name": "RADIANT_REFERRAL_CODE",
            "outputs": [
                {
                    "internalType": "uint16",
                    "name": "",
                    "type": "uint16"
                }
            ],
            "stateMutability": "view",
            "type": "function"
        },
        {
            "inputs": [],
            "name": "RETURN_MAX_INDEX_VALUE",
            "outputs": [
                {
                    "internalType": "uint8",
                    "name": "",
                    "type": "uint8"
                }
            ],
            "stateMutability": "view",
            "type": "function"
        },
        {
            "inputs": [],
            "name": "RETURN_MIN_INDEX_VALUE",
            "outputs": [
                {
                    "internalType": "uint8",
                    "name": "",
                    "type": "uint8"
                }
            ],
            "stateMutability": "view",
            "type": "function"
        },
        {
            "inputs": [],
            "name": "SUB_MAX_INDEX_VALUE",
            "outputs": [
                {
                    "internalType": "uint8",
                    "name": "",
                    "type": "uint8"
                }
            ],
            "stateMutability": "view",
            "type": "function"
        },
        {
            "inputs": [],
            "name": "SUB_MIN_INDEX_VALUE",
            "outputs": [
                {
                    "internalType": "uint8",
                    "name": "",
                    "type": "uint8"
                }
            ],
            "stateMutability": "view",
            "type": "function"
        },
        {
            "inputs": [],
            "name": "actionType",
            "outputs": [
                {
                    "internalType": "uint8",
                    "name": "",
                    "type": "uint8"
                }
            ],
            "stateMutability": "pure",
            "type": "function"
        },
        {
            "inputs": [],
            "name": "adminVault",
            "outputs": [
                {
                    "internalType": "contract AdminVault",
                    "name": "",
                    "type": "address"
                }
            ],
            "stateMutability": "view",
            "type": "function"
        },
        {
            "inputs": [
                {
                    "internalType": "address",
                    "name": "_market",
                    "type": "address"
                },
                {
                    "internalType": "address",
                    "name": "_tokenAddr",
                    "type": "address"
                },
                {
                    "internalType": "bool",
                    "name": "_useAsCollateral",
                    "type": "bool"
                }
            ],
            "name": "enableAsCollateral",
            "outputs": [],
            "stateMutability": "nonpayable",
            "type": "function"
        },
        {
            "inputs": [
                {
                    "internalType": "bytes",
                    "name": "_callData",
                    "type": "bytes"
                },
                {
                    "internalType": "bytes32[]",
                    "name": "_subData",
                    "type": "bytes32[]"
                },
                {
                    "internalType": "uint8[]",
                    "name": "_paramMapping",
                    "type": "uint8[]"
                },
                {
                    "internalType": "bytes32[]",
                    "name": "_returnValues",
                    "type": "bytes32[]"
                }
            ],
            "name": "executeAction",
            "outputs": [
                {
                    "internalType": "bytes32",
                    "name": "",
                    "type": "bytes32"
                }
            ],
            "stateMutability": "payable",
            "type": "function"
        },
        {
            "inputs": [
                {
                    "internalType": "bytes",
                    "name": "_callData",
                    "type": "bytes"
                }
            ],
            "name": "executeActionDirect",
            "outputs": [],
            "stateMutability": "payable",
            "type": "function"
        },
        {
            "inputs": [],
            "name": "kill",
            "outputs": [],
            "stateMutability": "nonpayable",
            "type": "function"
        },
        {
            "inputs": [],
            "name": "logger",
            "outputs": [
                {
                    "internalType": "contract DefisaverLogger",
                    "name": "",
                    "type": "address"
                }
            ],
            "stateMutability": "view",
            "type": "function"
        },
        {
            "inputs": [
                {
                    "internalType": "bytes",
                    "name": "_callData",
                    "type": "bytes"
                }
            ],
            "name": "parseInputs",
            "outputs": [
                {
                    "components": [
                        {
                            "internalType": "address",
                            "name": "market",
                            "type": "address"
                        },
                        {
                            "internalType": "address",
                            "name": "tokenAddr",
                            "type": "address"
                        },
                        {
                            "internalType": "uint256",
                            "name": "amount",
                            "type": "uint256"
                        },
                        {
                            "internalType": "uint256",
                            "name": "rateMode",
                            "type": "uint256"
                        },
                        {
                            "internalType": "address",
                            "name": "from",
                            "type": "address"
                        },
                        {
                            "internalType": "address",
                            "name": "onBehalf",
                            "type": "address"
                        }
                    ],
                    "internalType": "struct RadiantPayback.Params",
                    "name": "params",
                    "type": "tuple"
                }
            ],
            "stateMutability": "pure",
            "type": "function"
        },
        {
            "inputs": [],
            "name": "registry",
            "outputs": [
                {
                    "internalType": "contract DFSRegistry",
                    "name": "",
                    "type": "address"
                }
            ],
            "stateMutability": "view",
            "type": "function"
        },
        {
            "inputs": [
                {
                    "internalType": "address",
                    "name": "_market",
                    "type": "address"
                },
                {
                    "internalType": "address",
                    "name": "_tokenAddr",
                    "type": "address"
                },
                {
                    "internalType": "uint256",
                    "name": "_rateMode",
                    "type": "uint256"
                }
            ],
            "name": "switchRateMode",
            "outputs": [],
            "stateMutability": "nonpayable",
            "type": "function"
        },
        {
            "inputs": [
                {
                    "internalType": "address",
                    "name": "_token",
                    "type": "address"
                },
                {
                    "internalType": "address",
                    "name": "_receiver",
                    "type": "address"
                },
                {
                    "internalType": "uint256",
                    "name": "_amount",
                    "type": "uint256"
                }
            ],
            "name": "withdrawStuckFunds",
            "outputs": [],
            "stateMutability": "nonpayable",
            "type": "function"
        }
    ],
    "bytecode": "608060405234801561001057600080fd5b50611de9806100206000396000f3fe6080604052600436106101095760003560e01c80639093410d11610095578063c579d49011610064578063c579d490146102ff578063d3c2e7ed1461031f578063daa6059914610334578063f1cb30881461034c578063f24ccbfe1461036c57600080fd5b80639093410d1461022b5780639864dcdd146102a2578063b38ea016146102b7578063bbd8c72e146102d757600080fd5b806341c0e1b5116100dc57806341c0e1b5146101785780637b1039991461018d5780638bcb6216146101cd5780638cedca71146101e25780638df50f741461020a57600080fd5b80630f2eee421461010e578063247492f81461013a5780632fa13cb81461014e578063389f87ff14610163575b600080fd5b34801561011a57600080fd5b50610123608081565b60405160ff90911681526020015b60405180910390f35b34801561014657600080fd5b506001610123565b34801561015a57600080fd5b50610123600081565b61017661017136600461199b565b610394565b005b34801561018457600080fd5b5061017661043b565b34801561019957600080fd5b506101b573147f157cb4e328e9c0db68dba5305fb7c29e732881565b6040516001600160a01b039091168152602001610131565b3480156101d957600080fd5b50610123600181565b3480156101ee57600080fd5b506101b573f30f1fdcc52e1774cbc84c57e11a538d6b1404aa81565b61021d6102183660046119ce565b6104f4565b604051908152602001610131565b34801561023757600080fd5b5061024b61024636600461199b565b610702565b604051610131919081516001600160a01b039081168252602080840151821690830152604080840151908301526060808401519083015260808084015182169083015260a092830151169181019190915260c00190565b3480156102ae57600080fd5b50610123607f81565b3480156102c357600080fd5b506101766102d236600461193f565b61074c565b3480156102e357600080fd5b506102ec604081565b60405161ffff9091168152602001610131565b34801561030b57600080fd5b5061017661031a36600461193f565b61082c565b34801561032b57600080fd5b5061012360ff81565b34801561034057600080fd5b5061021d600160f81b81565b34801561035857600080fd5b506101766103673660046118f5565b61095c565b34801561037857600080fd5b506101b57337cfac15ede74f29fe164c460974bd61cc799eff81565b600061039f82610702565b905060006103c9826000015183602001518460400151856060015186608001518760a00151610a09565b60405163f4b24b5560e01b81529092507337cfac15ede74f29fe164c460974bd61cc799eff915063f4b24b5590610404908490600401611c6e565b600060405180830381600087803b15801561041e57600080fd5b505af1158015610432573d6000803e3d6000fd5b50505050505050565b336001600160a01b031673f30f1fdcc52e1774cbc84c57e11a538d6b1404aa6001600160a01b031663f851a4406040518163ffffffff1660e01b815260040160206040518083038186803b15801561049257600080fd5b505afa1580156104a6573d6000803e3d6000fd5b505050506040513d601f19601f820116820180604052508101906104ca91906118d9565b6001600160a01b0316146104f15760405163a6c827a960e01b815260040160405180910390fd5b33ff5b60008061050086610702565b905061053a81600001518560008151811061052b57634e487b7160e01b600052603260045260246000fd5b60200260200101518786610bb7565b6001600160a01b031681526020810151845161057291908690600190811061052b57634e487b7160e01b600052603260045260246000fd5b6001600160a01b03166020820152604081015184516105bc9190869060029081106105ad57634e487b7160e01b600052603260045260246000fd5b60200260200101518786610ce6565b8160400181815250506105ee8160600151856003815181106105ad57634e487b7160e01b600052603260045260246000fd5b81606001818152505061062081608001518560048151811061052b57634e487b7160e01b600052603260045260246000fd5b6001600160a01b0316608082015260a0810151845161065b91908690600590811061052b57634e487b7160e01b600052603260045260246000fd5b6001600160a01b031660a08201819052815160208301516040840151606085015160808601516000958695610697959094909390929091610a09565b6040516d52616469616e745061796261636b60901b81529193509150600e0160405180910390207f2b6d22f419271bcc89bbac8deec947c664365d6e24d06fef0ca7c325c704dce3826040516106ed9190611c5b565b60405180910390a2509150505b949350505050565b6040805160c08101825260008082526020808301829052928201819052606082018190526080820181905260a0820152825190916107469184018101908401611adb565b92915050565b6000836001600160a01b0316630261bf8b6040518163ffffffff1660e01b815260040160206040518083038186803b15801561078757600080fd5b505afa15801561079b573d6000803e3d6000fd5b505050506040513d601f19601f820116820180604052508101906107bf91906118d9565b604051634a5d44d160e11b81526001600160a01b03858116600483015260248201859052919250908216906394ba89a2906044015b600060405180830381600087803b15801561080e57600080fd5b505af1158015610822573d6000803e3d6000fd5b5050505050505050565b336001600160a01b031673f30f1fdcc52e1774cbc84c57e11a538d6b1404aa6001600160a01b0316638da5cb5b6040518163ffffffff1660e01b815260040160206040518083038186803b15801561088357600080fd5b505afa158015610897573d6000803e3d6000fd5b505050506040513d601f19601f820116820180604052508101906108bb91906118d9565b6001600160a01b0316146108e257604051630ca4a64560e11b815260040160405180910390fd5b73eeeeeeeeeeeeeeeeeeeeeeeeeeeeeeeeeeeeeeee6001600160a01b0384161415610943576040516001600160a01b0383169082156108fc029083906000818181858888f1935050505015801561093d573d6000803e3d6000fd5b50505050565b6109576001600160a01b0384168383610d3c565b505050565b6000836001600160a01b0316630261bf8b6040518163ffffffff1660e01b815260040160206040518083038186803b15801561099757600080fd5b505afa1580156109ab573d6000803e3d6000fd5b505050506040513d601f19601f820116820180604052508101906109cf91906118d9565b604051635a3b74b960e01b81526001600160a01b038581166004830152841515602483015291925090821690635a3b74b9906044016107f4565b600060606001600160a01b038316610a1f573092505b6000610a2a89610d8e565b90506000610a3a8a8a8988610e01565b9050808811610a495787610a4b565b805b9750610a616001600160a01b038a16878a610edc565b50610a766001600160a01b038a16838a610f6b565b6000610a8b6001600160a01b038b1630611031565b60405163573ade8160e01b81526001600160a01b038c81166004830152602482018c9052604482018b905288811660648301529192509084169063573ade8190608401602060405180830381600087803b158015610ae857600080fd5b505af1158015610afc573d6000803e3d6000fd5b505050506040513d601f19601f82011682018060405250810190610b209190611b75565b506000610b366001600160a01b038c1630611031565b9050610b4c6001600160a01b038c1689836110e9565b50604080516001600160a01b038e811660208301528d811682840152606082018d9052608082018c90528a811660a0830152891660c0808301919091528251808303909101815260e0909101909152610ba58284611cfb565b9d909c509a5050505050505050505050565b600060ff841615610cdd57610bcb84611211565b15610c0d5781610bda85611230565b60ff1681518110610bfb57634e487b7160e01b600052603260045260246000fd5b602002602001015160601c9450610cdd565b8360ff1660fe1415610c205750306106fa565b8360ff1660ff1415610ca457306001600160a01b0316638da5cb5b6040518163ffffffff1660e01b815260040160206040518083038186803b158015610c6557600080fd5b505afa158015610c79573d6000803e3d6000fd5b505050506040513d601f19601f82011682018060405250810190610c9d91906118d9565b90506106fa565b82610cae85611263565b60ff1681518110610ccf57634e487b7160e01b600052603260045260246000fd5b602002602001015160001c94505b50929392505050565b600060ff841615610cdd57610cfa84611211565b15610ca45781610d0985611230565b60ff1681518110610d2a57634e487b7160e01b600052603260045260246000fd5b602002602001015160001c9450610cdd565b604080516001600160a01b038416602482015260448082018490528251808303909101815260649091019091526020810180516001600160e01b031663a9059cbb60e01b179052610957908490611295565b6000816001600160a01b0316630261bf8b6040518163ffffffff1660e01b815260040160206040518083038186803b158015610dc957600080fd5b505afa158015610ddd573d6000803e3d6000fd5b505050506040513d601f19601f8201168201806040525081019061074691906118d9565b60006001600282610e1188611367565b6040516328dd2d0160e01b81526001600160a01b03898116600483015287811660248301529192506000918291908416906328dd2d01906044016101206040518083038186803b158015610e6457600080fd5b505afa158015610e78573d6000803e3d6000fd5b505050506040513d601f19601f82011682018060405250810190610e9c9190611b8d565b505050505050925092505084881415610ebb575093506106fa92505050565b83881415610ecf5794506106fa9350505050565b5050505050949350505050565b6000600019821415610ef557610ef28484611031565b91505b6001600160a01b03831615801590610f1657506001600160a01b0383163014155b8015610f3f57506001600160a01b03841673eeeeeeeeeeeeeeeeeeeeeeeeeeeeeeeeeeeeeeee14155b8015610f4a57508115155b15610f6457610f646001600160a01b0385168430856113ad565b5092915050565b6001600160a01b03831673eeeeeeeeeeeeeeeeeeeeeeeeeeeeeeeeeeeeeeee1415610f9557505050565b604051636eb1769f60e11b81523060048201526001600160a01b03838116602483015282919085169063dd62ed3e9060440160206040518083038186803b158015610fdf57600080fd5b505afa158015610ff3573d6000803e3d6000fd5b505050506040513d601f19601f820116820180604052508101906110179190611b75565b1015610957576109576001600160a01b0384168383611418565b60006001600160a01b03831673eeeeeeeeeeeeeeeeeeeeeeeeeeeeeeeeeeeeeeee141561106957506001600160a01b03811631610746565b6040516370a0823160e01b81526001600160a01b0383811660048301528416906370a082319060240160206040518083038186803b1580156110aa57600080fd5b505afa1580156110be573d6000803e3d6000fd5b505050506040513d601f19601f820116820180604052508101906110e29190611b75565b9392505050565b6000600019821415611102576110ff8430611031565b91505b6001600160a01b0383161580159061112357506001600160a01b0383163014155b801561112e57508115155b15610f64576001600160a01b03841673eeeeeeeeeeeeeeeeeeeeeeeeeeeeeeeeeeeeeeee146111705761116b6001600160a01b038516848461153c565b610f64565b6000836001600160a01b03168360405160006040518083038185875af1925050503d80600081146111bd576040519150601f19603f3d011682016040523d82523d6000602084013e6111c2565b606091505b50509050806112085760405162461bcd60e51b815260206004820152600d60248201526c115d1a081cd95b990819985a5b609a1b60448201526064015b60405180910390fd5b50909392505050565b6000600160ff8316108015906107465750607f60ff8316111592915050565b600061123b82611211565b6112585760405163dcc95a3960e01b815260040160405180910390fd5b610746600183611d12565b6000608060ff8316101561128a5760405163866f6e8760e01b815260040160405180910390fd5b610746608083611d12565b60006112ea826040518060400160405280602081526020017f5361666545524332303a206c6f772d6c6576656c2063616c6c206661696c6564815250856001600160a01b031661156c9092919063ffffffff16565b8051909150156109575780806020019051810190611308919061197f565b6109575760405162461bcd60e51b815260206004820152602a60248201527f5361666545524332303a204552433230206f7065726174696f6e20646964206e6044820152691bdd081cdd58d8d9595960b21b60648201526084016111ff565b6040516321f8a72160e01b8152600160f81b60048201526000906001600160a01b038316906321f8a7219060240160206040518083038186803b158015610dc957600080fd5b6040516001600160a01b038085166024830152831660448201526064810182905261093d9085906323b872dd60e01b906084015b60408051601f198184030181529190526020810180516001600160e01b03166001600160e01b03199093169290921790915261157b565b8015806114a15750604051636eb1769f60e11b81523060048201526001600160a01b03838116602483015284169063dd62ed3e9060440160206040518083038186803b15801561146757600080fd5b505afa15801561147b573d6000803e3d6000fd5b505050506040513d601f19601f8201168201806040525081019061149f9190611b75565b155b61150c5760405162461bcd60e51b815260206004820152603660248201527f5361666542455032303a20617070726f76652066726f6d206e6f6e2d7a65726f60448201527520746f206e6f6e2d7a65726f20616c6c6f77616e636560501b60648201526084016111ff565b6040516001600160a01b03831660248201526044810182905261095790849063095ea7b360e01b906064016113e1565b6040516001600160a01b03831660248201526044810182905261095790849063a9059cbb60e01b906064016113e1565b60606106fa8484600085611702565b61158d826001600160a01b03166117c6565b6115d95760405162461bcd60e51b815260206004820152601f60248201527f5361666542455032303a2063616c6c20746f206e6f6e2d636f6e74726163740060448201526064016111ff565b600080836001600160a01b0316836040516115f49190611c3f565b6000604051808303816000865af19150503d8060008114611631576040519150601f19603f3d011682016040523d82523d6000602084013e611636565b606091505b5091509150816116885760405162461bcd60e51b815260206004820181905260248201527f5361666542455032303a206c6f772d6c6576656c2063616c6c206661696c656460448201526064016111ff565b80511561093d57808060200190518101906116a3919061197f565b61093d5760405162461bcd60e51b815260206004820152602a60248201527f5361666542455032303a204245503230206f7065726174696f6e20646964206e6044820152691bdd081cdd58d8d9595960b21b60648201526084016111ff565b606061170d856117c6565b61172a5760405163304619b560e01b815260040160405180910390fd5b600080866001600160a01b031685876040516117469190611c3f565b60006040518083038185875af1925050503d8060008114611783576040519150601f19603f3d011682016040523d82523d6000602084013e611788565b606091505b5091509150811561179c5791506106fa9050565b8051156117ac5780518082602001fd5b8360405162461bcd60e51b81526004016111ff9190611c5b565b6000813f7fc5d2460186f7233c927e7db2dcc703c0e500b653ca82273b7bfad8045d85a4708181148015906106fa575050151592915050565b600082601f83011261180f578081fd5b8135602061182461181f83611cd7565b611ca6565b80838252828201915082860187848660051b8901011115611843578586fd5b855b8581101561186157813584529284019290840190600101611845565b5090979650505050505050565b600082601f83011261187e578081fd5b813567ffffffffffffffff81111561189857611898611d77565b6118ab601f8201601f1916602001611ca6565b8181528460208386010111156118bf578283fd5b816020850160208301379081016020019190915292915050565b6000602082840312156118ea578081fd5b81516110e281611d8d565b600080600060608486031215611909578182fd5b833561191481611d8d565b9250602084013561192481611d8d565b9150604084013561193481611da5565b809150509250925092565b600080600060608486031215611953578283fd5b833561195e81611d8d565b9250602084013561196e81611d8d565b929592945050506040919091013590565b600060208284031215611990578081fd5b81516110e281611da5565b6000602082840312156119ac578081fd5b813567ffffffffffffffff8111156119c2578182fd5b6106fa8482850161186e565b600080600080608085870312156119e3578081fd5b843567ffffffffffffffff808211156119fa578283fd5b611a068883890161186e565b9550602091508187013581811115611a1c578384fd5b611a2889828a016117ff565b955050604087013581811115611a3c578384fd5b8701601f81018913611a4c578384fd5b8035611a5a61181f82611cd7565b8082825285820191508584018c878560051b8701011115611a79578788fd5b8794505b83851015611aa957803560ff81168114611a95578889fd5b835260019490940193918601918601611a7d565b5096505050506060870135915080821115611ac2578283fd5b50611acf878288016117ff565b91505092959194509250565b600060c08284031215611aec578081fd5b60405160c0810181811067ffffffffffffffff82111715611b0f57611b0f611d77565b6040528251611b1d81611d8d565b81526020830151611b2d81611d8d565b8060208301525060408301516040820152606083015160608201526080830151611b5681611d8d565b608082015260a0830151611b6981611d8d565b60a08201529392505050565b600060208284031215611b86578081fd5b5051919050565b60008060008060008060008060006101208a8c031215611bab578687fd5b8951985060208a0151975060408a0151965060608a0151955060808a0151945060a08a0151935060c08a0151925060e08a015164ffffffffff81168114611bf0578283fd5b6101008b0151909250611c0281611da5565b809150509295985092959850929598565b60008151808452611c2b816020860160208601611d35565b601f01601f19169290920160200192915050565b60008251611c51818460208701611d35565b9190910192915050565b6020815260006110e26020830184611c13565b60408152600e60408201526d52616469616e745061796261636b60901b60608201526080602082015260006110e26080830184611c13565b604051601f8201601f1916810167ffffffffffffffff81118282101715611ccf57611ccf611d77565b604052919050565b600067ffffffffffffffff821115611cf157611cf1611d77565b5060051b60200190565b600082821015611d0d57611d0d611d61565b500390565b600060ff821660ff841680821015611d2c57611d2c611d61565b90039392505050565b60005b83811015611d50578181015183820152602001611d38565b8381111561093d5750506000910152565b634e487b7160e01b600052601160045260246000fd5b634e487b7160e01b600052604160045260246000fd5b6001600160a01b0381168114611da257600080fd5b50565b8015158114611da257600080fdfea26469706673582212207c455fe404775ff184c7b96e5bc670954f759f2c607b88a0aceecfc901bacdfa64736f6c63430008040033",
    "sourcePath": "e:/trava-saver-main-core/trava-station-core/contracts/actions/radiant/RadiantPayback.sol",
    "compiler": {
        "name": "solc",
        "version": "0.8.4+commit.c7e474f2"
    },
    "functionHashes": {
        "DATA_PROVIDER_ID()": "daa60599",
        "NO_PARAM_MAPPING()": "2fa13cb8",
        "RADIANT_REFERRAL_CODE()": "bbd8c72e",
        "RETURN_MAX_INDEX_VALUE()": "9864dcdd",
        "RETURN_MIN_INDEX_VALUE()": "8bcb6216",
        "SUB_MAX_INDEX_VALUE()": "d3c2e7ed",
        "SUB_MIN_INDEX_VALUE()": "0f2eee42",
        "actionType()": "247492f8",
        "adminVault()": "8cedca71",
        "enableAsCollateral(address,address,bool)": "f1cb3088",
        "executeAction(bytes,bytes32[],uint8[],bytes32[])": "8df50f74",
        "executeActionDirect(bytes)": "389f87ff",
        "kill()": "41c0e1b5",
        "logger()": "f24ccbfe",
        "parseInputs(bytes)": "9093410d",
        "registry()": "7b103999",
        "switchRateMode(address,address,uint256)": "b38ea016",
        "withdrawStuckFunds(address,address,uint256)": "c579d490"
    },
    "gasEstimates": {
        "creation": {
            "codeDepositCost": "1531400",
            "executionCost": "1603",
            "totalCost": "1533003"
        },
        "external": {
            "DATA_PROVIDER_ID()": "267",
            "NO_PARAM_MAPPING()": "261",
            "RADIANT_REFERRAL_CODE()": "293",
            "RETURN_MAX_INDEX_VALUE()": "238",
            "RETURN_MIN_INDEX_VALUE()": "260",
            "SUB_MAX_INDEX_VALUE()": "237",
            "SUB_MIN_INDEX_VALUE()": "217",
            "actionType()": "236",
            "adminVault()": "305",
            "enableAsCollateral(address,address,bool)": "infinite",
            "executeAction(bytes,bytes32[],uint8[],bytes32[])": "infinite",
            "executeActionDirect(bytes)": "infinite",
            "kill()": "infinite",
            "logger()": "326",
            "parseInputs(bytes)": "infinite",
            "registry()": "261",
            "switchRateMode(address,address,uint256)": "infinite",
            "withdrawStuckFunds(address,address,uint256)": "infinite"
        },
        "internal": {
            "_payback(address,address,uint256,uint256,address,address)": "infinite"
        }
    }
}