{
    "contractName": "LiqeeHelper",
    "abi": [
        {
            "inputs": [],
            "name": "LiqeeEnterMarketError",
            "type": "error"
        },
        {
            "inputs": [],
            "name": "LiqeeExitMarketError",
            "type": "error"
        },
        {
            "inputs": [
                {
                    "internalType": "address",
                    "name": "_iTokenAddr",
                    "type": "address"
                }
            ],
            "name": "enterMarket",
            "outputs": [],
            "stateMutability": "nonpayable",
            "type": "function"
        },
        {
            "inputs": [
                {
                    "internalType": "address",
                    "name": "_iTokenAddr",
                    "type": "address"
                }
            ],
            "name": "exitMarket",
            "outputs": [],
            "stateMutability": "nonpayable",
            "type": "function"
        }
    ],
    "bytecode": "608060405234801561001057600080fd5b50610481806100206000396000f3fe608060405234801561001057600080fd5b50600436106100365760003560e01c80633fe5d4251461003b578063ede4edd014610050575b600080fd5b61004e6100493660046102f3565b610063565b005b61004e61005e3660046102f3565b6101a3565b6040805160018082528183019092526000916020808301908036833701905050905081816000815181106100a757634e487b7160e01b600052603260045260246000fd5b6001600160a01b0390921660209283029190910190910152604051631853304760e31b8152600090733d5bc3c8d13dcb8bf317092d84783c2697ae92589063c2998238906100f99085906004016103e8565b600060405180830381600087803b15801561011357600080fd5b505af1158015610127573d6000803e3d6000fd5b505050506040513d6000823e601f3d908101601f1916820160405261014f9190810190610321565b90508060008151811061017257634e487b7160e01b600052603260045260246000fd5b60200260200101511515600115151461019e57604051630c64f53160e31b815260040160405180910390fd5b505050565b6040805160018082528183019092526000916020808301908036833701905050905081816000815181106101e757634e487b7160e01b600052603260045260246000fd5b6001600160a01b0390921660209283029190910190910152604051631a15e82760e31b8152600090733d5bc3c8d13dcb8bf317092d84783c2697ae92589063d0af4138906102399085906004016103e8565b600060405180830381600087803b15801561025357600080fd5b505af1158015610267573d6000803e3d6000fd5b505050506040513d6000823e601f3d908101601f1916820160405261028f9190810190610321565b9050806000815181106102b257634e487b7160e01b600052603260045260246000fd5b60200260200101511515600115151461019e5760405163d7822ee160e01b815260040160405180910390fd5b805180151581146102ee57600080fd5b919050565b600060208284031215610304578081fd5b81356001600160a01b038116811461031a578182fd5b9392505050565b60006020808385031215610333578182fd5b825167ffffffffffffffff8082111561034a578384fd5b818501915085601f83011261035d578384fd5b81518181111561036f5761036f610435565b8060051b604051601f19603f8301168101818110858211171561039457610394610435565b604052828152858101935084860182860187018a10156103b2578788fd5b8795505b838610156103db576103c7816102de565b8552600195909501949386019386016103b6565b5098975050505050505050565b6020808252825182820181905260009190848201906040850190845b818110156104295783516001600160a01b031683529284019291840191600101610404565b50909695505050505050565b634e487b7160e01b600052604160045260246000fdfea264697066735822122094b474f560332f9a73d27fba448d065205377398b5504282f0ea3d7075bd53c164736f6c63430008040033",
    "sourcePath": "e:/trava-saver-main-core/trava-station-core/contracts/actions/liqee/helpers/LiqeeHelper.sol",
    "compiler": {
        "name": "solc",
        "version": "0.8.4+commit.c7e474f2"
    },
    "functionHashes": {
        "enterMarket(address)": "3fe5d425",
        "exitMarket(address)": "ede4edd0"
    },
    "gasEstimates": {
        "creation": {
            "codeDepositCost": "230600",
            "executionCost": "275",
            "totalCost": "230875"
        },
        "external": {
            "enterMarket(address)": "infinite",
            "exitMarket(address)": "infinite"
        },
        "internal": {
            "getUnderlyingAddr(address)": "infinite"
        }
    }
}