{
    "contractName": "VTokenStorage",
    "abi": [
        {
            "inputs": [],
            "name": "accrualBlockNumber",
            "outputs": [
                {
                    "internalType": "uint256",
                    "name": "",
                    "type": "uint256"
                }
            ],
            "stateMutability": "view",
            "type": "function"
        },
        {
            "inputs": [],
            "name": "badDebt",
            "outputs": [
                {
                    "internalType": "uint256",
                    "name": "",
                    "type": "uint256"
                }
            ],
            "stateMutability": "view",
            "type": "function"
        },
        {
            "inputs": [],
            "name": "borrowIndex",
            "outputs": [
                {
                    "internalType": "uint256",
                    "name": "",
                    "type": "uint256"
                }
            ],
            "stateMutability": "view",
            "type": "function"
        },
        {
            "inputs": [],
            "name": "decimals",
            "outputs": [
                {
                    "internalType": "uint8",
                    "name": "",
                    "type": "uint8"
                }
            ],
            "stateMutability": "view",
            "type": "function"
        },
        {
            "inputs": [],
            "name": "name",
            "outputs": [
                {
                    "internalType": "string",
                    "name": "",
                    "type": "string"
                }
            ],
            "stateMutability": "view",
            "type": "function"
        },
        {
            "inputs": [],
            "name": "protocolSeizeShareMantissa",
            "outputs": [
                {
                    "internalType": "uint256",
                    "name": "",
                    "type": "uint256"
                }
            ],
            "stateMutability": "view",
            "type": "function"
        },
        {
            "inputs": [],
            "name": "protocolShareReserve",
            "outputs": [
                {
                    "internalType": "address payable",
                    "name": "",
                    "type": "address"
                }
            ],
            "stateMutability": "view",
            "type": "function"
        },
        {
            "inputs": [],
            "name": "reduceReservesBlockDelta",
            "outputs": [
                {
                    "internalType": "uint256",
                    "name": "",
                    "type": "uint256"
                }
            ],
            "stateMutability": "view",
            "type": "function"
        },
        {
            "inputs": [],
            "name": "reduceReservesBlockNumber",
            "outputs": [
                {
                    "internalType": "uint256",
                    "name": "",
                    "type": "uint256"
                }
            ],
            "stateMutability": "view",
            "type": "function"
        },
        {
            "inputs": [],
            "name": "reserveFactorMantissa",
            "outputs": [
                {
                    "internalType": "uint256",
                    "name": "",
                    "type": "uint256"
                }
            ],
            "stateMutability": "view",
            "type": "function"
        },
        {
            "inputs": [],
            "name": "shortfall",
            "outputs": [
                {
                    "internalType": "address",
                    "name": "",
                    "type": "address"
                }
            ],
            "stateMutability": "view",
            "type": "function"
        },
        {
            "inputs": [],
            "name": "symbol",
            "outputs": [
                {
                    "internalType": "string",
                    "name": "",
                    "type": "string"
                }
            ],
            "stateMutability": "view",
            "type": "function"
        },
        {
            "inputs": [],
            "name": "totalBorrows",
            "outputs": [
                {
                    "internalType": "uint256",
                    "name": "",
                    "type": "uint256"
                }
            ],
            "stateMutability": "view",
            "type": "function"
        },
        {
            "inputs": [],
            "name": "totalReserves",
            "outputs": [
                {
                    "internalType": "uint256",
                    "name": "",
                    "type": "uint256"
                }
            ],
            "stateMutability": "view",
            "type": "function"
        },
        {
            "inputs": [],
            "name": "totalSupply",
            "outputs": [
                {
                    "internalType": "uint256",
                    "name": "",
                    "type": "uint256"
                }
            ],
            "stateMutability": "view",
            "type": "function"
        },
        {
            "inputs": [],
            "name": "underlying",
            "outputs": [
                {
                    "internalType": "address",
                    "name": "",
                    "type": "address"
                }
            ],
            "stateMutability": "view",
            "type": "function"
        }
    ],
    "bytecode": "608060405234801561001057600080fd5b5061036c806100206000396000f3fe608060405234801561001057600080fd5b50600436106101005760003560e01c80636f307dc311610097578063ae96f14111610066578063ae96f141146101da578063bbcac557146101e3578063d1109c2f146101ec578063e9a44fd9146101f557600080fd5b80636f307dc3146101a85780638f840ddd146101c057806395d89b41146101c9578063aa5af0fd146101d157600080fd5b8063313ce567116100d3578063313ce5671461016e57806347bd37181461018d5780636752e702146101965780636c540baf1461019f57600080fd5b806306fdde0314610105578063173b99041461012357806318160ddd1461013a57806319b1faef14610143575b600080fd5b61010d61020d565b60405161011a91906102a8565b60405180910390f35b61012c60055481565b60405190815260200161011a565b61012c600a5481565b601054610156906001600160a01b031681565b6040516001600160a01b03909116815260200161011a565b60035461017b9060ff1681565b60405160ff909116815260200161011a565b61012c60085481565b61012c600f5481565b61012c60065481565b6000546101569061010090046001600160a01b031681565b61012c60095481565b61010d61029b565b61012c60075481565b61012c60125481565b61012c600b5481565b61012c60115481565b6003546101569061010090046001600160a01b031681565b6001805461021a906102fb565b80601f0160208091040260200160405190810160405280929190818152602001828054610246906102fb565b80156102935780601f1061026857610100808354040283529160200191610293565b820191906000526020600020905b81548152906001019060200180831161027657829003601f168201915b505050505081565b6002805461021a906102fb565b6000602080835283518082850152825b818110156102d4578581018301518582016040015282016102b8565b818111156102e55783604083870101525b50601f01601f1916929092016040019392505050565b600181811c9082168061030f57607f821691505b6020821081141561033057634e487b7160e01b600052602260045260246000fd5b5091905056fea26469706673582212206124ce51a5c5b201d236196789521d1bab0fa5b484d707d6c11e1659b11ed2bf64736f6c63430008040033",
    "sourcePath": "e:/trava-saver-main-core/trava-station-core/contracts/interfaces/venus/IVToken.sol",
    "compiler": {
        "name": "solc",
        "version": "0.8.4+commit.c7e474f2"
    },
    "functionHashes": {
        "accrualBlockNumber()": "6c540baf",
        "badDebt()": "bbcac557",
        "borrowIndex()": "aa5af0fd",
        "decimals()": "313ce567",
        "name()": "06fdde03",
        "protocolSeizeShareMantissa()": "6752e702",
        "protocolShareReserve()": "e9a44fd9",
        "reduceReservesBlockDelta()": "d1109c2f",
        "reduceReservesBlockNumber()": "ae96f141",
        "reserveFactorMantissa()": "173b9904",
        "shortfall()": "19b1faef",
        "symbol()": "95d89b41",
        "totalBorrows()": "47bd3718",
        "totalReserves()": "8f840ddd",
        "totalSupply()": "18160ddd",
        "underlying()": "6f307dc3"
    },
    "gasEstimates": {
        "creation": {
            "codeDepositCost": "175200",
            "executionCost": "220",
            "totalCost": "175420"
        },
        "external": {
            "accrualBlockNumber()": "1084",
            "badDebt()": "1039",
            "borrowIndex()": "1084",
            "decimals()": "1036",
            "name()": "infinite",
            "protocolSeizeShareMantissa()": "1062",
            "protocolShareReserve()": "1136",
            "reduceReservesBlockDelta()": "1061",
            "reduceReservesBlockNumber()": "1017",
            "reserveFactorMantissa()": "1041",
            "shortfall()": "1127",
            "symbol()": "infinite",
            "totalBorrows()": "1040",
            "totalReserves()": "1040",
            "totalSupply()": "1063",
            "underlying()": "1071"
        }
    }
}