{
    "contractName": "LiqeePayback",
    "abi": [
        {
            "inputs": [],
            "name": "CreamPaybackError",
            "type": "error"
        },
        {
            "inputs": [],
            "name": "LiqeeEnterMarketError",
            "type": "error"
        },
        {
            "inputs": [],
            "name": "LiqeeExitMarketError",
            "type": "error"
        },
        {
            "inputs": [],
            "name": "NonContractCall",
            "type": "error"
        },
        {
            "inputs": [],
            "name": "ReturnIndexValueError",
            "type": "error"
        },
        {
            "inputs": [],
            "name": "SenderNotAdmin",
            "type": "error"
        },
        {
            "inputs": [],
            "name": "SenderNotOwner",
            "type": "error"
        },
        {
            "inputs": [],
            "name": "SubIndexValueError",
            "type": "error"
        },
        {
            "anonymous": false,
            "inputs": [
                {
                    "indexed": true,
                    "internalType": "string",
                    "name": "logName",
                    "type": "string"
                },
                {
                    "indexed": false,
                    "internalType": "bytes",
                    "name": "data",
                    "type": "bytes"
                }
            ],
            "name": "ActionEvent",
            "type": "event"
        },
        {
            "inputs": [],
            "name": "NO_PARAM_MAPPING",
            "outputs": [
                {
                    "internalType": "uint8",
                    "name": "",
                    "type": "uint8"
                }
            ],
            "stateMutability": "view",
            "type": "function"
        },
        {
            "inputs": [],
            "name": "RETURN_MAX_INDEX_VALUE",
            "outputs": [
                {
                    "internalType": "uint8",
                    "name": "",
                    "type": "uint8"
                }
            ],
            "stateMutability": "view",
            "type": "function"
        },
        {
            "inputs": [],
            "name": "RETURN_MIN_INDEX_VALUE",
            "outputs": [
                {
                    "internalType": "uint8",
                    "name": "",
                    "type": "uint8"
                }
            ],
            "stateMutability": "view",
            "type": "function"
        },
        {
            "inputs": [],
            "name": "SUB_MAX_INDEX_VALUE",
            "outputs": [
                {
                    "internalType": "uint8",
                    "name": "",
                    "type": "uint8"
                }
            ],
            "stateMutability": "view",
            "type": "function"
        },
        {
            "inputs": [],
            "name": "SUB_MIN_INDEX_VALUE",
            "outputs": [
                {
                    "internalType": "uint8",
                    "name": "",
                    "type": "uint8"
                }
            ],
            "stateMutability": "view",
            "type": "function"
        },
        {
            "inputs": [],
            "name": "actionType",
            "outputs": [
                {
                    "internalType": "uint8",
                    "name": "",
                    "type": "uint8"
                }
            ],
            "stateMutability": "pure",
            "type": "function"
        },
        {
            "inputs": [],
            "name": "adminVault",
            "outputs": [
                {
                    "internalType": "contract AdminVault",
                    "name": "",
                    "type": "address"
                }
            ],
            "stateMutability": "view",
            "type": "function"
        },
        {
            "inputs": [
                {
                    "internalType": "address",
                    "name": "_iTokenAddr",
                    "type": "address"
                }
            ],
            "name": "enterMarket",
            "outputs": [],
            "stateMutability": "nonpayable",
            "type": "function"
        },
        {
            "inputs": [
                {
                    "internalType": "bytes",
                    "name": "_callData",
                    "type": "bytes"
                },
                {
                    "internalType": "bytes32[]",
                    "name": "_subData",
                    "type": "bytes32[]"
                },
                {
                    "internalType": "uint8[]",
                    "name": "_paramMapping",
                    "type": "uint8[]"
                },
                {
                    "internalType": "bytes32[]",
                    "name": "_returnValues",
                    "type": "bytes32[]"
                }
            ],
            "name": "executeAction",
            "outputs": [
                {
                    "internalType": "bytes32",
                    "name": "",
                    "type": "bytes32"
                }
            ],
            "stateMutability": "payable",
            "type": "function"
        },
        {
            "inputs": [
                {
                    "internalType": "bytes",
                    "name": "_callData",
                    "type": "bytes"
                }
            ],
            "name": "executeActionDirect",
            "outputs": [],
            "stateMutability": "payable",
            "type": "function"
        },
        {
            "inputs": [
                {
                    "internalType": "address",
                    "name": "_iTokenAddr",
                    "type": "address"
                }
            ],
            "name": "exitMarket",
            "outputs": [],
            "stateMutability": "nonpayable",
            "type": "function"
        },
        {
            "inputs": [],
            "name": "kill",
            "outputs": [],
            "stateMutability": "nonpayable",
            "type": "function"
        },
        {
            "inputs": [],
            "name": "logger",
            "outputs": [
                {
                    "internalType": "contract DefisaverLogger",
                    "name": "",
                    "type": "address"
                }
            ],
            "stateMutability": "view",
            "type": "function"
        },
        {
            "inputs": [
                {
                    "internalType": "bytes",
                    "name": "_callData",
                    "type": "bytes"
                }
            ],
            "name": "parseInputs",
            "outputs": [
                {
                    "components": [
                        {
                            "internalType": "address",
                            "name": "iTokenAddr",
                            "type": "address"
                        },
                        {
                            "internalType": "uint256",
                            "name": "amount",
                            "type": "uint256"
                        },
                        {
                            "internalType": "address",
                            "name": "from",
                            "type": "address"
                        },
                        {
                            "internalType": "address",
                            "name": "onBehalf",
                            "type": "address"
                        }
                    ],
                    "internalType": "struct LiqeePayback.Params",
                    "name": "params",
                    "type": "tuple"
                }
            ],
            "stateMutability": "pure",
            "type": "function"
        },
        {
            "inputs": [],
            "name": "registry",
            "outputs": [
                {
                    "internalType": "contract DFSRegistry",
                    "name": "",
                    "type": "address"
                }
            ],
            "stateMutability": "view",
            "type": "function"
        },
        {
            "inputs": [
                {
                    "internalType": "address",
                    "name": "_token",
                    "type": "address"
                },
                {
                    "internalType": "address",
                    "name": "_receiver",
                    "type": "address"
                },
                {
                    "internalType": "uint256",
                    "name": "_amount",
                    "type": "uint256"
                }
            ],
            "name": "withdrawStuckFunds",
            "outputs": [],
            "stateMutability": "nonpayable",
            "type": "function"
        }
    ],
    "bytecode": "608060405234801561001057600080fd5b506119fb806100206000396000f3fe6080604052600436106100f35760003560e01c80638cedca711161008a578063c579d49011610059578063c579d490146102ab578063d3c2e7ed146102cb578063ede4edd0146102e0578063f24ccbfe1461030057600080fd5b80638cedca71146101ec5780638df50f74146102145780639093410d146102355780639864dcdd1461029657600080fd5b80633fe5d425116100c65780633fe5d4251461016257806341c0e1b5146101825780637b103999146101975780638bcb6216146101d757600080fd5b80630f2eee42146100f8578063247492f8146101245780632fa13cb814610138578063389f87ff1461014d575b600080fd5b34801561010457600080fd5b5061010d608081565b60405160ff90911681526020015b60405180910390f35b34801561013057600080fd5b50600161010d565b34801561014457600080fd5b5061010d600081565b61016061015b366004611636565b610328565b005b34801561016e57600080fd5b5061016061017d36600461150a565b6103c5565b34801561018e57600080fd5b50610160610505565b3480156101a357600080fd5b506101bf73147f157cb4e328e9c0db68dba5305fb7c29e732881565b6040516001600160a01b03909116815260200161011b565b3480156101e357600080fd5b5061010d600181565b3480156101f857600080fd5b506101bf73f30f1fdcc52e1774cbc84c57e11a538d6b1404aa81565b610227610222366004611669565b6105be565b60405190815260200161011b565b34801561024157600080fd5b50610255610250366004611636565b61074f565b60405161011b919081516001600160a01b03908116825260208084015190830152604080840151821690830152606092830151169181019190915260800190565b3480156102a257600080fd5b5061010d607f81565b3480156102b757600080fd5b506101606102c6366004611542565b61078b565b3480156102d757600080fd5b5061010d60ff81565b3480156102ec57600080fd5b506101606102fb36600461150a565b6108b6565b34801561030c57600080fd5b506101bf7337cfac15ede74f29fe164c460974bd61cc799eff81565b60006103338261074f565b9050600061035382600001518360200151846040015185606001516109f1565b60405163f4b24b5560e01b81529092507337cfac15ede74f29fe164c460974bd61cc799eff915063f4b24b559061038e9084906004016118b1565b600060405180830381600087803b1580156103a857600080fd5b505af11580156103bc573d6000803e3d6000fd5b50505050505050565b60408051600180825281830190925260009160208083019080368337019050509050818160008151811061040957634e487b7160e01b600052603260045260246000fd5b6001600160a01b0390921660209283029190910190910152604051631853304760e31b8152600090733d5bc3c8d13dcb8bf317092d84783c2697ae92589063c29982389061045b908590600401611851565b600060405180830381600087803b15801561047557600080fd5b505af1158015610489573d6000803e3d6000fd5b505050506040513d6000823e601f3d908101601f191682016040526104b19190810190611582565b9050806000815181106104d457634e487b7160e01b600052603260045260246000fd5b60200260200101511515600115151461050057604051630c64f53160e31b815260040160405180910390fd5b505050565b336001600160a01b031673f30f1fdcc52e1774cbc84c57e11a538d6b1404aa6001600160a01b031663f851a4406040518163ffffffff1660e01b815260040160206040518083038186803b15801561055c57600080fd5b505afa158015610570573d6000803e3d6000fd5b505050506040513d601f19601f820116820180604052508101906105949190611526565b6001600160a01b0316146105bb5760405163a6c827a960e01b815260040160405180910390fd5b33ff5b6000806105ca8661074f565b90506106048160000151856000815181106105f557634e487b7160e01b600052603260045260246000fd5b60200260200101518786610c0f565b6001600160a01b031681526020810151845161064b91908690600190811061063c57634e487b7160e01b600052603260045260246000fd5b60200260200101518786610d3e565b81602001818152505061067d8160400151856002815181106105f557634e487b7160e01b600052603260045260246000fd5b6001600160a01b03166040820152606081015184516106b89190869060039081106105f557634e487b7160e01b600052603260045260246000fd5b6001600160a01b03166060820181905281516020830151604084015160009384936106e693909290916109f1565b6040516b4c697165655061796261636b60a01b81529193509150600c0160405180910390207f2b6d22f419271bcc89bbac8deec947c664365d6e24d06fef0ca7c325c704dce38260405161073a919061189e565b60405180910390a2509150505b949350505050565b60408051608081018252600080825260208083018290529282018190526060820152825190916107859184018101908401611776565b92915050565b336001600160a01b031673f30f1fdcc52e1774cbc84c57e11a538d6b1404aa6001600160a01b0316638da5cb5b6040518163ffffffff1660e01b815260040160206040518083038186803b1580156107e257600080fd5b505afa1580156107f6573d6000803e3d6000fd5b505050506040513d601f19601f8201168201806040525081019061081a9190611526565b6001600160a01b03161461084157604051630ca4a64560e11b815260040160405180910390fd5b73eeeeeeeeeeeeeeeeeeeeeeeeeeeeeeeeeeeeeeee6001600160a01b03841614156108a2576040516001600160a01b0383169082156108fc029083906000818181858888f1935050505015801561089c573d6000803e3d6000fd5b50505050565b6105006001600160a01b0384168383610d94565b6040805160018082528183019092526000916020808301908036833701905050905081816000815181106108fa57634e487b7160e01b600052603260045260246000fd5b6001600160a01b0390921660209283029190910190910152604051631a15e82760e31b8152600090733d5bc3c8d13dcb8bf317092d84783c2697ae92589063d0af41389061094c908590600401611851565b600060405180830381600087803b15801561096657600080fd5b505af115801561097a573d6000803e3d6000fd5b505050506040513d6000823e601f3d908101601f191682016040526109a29190810190611582565b9050806000815181106109c557634e487b7160e01b600052603260045260246000fd5b6020026020010151151560011515146105005760405163d7822ee160e01b815260040160405180910390fd5b600060606000610a0087610df7565b90506001600160a01b038416610a14573093505b6040516305eff7ef60e21b81526001600160a01b038581166004830152600091908916906317bfdfbc90602401602060405180830381600087803b158015610a5b57600080fd5b505af1158015610a6f573d6000803e3d6000fd5b505050506040513d601f19601f82011682018060405250810190610a9391906117f1565b9050808711610aa25786610aa4565b805b9650610aba6001600160a01b0383168789610eac565b506001600160a01b03821673ae13d989dac2f0debff460ac112a837c89baa7cd14610b5a57610af36001600160a01b0383168989610f3b565b6040516304c11f0360e31b81526001600160a01b03868116600483015260248201899052891690632608f81890604401600060405180830381600087803b158015610b3d57600080fd5b505af1158015610b51573d6000803e3d6000fd5b50505050610bc1565b610b6387611001565b60405163e597461960e01b81526001600160a01b03868116600483015289169063e59746199089906024016000604051808303818588803b158015610ba757600080fd5b505af1158015610bbb573d6000803e3d6000fd5b50505050505b604080516001600160a01b0380851660208301529181018990528188166060820152908616608082015260009060a00160408051808303601f19018152919052979997985050505050505050565b600060ff841615610d3557610c2384611069565b15610c655781610c3285611088565b60ff1681518110610c5357634e487b7160e01b600052603260045260246000fd5b602002602001015160601c9450610d35565b8360ff1660fe1415610c78575030610747565b8360ff1660ff1415610cfc57306001600160a01b0316638da5cb5b6040518163ffffffff1660e01b815260040160206040518083038186803b158015610cbd57600080fd5b505afa158015610cd1573d6000803e3d6000fd5b505050506040513d601f19601f82011682018060405250810190610cf59190611526565b9050610747565b82610d06856110bb565b60ff1681518110610d2757634e487b7160e01b600052603260045260246000fd5b602002602001015160001c94505b50929392505050565b600060ff841615610d3557610d5284611069565b15610cfc5781610d6185611088565b60ff1681518110610d8257634e487b7160e01b600052603260045260246000fd5b602002602001015160001c9450610d35565b6040516001600160a01b03831660248201526044810182905261050090849063a9059cbb60e01b906064015b60408051601f198184030181529190526020810180516001600160e01b03166001600160e01b0319909316929092179091526110ed565b60006001600160a01b038216731ffe17b99b439be0afc831239ddecda2a790ff3a1415610e39575073bb4cdb9cbd36b01bd1cbaebf2de08d9173bc095c919050565b816001600160a01b0316636f307dc36040518163ffffffff1660e01b8152600401602060405180830381600087803b158015610e7457600080fd5b505af1158015610e88573d6000803e3d6000fd5b505050506040513d601f19601f820116820180604052508101906107859190611526565b6000600019821415610ec557610ec284846111c4565b91505b6001600160a01b03831615801590610ee657506001600160a01b0383163014155b8015610f0f57506001600160a01b03841673eeeeeeeeeeeeeeeeeeeeeeeeeeeeeeeeeeeeeeee14155b8015610f1a57508115155b15610f3457610f346001600160a01b03851684308561127c565b5092915050565b6001600160a01b03831673eeeeeeeeeeeeeeeeeeeeeeeeeeeeeeeeeeeeeeee1415610f6557505050565b604051636eb1769f60e11b81523060048201526001600160a01b03838116602483015282919085169063dd62ed3e9060440160206040518083038186803b158015610faf57600080fd5b505afa158015610fc3573d6000803e3d6000fd5b505050506040513d601f19601f82011682018060405250810190610fe791906117f1565b1015610500576105006001600160a01b03841683836112b4565b604051632e1a7d4d60e01b81526004810182905273ae13d989dac2f0debff460ac112a837c89baa7cd90632e1a7d4d90602401600060405180830381600087803b15801561104e57600080fd5b505af1158015611062573d6000803e3d6000fd5b5050505050565b6000600160ff8316108015906107855750607f60ff8316111592915050565b600061109382611069565b6110b05760405163dcc95a3960e01b815260040160405180910390fd5b61078560018361193c565b6000608060ff831610156110e25760405163866f6e8760e01b815260040160405180910390fd5b61078560808361193c565b6000611142826040518060400160405280602081526020017f5361666545524332303a206c6f772d6c6576656c2063616c6c206661696c6564815250856001600160a01b03166113149092919063ffffffff16565b8051909150156105005780806020019051810190611160919061161c565b6105005760405162461bcd60e51b815260206004820152602a60248201527f5361666545524332303a204552433230206f7065726174696f6e20646964206e6044820152691bdd081cdd58d8d9595960b21b60648201526084015b60405180910390fd5b60006001600160a01b03831673eeeeeeeeeeeeeeeeeeeeeeeeeeeeeeeeeeeeeeee14156111fc57506001600160a01b03811631610785565b6040516370a0823160e01b81526001600160a01b0383811660048301528416906370a082319060240160206040518083038186803b15801561123d57600080fd5b505afa158015611251573d6000803e3d6000fd5b505050506040513d601f19601f8201168201806040525081019061127591906117f1565b9392505050565b6040516001600160a01b038085166024830152831660448201526064810182905261089c9085906323b872dd60e01b90608401610dc0565b6040516001600160a01b0383166024820152600060448201526112e490849063095ea7b360e01b90606401610dc0565b6040516001600160a01b03831660248201526044810182905261050090849063095ea7b360e01b90606401610dc0565b606061074784846000856060611329856113e2565b6113465760405163304619b560e01b815260040160405180910390fd5b600080866001600160a01b031685876040516113629190611835565b60006040518083038185875af1925050503d806000811461139f576040519150601f19603f3d011682016040523d82523d6000602084013e6113a4565b606091505b509150915081156113b85791506107479050565b8051156113c85780518082602001fd5b8360405162461bcd60e51b81526004016111bb919061189e565b6000813f7fc5d2460186f7233c927e7db2dcc703c0e500b653ca82273b7bfad8045d85a470818114801590610747575050151592915050565b600082601f83011261142b578081fd5b8135602061144061143b83611918565b6118e7565b80838252828201915082860187848660051b890101111561145f578586fd5b855b8581101561147d57813584529284019290840190600101611461565b5090979650505050505050565b8051801515811461149a57600080fd5b919050565b600082601f8301126114af578081fd5b813567ffffffffffffffff8111156114c9576114c9611997565b6114dc601f8201601f19166020016118e7565b8181528460208386010111156114f0578283fd5b816020850160208301379081016020019190915292915050565b60006020828403121561151b578081fd5b8135611275816119ad565b600060208284031215611537578081fd5b8151611275816119ad565b600080600060608486031215611556578182fd5b8335611561816119ad565b92506020840135611571816119ad565b929592945050506040919091013590565b60006020808385031215611594578182fd5b825167ffffffffffffffff8111156115aa578283fd5b8301601f810185136115ba578283fd5b80516115c861143b82611918565b80828252848201915084840188868560051b87010111156115e7578687fd5b8694505b83851015611610576115fc8161148a565b8352600194909401939185019185016115eb565b50979650505050505050565b60006020828403121561162d578081fd5b6112758261148a565b600060208284031215611647578081fd5b813567ffffffffffffffff81111561165d578182fd5b6107478482850161149f565b6000806000806080858703121561167e578081fd5b843567ffffffffffffffff80821115611695578283fd5b6116a18883890161149f565b95506020915081870135818111156116b7578384fd5b6116c389828a0161141b565b9550506040870135818111156116d7578384fd5b8701601f810189136116e7578384fd5b80356116f561143b82611918565b8082825285820191508584018c878560051b8701011115611714578788fd5b8794505b8385101561174457803560ff81168114611730578889fd5b835260019490940193918601918601611718565b509650505050606087013591508082111561175d578283fd5b5061176a8782880161141b565b91505092959194509250565b600060808284031215611787578081fd5b6040516080810181811067ffffffffffffffff821117156117aa576117aa611997565b60405282516117b8816119ad565b81526020838101519082015260408301516117d2816119ad565b604082015260608301516117e5816119ad565b60608201529392505050565b600060208284031215611802578081fd5b5051919050565b6000815180845261182181602086016020860161196b565b601f01601f19169290920160200192915050565b6000825161184781846020870161196b565b9190910192915050565b6020808252825182820181905260009190848201906040850190845b818110156118925783516001600160a01b03168352928401929184019160010161186d565b50909695505050505050565b6020815260006112756020830184611809565b60408152600c60408201526b4c697165655061796261636b60a01b60608201526080602082015260006112756080830184611809565b604051601f8201601f1916810167ffffffffffffffff8111828210171561191057611910611997565b604052919050565b600067ffffffffffffffff82111561193257611932611997565b5060051b60200190565b600060ff821660ff84168082101561196257634e487b7160e01b83526011600452602483fd5b90039392505050565b60005b8381101561198657818101518382015260200161196e565b8381111561089c5750506000910152565b634e487b7160e01b600052604160045260246000fd5b6001600160a01b03811681146119c257600080fd5b5056fea26469706673582212205665a7272b6f2982843b748c315f29f633681bfe820df932b63a22cea37936cc64736f6c63430008040033",
    "sourcePath": "e:/trava-saver-main-core/trava-station-core/contracts/actions/liqee/LiqeePayback.sol",
    "compiler": {
        "name": "solc",
        "version": "0.8.4+commit.c7e474f2"
    },
    "functionHashes": {
        "NO_PARAM_MAPPING()": "2fa13cb8",
        "RETURN_MAX_INDEX_VALUE()": "9864dcdd",
        "RETURN_MIN_INDEX_VALUE()": "8bcb6216",
        "SUB_MAX_INDEX_VALUE()": "d3c2e7ed",
        "SUB_MIN_INDEX_VALUE()": "0f2eee42",
        "actionType()": "247492f8",
        "adminVault()": "8cedca71",
        "enterMarket(address)": "3fe5d425",
        "executeAction(bytes,bytes32[],uint8[],bytes32[])": "8df50f74",
        "executeActionDirect(bytes)": "389f87ff",
        "exitMarket(address)": "ede4edd0",
        "kill()": "41c0e1b5",
        "logger()": "f24ccbfe",
        "parseInputs(bytes)": "9093410d",
        "registry()": "7b103999",
        "withdrawStuckFunds(address,address,uint256)": "c579d490"
    },
    "gasEstimates": {
        "creation": {
            "codeDepositCost": "1330200",
            "executionCost": "1383",
            "totalCost": "1331583"
        },
        "external": {
            "NO_PARAM_MAPPING()": "261",
            "RETURN_MAX_INDEX_VALUE()": "282",
            "RETURN_MIN_INDEX_VALUE()": "282",
            "SUB_MAX_INDEX_VALUE()": "237",
            "SUB_MIN_INDEX_VALUE()": "217",
            "actionType()": "236",
            "adminVault()": "239",
            "enterMarket(address)": "infinite",
            "executeAction(bytes,bytes32[],uint8[],bytes32[])": "infinite",
            "executeActionDirect(bytes)": "infinite",
            "exitMarket(address)": "infinite",
            "kill()": "infinite",
            "logger()": "304",
            "parseInputs(bytes)": "infinite",
            "registry()": "283",
            "withdrawStuckFunds(address,address,uint256)": "infinite"
        },
        "internal": {
            "_payback(address,uint256,address,address)": "infinite"
        }
    }
}