{
    "contractName": "CreamHelper",
    "abi": [
        {
            "inputs": [],
            "name": "CreamEnterMarketError",
            "type": "error"
        },
        {
            "inputs": [],
            "name": "CreamExitMarketError",
            "type": "error"
        },
        {
            "inputs": [
                {
                    "internalType": "address",
                    "name": "_cTokenAddr",
                    "type": "address"
                }
            ],
            "name": "enterMarket",
            "outputs": [],
            "stateMutability": "nonpayable",
            "type": "function"
        },
        {
            "inputs": [
                {
                    "internalType": "address",
                    "name": "_cTokenAddr",
                    "type": "address"
                }
            ],
            "name": "exitMarket",
            "outputs": [],
            "stateMutability": "nonpayable",
            "type": "function"
        }
    ],
    "bytecode": "608060405234801561001057600080fd5b506103ef806100206000396000f3fe608060405234801561001057600080fd5b50600436106100365760003560e01c80633fe5d4251461003b578063ede4edd014610050575b600080fd5b61004e610049366004610250565b610063565b005b61004e61005e366004610250565b61019f565b6040805160018082528183019092526000916020808301908036833701905050905081816000815181106100a757634e487b7160e01b600052603260045260246000fd5b6001600160a01b0390921660209283029190910190910152604051631853304760e31b8152600090733d5bc3c8d13dcb8bf317092d84783c2697ae92589063c2998238906100f9908590600401610356565b600060405180830381600087803b15801561011357600080fd5b505af1158015610127573d6000803e3d6000fd5b505050506040513d6000823e601f3d908101601f1916820160405261014f919081019061027e565b905060008160008151811061017457634e487b7160e01b600052603260045260246000fd5b60200260200101511461019a576040516349319a1d60e11b815260040160405180910390fd5b505050565b604051630ede4edd60e41b81526001600160a01b0382166004820152600090733d5bc3c8d13dcb8bf317092d84783c2697ae92589063ede4edd090602401602060405180830381600087803b1580156101f757600080fd5b505af115801561020b573d6000803e3d6000fd5b505050506040513d601f19601f8201168201806040525081019061022f919061033e565b1461024d5760405163cd81ae7560e01b815260040160405180910390fd5b50565b600060208284031215610261578081fd5b81356001600160a01b0381168114610277578182fd5b9392505050565b60006020808385031215610290578182fd5b825167ffffffffffffffff808211156102a7578384fd5b818501915085601f8301126102ba578384fd5b8151818111156102cc576102cc6103a3565b8060051b604051601f19603f830116810181811085821117156102f1576102f16103a3565b604052828152858101935084860182860187018a101561030f578788fd5b8795505b83861015610331578051855260019590950194938601938601610313565b5098975050505050505050565b60006020828403121561034f578081fd5b5051919050565b6020808252825182820181905260009190848201906040850190845b818110156103975783516001600160a01b031683529284019291840191600101610372565b50909695505050505050565b634e487b7160e01b600052604160045260246000fdfea2646970667358221220f333aad388a5c7eff7efc16ab758a522a6707b35404c4ade7c45c44136037ec364736f6c63430008040033",
    "sourcePath": "e:/trava-saver-main-core/trava-station-core/contracts/actions/cream/helpers/CreamHelper.sol",
    "compiler": {
        "name": "solc",
        "version": "0.8.4+commit.c7e474f2"
    },
    "functionHashes": {
        "enterMarket(address)": "3fe5d425",
        "exitMarket(address)": "ede4edd0"
    },
    "gasEstimates": {
        "creation": {
            "codeDepositCost": "201400",
            "executionCost": "245",
            "totalCost": "201645"
        },
        "external": {
            "enterMarket(address)": "infinite",
            "exitMarket(address)": "infinite"
        },
        "internal": {
            "getUnderlyingAddr(address)": "infinite"
        }
    }
}