{
    "contractName": "AaveHelper",
    "abi": [
        {
            "inputs": [],
            "name": "DATA_PROVIDER_ID",
            "outputs": [
                {
                    "internalType": "bytes32",
                    "name": "",
                    "type": "bytes32"
                }
            ],
            "stateMutability": "view",
            "type": "function"
        },
        {
            "inputs": [],
            "name": "RADIANT_REFERRAL_CODE",
            "outputs": [
                {
                    "internalType": "uint16",
                    "name": "",
                    "type": "uint16"
                }
            ],
            "stateMutability": "view",
            "type": "function"
        },
        {
            "inputs": [
                {
                    "internalType": "address",
                    "name": "_market",
                    "type": "address"
                },
                {
                    "internalType": "address",
                    "name": "_tokenAddr",
                    "type": "address"
                },
                {
                    "internalType": "bool",
                    "name": "_useAsCollateral",
                    "type": "bool"
                }
            ],
            "name": "enableAsCollateral",
            "outputs": [],
            "stateMutability": "nonpayable",
            "type": "function"
        },
        {
            "inputs": [
                {
                    "internalType": "address",
                    "name": "_market",
                    "type": "address"
                },
                {
                    "internalType": "address",
                    "name": "_tokenAddr",
                    "type": "address"
                },
                {
                    "internalType": "uint256",
                    "name": "_rateMode",
                    "type": "uint256"
                }
            ],
            "name": "switchRateMode",
            "outputs": [],
            "stateMutability": "nonpayable",
            "type": "function"
        }
    ],
    "bytecode": "608060405234801561001057600080fd5b5061033e806100206000396000f3fe608060405234801561001057600080fd5b506004361061004c5760003560e01c8063b38ea01614610051578063bbd8c72e14610066578063daa6059914610086578063f1cb30881461009f575b600080fd5b61006461005f3660046102b0565b6100b2565b005b61006e604081565b60405161ffff90911681526020015b60405180910390f35b610091600160f81b81565b60405190815260200161007d565b6100646100ad366004610262565b610192565b6000836001600160a01b0316630261bf8b6040518163ffffffff1660e01b815260040160206040518083038186803b1580156100ed57600080fd5b505afa158015610101573d6000803e3d6000fd5b505050506040513d601f19601f82011682018060405250810190610125919061023f565b604051634a5d44d160e11b81526001600160a01b03858116600483015260248201859052919250908216906394ba89a2906044015b600060405180830381600087803b15801561017457600080fd5b505af1158015610188573d6000803e3d6000fd5b5050505050505050565b6000836001600160a01b0316630261bf8b6040518163ffffffff1660e01b815260040160206040518083038186803b1580156101cd57600080fd5b505afa1580156101e1573d6000803e3d6000fd5b505050506040513d601f19601f82011682018060405250810190610205919061023f565b604051635a3b74b960e01b81526001600160a01b038581166004830152841515602483015291925090821690635a3b74b99060440161015a565b600060208284031215610250578081fd5b815161025b816102f0565b9392505050565b600080600060608486031215610276578182fd5b8335610281816102f0565b92506020840135610291816102f0565b9150604084013580151581146102a5578182fd5b809150509250925092565b6000806000606084860312156102c4578283fd5b83356102cf816102f0565b925060208401356102df816102f0565b929592945050506040919091013590565b6001600160a01b038116811461030557600080fd5b5056fea264697066735822122008b7e044997d13624a3918129697b2326a4bcf0af00984f0fa43ff5beb1c8b6864736f6c63430008040033",
    "sourcePath": "e:/trava-saver-main-core/trava-station-core/contracts/actions/radiant/helpers/RadiantHelper.sol",
    "compiler": {
        "name": "solc",
        "version": "0.8.4+commit.c7e474f2"
    },
    "functionHashes": {
        "DATA_PROVIDER_ID()": "daa60599",
        "RADIANT_REFERRAL_CODE()": "bbd8c72e",
        "enableAsCollateral(address,address,bool)": "f1cb3088",
        "switchRateMode(address,address,uint256)": "b38ea016"
    },
    "gasEstimates": {
        "creation": {
            "codeDepositCost": "166000",
            "executionCost": "208",
            "totalCost": "166208"
        },
        "external": {
            "DATA_PROVIDER_ID()": "223",
            "RADIANT_REFERRAL_CODE()": "193",
            "enableAsCollateral(address,address,bool)": "infinite",
            "switchRateMode(address,address,uint256)": "infinite"
        },
        "internal": {
            "getLendingPool(address)": "infinite"
        }
    }
}