{
    "contractName": "RadiantHelper",
    "abi": [
        {
            "inputs": [],
            "name": "DATA_PROVIDER_ID",
            "outputs": [
                {
                    "internalType": "bytes32",
                    "name": "",
                    "type": "bytes32"
                }
            ],
            "stateMutability": "view",
            "type": "function"
        },
        {
            "inputs": [],
            "name": "RADIANT_REFERRAL_CODE",
            "outputs": [
                {
                    "internalType": "uint16",
                    "name": "",
                    "type": "uint16"
                }
            ],
            "stateMutability": "view",
            "type": "function"
        },
        {
            "inputs": [
                {
                    "internalType": "address",
                    "name": "_market",
                    "type": "address"
                },
                {
                    "internalType": "address",
                    "name": "_tokenAddr",
                    "type": "address"
                },
                {
                    "internalType": "bool",
                    "name": "_useAsCollateral",
                    "type": "bool"
                }
            ],
            "name": "enableAsCollateral",
            "outputs": [],
            "stateMutability": "nonpayable",
            "type": "function"
        }
    ],
    "bytecode": "608060405234801561001057600080fd5b50610233806100206000396000f3fe608060405234801561001057600080fd5b50600436106100415760003560e01c8063bbd8c72e14610046578063daa6059914610066578063f1cb30881461007f575b600080fd5b61004e604081565b60405161ffff90911681526020015b60405180910390f35b610071600160f81b81565b60405190815260200161005d565b61009261008d366004610197565b610094565b005b6000836001600160a01b0316630261bf8b6040518163ffffffff1660e01b815260040160206040518083038186803b1580156100cf57600080fd5b505afa1580156100e3573d6000803e3d6000fd5b505050506040513d601f19601f820116820180604052508101906101079190610174565b604051635a3b74b960e01b81526001600160a01b038581166004830152841515602483015291925090821690635a3b74b990604401600060405180830381600087803b15801561015657600080fd5b505af115801561016a573d6000803e3d6000fd5b5050505050505050565b600060208284031215610185578081fd5b8151610190816101e5565b9392505050565b6000806000606084860312156101ab578182fd5b83356101b6816101e5565b925060208401356101c6816101e5565b9150604084013580151581146101da578182fd5b809150509250925092565b6001600160a01b03811681146101fa57600080fd5b5056fea2646970667358221220c86e9417b4dc96d1968600cf04fb75e6e55b45cddb5ec16dd48db670a1a2166e64736f6c63430008040033",
    "sourcePath": "e:/trava-saver-main-core/trava-station-core/contracts/actions/radiant/helpers/RadiantHelper.sol",
    "compiler": {
        "name": "solc",
        "version": "0.8.4+commit.c7e474f2"
    },
    "functionHashes": {
        "DATA_PROVIDER_ID()": "daa60599",
        "RADIANT_REFERRAL_CODE()": "bbd8c72e",
        "enableAsCollateral(address,address,bool)": "f1cb3088"
    },
    "gasEstimates": {
        "creation": {
            "codeDepositCost": "112600",
            "executionCost": "159",
            "totalCost": "112759"
        },
        "external": {
            "DATA_PROVIDER_ID()": "201",
            "RADIANT_REFERRAL_CODE()": "171",
            "enableAsCollateral(address,address,bool)": "infinite"
        },
        "internal": {
            "getDataProvider(address)": "infinite",
            "getLendingPool(address)": "infinite",
            "getWholeDebt(address,address,uint256,address)": "infinite"
        }
    }
}