{
    "contractName": "CreamWithdraw",
    "abi": [
        {
            "inputs": [],
            "name": "CreamEnterMarketError",
            "type": "error"
        },
        {
            "inputs": [],
            "name": "CreamExitMarketError",
            "type": "error"
        },
        {
            "inputs": [],
            "name": "CreamRedeemError",
            "type": "error"
        },
        {
            "inputs": [],
            "name": "CreampUnderlyingRedeemError",
            "type": "error"
        },
        {
            "inputs": [],
            "name": "NonContractCall",
            "type": "error"
        },
        {
            "inputs": [],
            "name": "ReturnIndexValueError",
            "type": "error"
        },
        {
            "inputs": [],
            "name": "SenderNotAdmin",
            "type": "error"
        },
        {
            "inputs": [],
            "name": "SenderNotOwner",
            "type": "error"
        },
        {
            "inputs": [],
            "name": "SubIndexValueError",
            "type": "error"
        },
        {
            "anonymous": false,
            "inputs": [
                {
                    "indexed": true,
                    "internalType": "string",
                    "name": "logName",
                    "type": "string"
                },
                {
                    "indexed": false,
                    "internalType": "bytes",
                    "name": "data",
                    "type": "bytes"
                }
            ],
            "name": "ActionEvent",
            "type": "event"
        },
        {
            "inputs": [],
            "name": "NO_PARAM_MAPPING",
            "outputs": [
                {
                    "internalType": "uint8",
                    "name": "",
                    "type": "uint8"
                }
            ],
            "stateMutability": "view",
            "type": "function"
        },
        {
            "inputs": [],
            "name": "RETURN_MAX_INDEX_VALUE",
            "outputs": [
                {
                    "internalType": "uint8",
                    "name": "",
                    "type": "uint8"
                }
            ],
            "stateMutability": "view",
            "type": "function"
        },
        {
            "inputs": [],
            "name": "RETURN_MIN_INDEX_VALUE",
            "outputs": [
                {
                    "internalType": "uint8",
                    "name": "",
                    "type": "uint8"
                }
            ],
            "stateMutability": "view",
            "type": "function"
        },
        {
            "inputs": [],
            "name": "SUB_MAX_INDEX_VALUE",
            "outputs": [
                {
                    "internalType": "uint8",
                    "name": "",
                    "type": "uint8"
                }
            ],
            "stateMutability": "view",
            "type": "function"
        },
        {
            "inputs": [],
            "name": "SUB_MIN_INDEX_VALUE",
            "outputs": [
                {
                    "internalType": "uint8",
                    "name": "",
                    "type": "uint8"
                }
            ],
            "stateMutability": "view",
            "type": "function"
        },
        {
            "inputs": [],
            "name": "actionType",
            "outputs": [
                {
                    "internalType": "uint8",
                    "name": "",
                    "type": "uint8"
                }
            ],
            "stateMutability": "pure",
            "type": "function"
        },
        {
            "inputs": [],
            "name": "adminVault",
            "outputs": [
                {
                    "internalType": "contract AdminVault",
                    "name": "",
                    "type": "address"
                }
            ],
            "stateMutability": "view",
            "type": "function"
        },
        {
            "inputs": [
                {
                    "internalType": "address",
                    "name": "_cTokenAddr",
                    "type": "address"
                }
            ],
            "name": "enterMarket",
            "outputs": [],
            "stateMutability": "nonpayable",
            "type": "function"
        },
        {
            "inputs": [
                {
                    "internalType": "bytes",
                    "name": "_callData",
                    "type": "bytes"
                },
                {
                    "internalType": "bytes32[]",
                    "name": "_subData",
                    "type": "bytes32[]"
                },
                {
                    "internalType": "uint8[]",
                    "name": "_paramMapping",
                    "type": "uint8[]"
                },
                {
                    "internalType": "bytes32[]",
                    "name": "_returnValues",
                    "type": "bytes32[]"
                }
            ],
            "name": "executeAction",
            "outputs": [
                {
                    "internalType": "bytes32",
                    "name": "",
                    "type": "bytes32"
                }
            ],
            "stateMutability": "payable",
            "type": "function"
        },
        {
            "inputs": [
                {
                    "internalType": "bytes",
                    "name": "_callData",
                    "type": "bytes"
                }
            ],
            "name": "executeActionDirect",
            "outputs": [],
            "stateMutability": "payable",
            "type": "function"
        },
        {
            "inputs": [
                {
                    "internalType": "address",
                    "name": "_cTokenAddr",
                    "type": "address"
                }
            ],
            "name": "exitMarket",
            "outputs": [],
            "stateMutability": "nonpayable",
            "type": "function"
        },
        {
            "inputs": [],
            "name": "kill",
            "outputs": [],
            "stateMutability": "nonpayable",
            "type": "function"
        },
        {
            "inputs": [],
            "name": "logger",
            "outputs": [
                {
                    "internalType": "contract DefisaverLogger",
                    "name": "",
                    "type": "address"
                }
            ],
            "stateMutability": "view",
            "type": "function"
        },
        {
            "inputs": [
                {
                    "internalType": "bytes",
                    "name": "_callData",
                    "type": "bytes"
                }
            ],
            "name": "parseInputs",
            "outputs": [
                {
                    "components": [
                        {
                            "internalType": "address",
                            "name": "cTokenAddr",
                            "type": "address"
                        },
                        {
                            "internalType": "uint256",
                            "name": "amount",
                            "type": "uint256"
                        },
                        {
                            "internalType": "address",
                            "name": "to",
                            "type": "address"
                        }
                    ],
                    "internalType": "struct CreamWithdraw.Params",
                    "name": "params",
                    "type": "tuple"
                }
            ],
            "stateMutability": "pure",
            "type": "function"
        },
        {
            "inputs": [],
            "name": "registry",
            "outputs": [
                {
                    "internalType": "contract DFSRegistry",
                    "name": "",
                    "type": "address"
                }
            ],
            "stateMutability": "view",
            "type": "function"
        },
        {
            "inputs": [
                {
                    "internalType": "address",
                    "name": "_token",
                    "type": "address"
                },
                {
                    "internalType": "address",
                    "name": "_receiver",
                    "type": "address"
                },
                {
                    "internalType": "uint256",
                    "name": "_amount",
                    "type": "uint256"
                }
            ],
            "name": "withdrawStuckFunds",
            "outputs": [],
            "stateMutability": "nonpayable",
            "type": "function"
        }
    ],
    "bytecode": "608060405234801561001057600080fd5b50611892806100206000396000f3fe6080604052600436106100f35760003560e01c80638cedca711161008a578063c579d49011610059578063c579d4901461029a578063d3c2e7ed146102ba578063ede4edd0146102cf578063f24ccbfe146102ef57600080fd5b80638cedca71146101ec5780638df50f74146102145780639093410d146102355780639864dcdd1461028557600080fd5b80633fe5d425116100c65780633fe5d4251461016257806341c0e1b5146101825780637b103999146101975780638bcb6216146101d757600080fd5b80630f2eee42146100f8578063247492f8146101245780632fa13cb814610138578063389f87ff1461014d575b600080fd5b34801561010457600080fd5b5061010d608081565b60405160ff90911681526020015b60405180910390f35b34801561013057600080fd5b50600161010d565b34801561014457600080fd5b5061010d600081565b61016061015b3660046114c1565b610317565b005b34801561016e57600080fd5b5061016061017d366004611396565b6103af565b34801561018e57600080fd5b506101606104eb565b3480156101a357600080fd5b506101bf73147f157cb4e328e9c0db68dba5305fb7c29e732881565b6040516001600160a01b03909116815260200161011b565b3480156101e357600080fd5b5061010d600181565b3480156101f857600080fd5b506101bf73f30f1fdcc52e1774cbc84c57e11a538d6b1404aa81565b6102276102223660046114f4565b6105a4565b60405190815260200161011b565b34801561024157600080fd5b506102556102503660046114c1565b6106f4565b6040805182516001600160a01b03908116825260208085015190830152928201519092169082015260600161011b565b34801561029157600080fd5b5061010d607f81565b3480156102a657600080fd5b506101606102b53660046113ce565b610729565b3480156102c657600080fd5b5061010d60ff81565b3480156102db57600080fd5b506101606102ea366004611396565b610854565b3480156102fb57600080fd5b506101bf7337cfac15ede74f29fe164c460974bd61cc799eff81565b6000610322826106f4565b9050600061033d826000015183602001518460400151610905565b60405163f4b24b5560e01b81529092507337cfac15ede74f29fe164c460974bd61cc799eff915063f4b24b5590610378908490600401611729565b600060405180830381600087803b15801561039257600080fd5b505af11580156103a6573d6000803e3d6000fd5b50505050505050565b6040805160018082528183019092526000916020808301908036833701905050905081816000815181106103f357634e487b7160e01b600052603260045260246000fd5b6001600160a01b0390921660209283029190910190910152604051631853304760e31b8152600090733d5bc3c8d13dcb8bf317092d84783c2697ae92589063c2998238906104459085906004016116c9565b600060405180830381600087803b15801561045f57600080fd5b505af1158015610473573d6000803e3d6000fd5b505050506040513d6000823e601f3d908101601f1916820160405261049b919081019061140e565b90506000816000815181106104c057634e487b7160e01b600052603260045260246000fd5b6020026020010151146104e6576040516349319a1d60e11b815260040160405180910390fd5b505050565b336001600160a01b031673f30f1fdcc52e1774cbc84c57e11a538d6b1404aa6001600160a01b031663f851a4406040518163ffffffff1660e01b815260040160206040518083038186803b15801561054257600080fd5b505afa158015610556573d6000803e3d6000fd5b505050506040513d601f19601f8201168201806040525081019061057a91906113b2565b6001600160a01b0316146105a15760405163a6c827a960e01b815260040160405180910390fd5b33ff5b6000806105b0866106f4565b90506105ea8160000151856000815181106105db57634e487b7160e01b600052603260045260246000fd5b60200260200101518786610b88565b6001600160a01b031681526020810151845161063191908690600190811061062257634e487b7160e01b600052603260045260246000fd5b60200260200101518786610cb7565b8160200181815250506106638160400151856002815181106105db57634e487b7160e01b600052603260045260246000fd5b6001600160a01b03166040820181905281516020830151600092839261068a929091610905565b6040516c437265616d576974686472617760981b81529193509150600d0160405180910390207f2b6d22f419271bcc89bbac8deec947c664365d6e24d06fef0ca7c325c704dce3826040516106df9190611716565b60405180910390a2509150505b949350505050565b604080516060810182526000808252602080830182905292820152825190916107239184018101908401611601565b92915050565b336001600160a01b031673f30f1fdcc52e1774cbc84c57e11a538d6b1404aa6001600160a01b0316638da5cb5b6040518163ffffffff1660e01b815260040160206040518083038186803b15801561078057600080fd5b505afa158015610794573d6000803e3d6000fd5b505050506040513d601f19601f820116820180604052508101906107b891906113b2565b6001600160a01b0316146107df57604051630ca4a64560e11b815260040160405180910390fd5b73eeeeeeeeeeeeeeeeeeeeeeeeeeeeeeeeeeeeeeee6001600160a01b0384161415610840576040516001600160a01b0383169082156108fc029083906000818181858888f1935050505015801561083a573d6000803e3d6000fd5b50505050565b6104e66001600160a01b0384168383610d0d565b604051630ede4edd60e41b81526001600160a01b0382166004820152600090733d5bc3c8d13dcb8bf317092d84783c2697ae92589063ede4edd090602401602060405180830381600087803b1580156108ac57600080fd5b505af11580156108c0573d6000803e3d6000fd5b505050506040513d601f19601f820116820180604052508101906108e49190611669565b146109025760405163cd81ae7560e01b815260040160405180910390fd5b50565b60006060600061091486610d5f565b90506001600160a01b03811673ae13d989dac2f0debff460ac112a837c89baa7cd1415610952575073eeeeeeeeeeeeeeeeeeeeeeeeeeeeeeeeeeeeeeee5b60006109676001600160a01b03831630610e14565b9050600019861415610a29576109866001600160a01b03881630610e14565b60405163db006a7560e01b8152600481018290529096506000906001600160a01b0389169063db006a7590602401602060405180830381600087803b1580156109ce57600080fd5b505af11580156109e2573d6000803e3d6000fd5b505050506040513d601f19601f82011682018060405250810190610a069190611669565b14610a2457604051636d36fa4160e01b815260040160405180910390fd5b610ac4565b60405163852a12e360e01b8152600481018790526000906001600160a01b0389169063852a12e390602401602060405180830381600087803b158015610a6e57600080fd5b505af1158015610a82573d6000803e3d6000fd5b505050506040513d601f19601f82011682018060405250810190610aa69190611669565b14610ac45760405163067ae10160e01b815260040160405180910390fd5b6000610ad96001600160a01b03841630610e14565b9050610ae582826117b5565b96506001600160a01b03831673ae13d989dac2f0debff460ac112a837c89baa7cd1415610b2d57610b1587610ecc565b73eeeeeeeeeeeeeeeeeeeeeeeeeeeeeeeeeeeeeeee92505b610b416001600160a01b0384168789610f37565b50604080516001600160a01b038086166020830152918101899052908716606082015260009060800160408051808303601f19018152919052979997985050505050505050565b600060ff841615610cae57610b9c8461105f565b15610bde5781610bab8561107e565b60ff1681518110610bcc57634e487b7160e01b600052603260045260246000fd5b602002602001015160601c9450610cae565b8360ff1660fe1415610bf15750306106ec565b8360ff1660ff1415610c7557306001600160a01b0316638da5cb5b6040518163ffffffff1660e01b815260040160206040518083038186803b158015610c3657600080fd5b505afa158015610c4a573d6000803e3d6000fd5b505050506040513d601f19601f82011682018060405250810190610c6e91906113b2565b90506106ec565b82610c7f856110b1565b60ff1681518110610ca057634e487b7160e01b600052603260045260246000fd5b602002602001015160001c94505b50929392505050565b600060ff841615610cae57610ccb8461105f565b15610c755781610cda8561107e565b60ff1681518110610cfb57634e487b7160e01b600052603260045260246000fd5b602002602001015160001c9450610cae565b604080516001600160a01b038416602482015260448082018490528251808303909101815260649091019091526020810180516001600160e01b031663a9059cbb60e01b1790526104e69084906110e3565b60006001600160a01b038216731ffe17b99b439be0afc831239ddecda2a790ff3a1415610da1575073bb4cdb9cbd36b01bd1cbaebf2de08d9173bc095c919050565b816001600160a01b0316636f307dc36040518163ffffffff1660e01b8152600401602060405180830381600087803b158015610ddc57600080fd5b505af1158015610df0573d6000803e3d6000fd5b505050506040513d601f19601f8201168201806040525081019061072391906113b2565b60006001600160a01b03831673eeeeeeeeeeeeeeeeeeeeeeeeeeeeeeeeeeeeeeee1415610e4c57506001600160a01b03811631610723565b6040516370a0823160e01b81526001600160a01b0383811660048301528416906370a082319060240160206040518083038186803b158015610e8d57600080fd5b505afa158015610ea1573d6000803e3d6000fd5b505050506040513d601f19601f82011682018060405250810190610ec59190611669565b9392505050565b73ae13d989dac2f0debff460ac112a837c89baa7cd6001600160a01b031663d0e30db0826040518263ffffffff1660e01b81526004016000604051808303818588803b158015610f1b57600080fd5b505af1158015610f2f573d6000803e3d6000fd5b505050505050565b6000600019821415610f5057610f4d8430610e14565b91505b6001600160a01b03831615801590610f7157506001600160a01b0383163014155b8015610f7c57508115155b15611058576001600160a01b03841673eeeeeeeeeeeeeeeeeeeeeeeeeeeeeeeeeeeeeeee14610fbe57610fb96001600160a01b0385168484610d0d565b611058565b6000836001600160a01b03168360405160006040518083038185875af1925050503d806000811461100b576040519150601f19603f3d011682016040523d82523d6000602084013e611010565b606091505b50509050806110565760405162461bcd60e51b815260206004820152600d60248201526c115d1a081cd95b990819985a5b609a1b60448201526064015b60405180910390fd5b505b5092915050565b6000600160ff8316108015906107235750607f60ff8316111592915050565b60006110898261105f565b6110a65760405163dcc95a3960e01b815260040160405180910390fd5b6107236001836117cc565b6000608060ff831610156110d85760405163866f6e8760e01b815260040160405180910390fd5b6107236080836117cc565b6000611138826040518060400160405280602081526020017f5361666545524332303a206c6f772d6c6576656c2063616c6c206661696c6564815250856001600160a01b03166111b59092919063ffffffff16565b8051909150156104e6578080602001905181019061115691906114a1565b6104e65760405162461bcd60e51b815260206004820152602a60248201527f5361666545524332303a204552433230206f7065726174696f6e20646964206e6044820152691bdd081cdd58d8d9595960b21b606482015260840161104d565b60606106ec848460008560606111ca85611283565b6111e75760405163304619b560e01b815260040160405180910390fd5b600080866001600160a01b0316858760405161120391906116ad565b60006040518083038185875af1925050503d8060008114611240576040519150601f19603f3d011682016040523d82523d6000602084013e611245565b606091505b509150915081156112595791506106ec9050565b8051156112695780518082602001fd5b8360405162461bcd60e51b815260040161104d9190611716565b6000813f7fc5d2460186f7233c927e7db2dcc703c0e500b653ca82273b7bfad8045d85a4708181148015906106ec575050151592915050565b600082601f8301126112cc578081fd5b813560206112e16112dc83611791565b611760565b80838252828201915082860187848660051b8901011115611300578586fd5b855b8581101561131e57813584529284019290840190600101611302565b5090979650505050505050565b600082601f83011261133b578081fd5b813567ffffffffffffffff81111561135557611355611831565b611368601f8201601f1916602001611760565b81815284602083860101111561137c578283fd5b816020850160208301379081016020019190915292915050565b6000602082840312156113a7578081fd5b8135610ec581611847565b6000602082840312156113c3578081fd5b8151610ec581611847565b6000806000606084860312156113e2578182fd5b83356113ed81611847565b925060208401356113fd81611847565b929592945050506040919091013590565b60006020808385031215611420578182fd5b825167ffffffffffffffff811115611436578283fd5b8301601f81018513611446578283fd5b80516114546112dc82611791565b80828252848201915084840188868560051b8701011115611473578687fd5b8694505b83851015611495578051835260019490940193918501918501611477565b50979650505050505050565b6000602082840312156114b2578081fd5b81518015158114610ec5578182fd5b6000602082840312156114d2578081fd5b813567ffffffffffffffff8111156114e8578182fd5b6106ec8482850161132b565b60008060008060808587031215611509578081fd5b843567ffffffffffffffff80821115611520578283fd5b61152c8883890161132b565b9550602091508187013581811115611542578384fd5b61154e89828a016112bc565b955050604087013581811115611562578384fd5b8701601f81018913611572578384fd5b80356115806112dc82611791565b8082825285820191508584018c878560051b870101111561159f578788fd5b8794505b838510156115cf57803560ff811681146115bb578889fd5b8352600194909401939186019186016115a3565b50965050505060608701359150808211156115e8578283fd5b506115f5878288016112bc565b91505092959194509250565b600060608284031215611612578081fd5b6040516060810181811067ffffffffffffffff8211171561163557611635611831565b604052825161164381611847565b815260208381015190820152604083015161165d81611847565b60408201529392505050565b60006020828403121561167a578081fd5b5051919050565b600081518084526116998160208601602086016117ef565b601f01601f19169290920160200192915050565b600082516116bf8184602087016117ef565b9190910192915050565b6020808252825182820181905260009190848201906040850190845b8181101561170a5783516001600160a01b0316835292840192918401916001016116e5565b50909695505050505050565b602081526000610ec56020830184611681565b60408152600d60408201526c56656e7573576974686472617760981b6060820152608060208201526000610ec56080830184611681565b604051601f8201601f1916810167ffffffffffffffff8111828210171561178957611789611831565b604052919050565b600067ffffffffffffffff8211156117ab576117ab611831565b5060051b60200190565b6000828210156117c7576117c761181b565b500390565b600060ff821660ff8416808210156117e6576117e661181b565b90039392505050565b60005b8381101561180a5781810151838201526020016117f2565b8381111561083a5750506000910152565b634e487b7160e01b600052601160045260246000fd5b634e487b7160e01b600052604160045260246000fd5b6001600160a01b038116811461090257600080fdfea26469706673582212208c344482586de96d6b5163bf4111088d373eb7a696a746df335664dda5ec887664736f6c63430008040033",
    "sourcePath": "e:/trava-saver-main-core/trava-station-core/contracts/actions/cream/CreamWithdraw.sol",
    "compiler": {
        "name": "solc",
        "version": "0.8.4+commit.c7e474f2"
    },
    "functionHashes": {
        "NO_PARAM_MAPPING()": "2fa13cb8",
        "RETURN_MAX_INDEX_VALUE()": "9864dcdd",
        "RETURN_MIN_INDEX_VALUE()": "8bcb6216",
        "SUB_MAX_INDEX_VALUE()": "d3c2e7ed",
        "SUB_MIN_INDEX_VALUE()": "0f2eee42",
        "actionType()": "247492f8",
        "adminVault()": "8cedca71",
        "enterMarket(address)": "3fe5d425",
        "executeAction(bytes,bytes32[],uint8[],bytes32[])": "8df50f74",
        "executeActionDirect(bytes)": "389f87ff",
        "exitMarket(address)": "ede4edd0",
        "kill()": "41c0e1b5",
        "logger()": "f24ccbfe",
        "parseInputs(bytes)": "9093410d",
        "registry()": "7b103999",
        "withdrawStuckFunds(address,address,uint256)": "c579d490"
    },
    "gasEstimates": {
        "creation": {
            "codeDepositCost": "1258000",
            "executionCost": "1308",
            "totalCost": "1259308"
        },
        "external": {
            "NO_PARAM_MAPPING()": "261",
            "RETURN_MAX_INDEX_VALUE()": "282",
            "RETURN_MIN_INDEX_VALUE()": "282",
            "SUB_MAX_INDEX_VALUE()": "237",
            "SUB_MIN_INDEX_VALUE()": "217",
            "actionType()": "236",
            "adminVault()": "239",
            "enterMarket(address)": "infinite",
            "executeAction(bytes,bytes32[],uint8[],bytes32[])": "infinite",
            "executeActionDirect(bytes)": "infinite",
            "exitMarket(address)": "infinite",
            "kill()": "infinite",
            "logger()": "304",
            "parseInputs(bytes)": "infinite",
            "registry()": "283",
            "withdrawStuckFunds(address,address,uint256)": "infinite"
        },
        "internal": {
            "_withdraw(address,uint256,address)": "infinite"
        }
    }
}