{
    "contractName": "GranaryBorrow",
    "abi": [
        {
            "inputs": [],
            "name": "NonContractCall",
            "type": "error"
        },
        {
            "inputs": [],
            "name": "ReturnIndexValueError",
            "type": "error"
        },
        {
            "inputs": [],
            "name": "SenderNotAdmin",
            "type": "error"
        },
        {
            "inputs": [],
            "name": "SenderNotOwner",
            "type": "error"
        },
        {
            "inputs": [],
            "name": "SubIndexValueError",
            "type": "error"
        },
        {
            "anonymous": false,
            "inputs": [
                {
                    "indexed": true,
                    "internalType": "string",
                    "name": "logName",
                    "type": "string"
                },
                {
                    "indexed": false,
                    "internalType": "bytes",
                    "name": "data",
                    "type": "bytes"
                }
            ],
            "name": "ActionEvent",
            "type": "event"
        },
        {
            "inputs": [],
            "name": "DATA_PROVIDER_ID",
            "outputs": [
                {
                    "internalType": "bytes32",
                    "name": "",
                    "type": "bytes32"
                }
            ],
            "stateMutability": "view",
            "type": "function"
        },
        {
            "inputs": [],
            "name": "GRANARY_REFERRAL_CODE",
            "outputs": [
                {
                    "internalType": "uint16",
                    "name": "",
                    "type": "uint16"
                }
            ],
            "stateMutability": "view",
            "type": "function"
        },
        {
            "inputs": [],
            "name": "NO_PARAM_MAPPING",
            "outputs": [
                {
                    "internalType": "uint8",
                    "name": "",
                    "type": "uint8"
                }
            ],
            "stateMutability": "view",
            "type": "function"
        },
        {
            "inputs": [],
            "name": "RETURN_MAX_INDEX_VALUE",
            "outputs": [
                {
                    "internalType": "uint8",
                    "name": "",
                    "type": "uint8"
                }
            ],
            "stateMutability": "view",
            "type": "function"
        },
        {
            "inputs": [],
            "name": "RETURN_MIN_INDEX_VALUE",
            "outputs": [
                {
                    "internalType": "uint8",
                    "name": "",
                    "type": "uint8"
                }
            ],
            "stateMutability": "view",
            "type": "function"
        },
        {
            "inputs": [],
            "name": "SUB_MAX_INDEX_VALUE",
            "outputs": [
                {
                    "internalType": "uint8",
                    "name": "",
                    "type": "uint8"
                }
            ],
            "stateMutability": "view",
            "type": "function"
        },
        {
            "inputs": [],
            "name": "SUB_MIN_INDEX_VALUE",
            "outputs": [
                {
                    "internalType": "uint8",
                    "name": "",
                    "type": "uint8"
                }
            ],
            "stateMutability": "view",
            "type": "function"
        },
        {
            "inputs": [],
            "name": "actionType",
            "outputs": [
                {
                    "internalType": "uint8",
                    "name": "",
                    "type": "uint8"
                }
            ],
            "stateMutability": "pure",
            "type": "function"
        },
        {
            "inputs": [],
            "name": "adminVault",
            "outputs": [
                {
                    "internalType": "contract AdminVault",
                    "name": "",
                    "type": "address"
                }
            ],
            "stateMutability": "view",
            "type": "function"
        },
        {
            "inputs": [
                {
                    "internalType": "address",
                    "name": "_market",
                    "type": "address"
                },
                {
                    "internalType": "address",
                    "name": "_tokenAddr",
                    "type": "address"
                },
                {
                    "internalType": "bool",
                    "name": "_useAsCollateral",
                    "type": "bool"
                }
            ],
            "name": "enableAsCollateral",
            "outputs": [],
            "stateMutability": "nonpayable",
            "type": "function"
        },
        {
            "inputs": [
                {
                    "internalType": "bytes",
                    "name": "_callData",
                    "type": "bytes"
                },
                {
                    "internalType": "bytes32[]",
                    "name": "_subData",
                    "type": "bytes32[]"
                },
                {
                    "internalType": "uint8[]",
                    "name": "_paramMapping",
                    "type": "uint8[]"
                },
                {
                    "internalType": "bytes32[]",
                    "name": "_returnValues",
                    "type": "bytes32[]"
                }
            ],
            "name": "executeAction",
            "outputs": [
                {
                    "internalType": "bytes32",
                    "name": "",
                    "type": "bytes32"
                }
            ],
            "stateMutability": "payable",
            "type": "function"
        },
        {
            "inputs": [
                {
                    "internalType": "bytes",
                    "name": "_callData",
                    "type": "bytes"
                }
            ],
            "name": "executeActionDirect",
            "outputs": [],
            "stateMutability": "payable",
            "type": "function"
        },
        {
            "inputs": [],
            "name": "kill",
            "outputs": [],
            "stateMutability": "nonpayable",
            "type": "function"
        },
        {
            "inputs": [],
            "name": "logger",
            "outputs": [
                {
                    "internalType": "contract DefisaverLogger",
                    "name": "",
                    "type": "address"
                }
            ],
            "stateMutability": "view",
            "type": "function"
        },
        {
            "inputs": [
                {
                    "internalType": "bytes",
                    "name": "_callData",
                    "type": "bytes"
                }
            ],
            "name": "parseInputs",
            "outputs": [
                {
                    "components": [
                        {
                            "internalType": "address",
                            "name": "market",
                            "type": "address"
                        },
                        {
                            "internalType": "address",
                            "name": "tokenAddr",
                            "type": "address"
                        },
                        {
                            "internalType": "uint256",
                            "name": "amount",
                            "type": "uint256"
                        },
                        {
                            "internalType": "uint256",
                            "name": "rateMode",
                            "type": "uint256"
                        },
                        {
                            "internalType": "address",
                            "name": "to",
                            "type": "address"
                        },
                        {
                            "internalType": "address",
                            "name": "onBehalf",
                            "type": "address"
                        }
                    ],
                    "internalType": "struct GranaryBorrow.Params",
                    "name": "params",
                    "type": "tuple"
                }
            ],
            "stateMutability": "pure",
            "type": "function"
        },
        {
            "inputs": [],
            "name": "registry",
            "outputs": [
                {
                    "internalType": "contract DFSRegistry",
                    "name": "",
                    "type": "address"
                }
            ],
            "stateMutability": "view",
            "type": "function"
        },
        {
            "inputs": [
                {
                    "internalType": "address",
                    "name": "_token",
                    "type": "address"
                },
                {
                    "internalType": "address",
                    "name": "_receiver",
                    "type": "address"
                },
                {
                    "internalType": "uint256",
                    "name": "_amount",
                    "type": "uint256"
                }
            ],
            "name": "withdrawStuckFunds",
            "outputs": [],
            "stateMutability": "nonpayable",
            "type": "function"
        }
    ],
    "bytecode": "608060405234801561001057600080fd5b506117e1806100206000396000f3fe6080604052600436106100fe5760003560e01c80638df50f7411610095578063cfcd924c11610064578063cfcd924c146102cc578063d3c2e7ed146102f4578063daa6059914610309578063f1cb308814610321578063f24ccbfe1461034157600080fd5b80638df50f74146101ff5780639093410d146102205780639864dcdd14610297578063c579d490146102ac57600080fd5b806341c0e1b5116100d157806341c0e1b51461016d5780637b103999146101825780638bcb6216146101c25780638cedca71146101d757600080fd5b80630f2eee4214610103578063247492f81461012f5780632fa13cb814610143578063389f87ff14610158575b600080fd5b34801561010f57600080fd5b50610118608081565b60405160ff90911681526020015b60405180910390f35b34801561013b57600080fd5b506001610118565b34801561014f57600080fd5b50610118600081565b61016b61016636600461143b565b610369565b005b34801561017957600080fd5b5061016b610410565b34801561018e57600080fd5b506101aa73147f157cb4e328e9c0db68dba5305fb7c29e732881565b6040516001600160a01b039091168152602001610126565b3480156101ce57600080fd5b50610118600181565b3480156101e357600080fd5b506101aa73f30f1fdcc52e1774cbc84c57e11a538d6b1404aa81565b61021261020d36600461146e565b6104c9565b604051908152602001610126565b34801561022c57600080fd5b5061024061023b36600461143b565b6106d6565b604051610126919081516001600160a01b039081168252602080840151821690830152604080840151908301526060808401519083015260808084015182169083015260a092830151169181019190915260c00190565b3480156102a357600080fd5b50610118607f81565b3480156102b857600080fd5b5061016b6102c73660046113df565b610720565b3480156102d857600080fd5b506102e1604081565b60405161ffff9091168152602001610126565b34801561030057600080fd5b5061011860ff81565b34801561031557600080fd5b50610212600160f81b81565b34801561032d57600080fd5b5061016b61033c366004611395565b610850565b34801561034d57600080fd5b506101aa7337cfac15ede74f29fe164c460974bd61cc799eff81565b6000610374826106d6565b9050600061039e826000015183602001518460400151856060015186608001518760a00151610930565b60405163f4b24b5560e01b81529092507337cfac15ede74f29fe164c460974bd61cc799eff915063f4b24b55906103d9908490600401611688565b600060405180830381600087803b1580156103f357600080fd5b505af1158015610407573d6000803e3d6000fd5b50505050505050565b336001600160a01b031673f30f1fdcc52e1774cbc84c57e11a538d6b1404aa6001600160a01b031663f851a4406040518163ffffffff1660e01b815260040160206040518083038186803b15801561046757600080fd5b505afa15801561047b573d6000803e3d6000fd5b505050506040513d601f19601f8201168201806040525081019061049f9190611379565b6001600160a01b0316146104c65760405163a6c827a960e01b815260040160405180910390fd5b33ff5b6000806104d5866106d6565b905061050f81600001518560008151811061050057634e487b7160e01b600052603260045260246000fd5b60200260200101518786610a3a565b6001600160a01b031681526020810151845161054791908690600190811061050057634e487b7160e01b600052603260045260246000fd5b6001600160a01b031660208201526040810151845161059191908690600290811061058257634e487b7160e01b600052603260045260246000fd5b60200260200101518786610b69565b8160400181815250506105c381606001518560038151811061058257634e487b7160e01b600052603260045260246000fd5b8160600181815250506105f581608001518560048151811061050057634e487b7160e01b600052603260045260246000fd5b6001600160a01b0316608082015260a0810151845161063091908690600590811061050057634e487b7160e01b600052603260045260246000fd5b6001600160a01b031660a0820181905281516020830151604084015160608501516080860151600095869561066c959094909390929091610930565b6040516c4772616e617279426f72726f7760981b81529193509150600d0160405180910390207f2b6d22f419271bcc89bbac8deec947c664365d6e24d06fef0ca7c325c704dce3826040516106c19190611675565b60405180910390a2509150505b949350505050565b6040805160c08101825260008082526020808301829052928201819052606082018190526080820181905260a08201528251909161071a918401810190840161157b565b92915050565b336001600160a01b031673f30f1fdcc52e1774cbc84c57e11a538d6b1404aa6001600160a01b0316638da5cb5b6040518163ffffffff1660e01b815260040160206040518083038186803b15801561077757600080fd5b505afa15801561078b573d6000803e3d6000fd5b505050506040513d601f19601f820116820180604052508101906107af9190611379565b6001600160a01b0316146107d657604051630ca4a64560e11b815260040160405180910390fd5b73eeeeeeeeeeeeeeeeeeeeeeeeeeeeeeeeeeeeeeee6001600160a01b0384161415610837576040516001600160a01b0383169082156108fc029083906000818181858888f19350505050158015610831573d6000803e3d6000fd5b50505050565b61084b6001600160a01b0384168383610bbf565b505050565b6000836001600160a01b0316630261bf8b6040518163ffffffff1660e01b815260040160206040518083038186803b15801561088b57600080fd5b505afa15801561089f573d6000803e3d6000fd5b505050506040513d601f19601f820116820180604052508101906108c39190611379565b604051635a3b74b960e01b81526001600160a01b038581166004830152841515602483015291925090821690635a3b74b990604401600060405180830381600087803b15801561091257600080fd5b505af1158015610926573d6000803e3d6000fd5b5050505050505050565b60006060600061093f89610c11565b90506001600160a01b038416610953573093505b6040805163a415bcad60e01b81526001600160a01b038a81166004830152602482018a905260448201899052606482019290925285821660848201529082169063a415bcad9060a401600060405180830381600087803b1580156109b657600080fd5b505af11580156109ca573d6000803e3d6000fd5b506109e3925050506001600160a01b0389168689610c84565b604080516001600160a01b039b8c166020820152998b168a82015260608a0182905260808a019790975294891660a089015250505090941660c0808501919091528151808503909101815260e09093019052509091565b600060ff841615610b6057610a4e84610dac565b15610a905781610a5d85610dcb565b60ff1681518110610a7e57634e487b7160e01b600052603260045260246000fd5b602002602001015160601c9450610b60565b8360ff1660fe1415610aa35750306106ce565b8360ff1660ff1415610b2757306001600160a01b0316638da5cb5b6040518163ffffffff1660e01b815260040160206040518083038186803b158015610ae857600080fd5b505afa158015610afc573d6000803e3d6000fd5b505050506040513d601f19601f82011682018060405250810190610b209190611379565b90506106ce565b82610b3185610dfe565b60ff1681518110610b5257634e487b7160e01b600052603260045260246000fd5b602002602001015160001c94505b50929392505050565b600060ff841615610b6057610b7d84610dac565b15610b275781610b8c85610dcb565b60ff1681518110610bad57634e487b7160e01b600052603260045260246000fd5b602002602001015160001c9450610b60565b604080516001600160a01b038416602482015260448082018490528251808303909101815260649091019091526020810180516001600160e01b031663a9059cbb60e01b17905261084b908490610e30565b6000816001600160a01b0316630261bf8b6040518163ffffffff1660e01b815260040160206040518083038186803b158015610c4c57600080fd5b505afa158015610c60573d6000803e3d6000fd5b505050506040513d601f19601f8201168201806040525081019061071a9190611379565b6000600019821415610c9d57610c9a8430610f02565b91505b6001600160a01b03831615801590610cbe57506001600160a01b0383163014155b8015610cc957508115155b15610da5576001600160a01b03841673eeeeeeeeeeeeeeeeeeeeeeeeeeeeeeeeeeeeeeee14610d0b57610d066001600160a01b0385168484610fba565b610da5565b6000836001600160a01b03168360405160006040518083038185875af1925050503d8060008114610d58576040519150601f19603f3d011682016040523d82523d6000602084013e610d5d565b606091505b5050905080610da35760405162461bcd60e51b815260206004820152600d60248201526c115d1a081cd95b990819985a5b609a1b60448201526064015b60405180910390fd5b505b5092915050565b6000600160ff83161080159061071a5750607f60ff8316111592915050565b6000610dd682610dac565b610df35760405163dcc95a3960e01b815260040160405180910390fd5b61071a600183611714565b6000608060ff83161015610e255760405163866f6e8760e01b815260040160405180910390fd5b61071a608083611714565b6000610e85826040518060400160405280602081526020017f5361666545524332303a206c6f772d6c6576656c2063616c6c206661696c6564815250856001600160a01b031661100c9092919063ffffffff16565b80519091501561084b5780806020019051810190610ea3919061141f565b61084b5760405162461bcd60e51b815260206004820152602a60248201527f5361666545524332303a204552433230206f7065726174696f6e20646964206e6044820152691bdd081cdd58d8d9595960b21b6064820152608401610d9a565b60006001600160a01b03831673eeeeeeeeeeeeeeeeeeeeeeeeeeeeeeeeeeeeeeee1415610f3a57506001600160a01b0381163161071a565b6040516370a0823160e01b81526001600160a01b0383811660048301528416906370a082319060240160206040518083038186803b158015610f7b57600080fd5b505afa158015610f8f573d6000803e3d6000fd5b505050506040513d601f19601f82011682018060405250810190610fb39190611615565b9392505050565b604080516001600160a01b038416602482015260448082018490528251808303909101815260649091019091526020810180516001600160e01b031663a9059cbb60e01b17905261084b90849061101b565b60606106ce84846000856111a2565b61102d826001600160a01b0316611266565b6110795760405162461bcd60e51b815260206004820152601f60248201527f5361666542455032303a2063616c6c20746f206e6f6e2d636f6e7472616374006044820152606401610d9a565b600080836001600160a01b0316836040516110949190611659565b6000604051808303816000865af19150503d80600081146110d1576040519150601f19603f3d011682016040523d82523d6000602084013e6110d6565b606091505b5091509150816111285760405162461bcd60e51b815260206004820181905260248201527f5361666542455032303a206c6f772d6c6576656c2063616c6c206661696c65646044820152606401610d9a565b8051156108315780806020019051810190611143919061141f565b6108315760405162461bcd60e51b815260206004820152602a60248201527f5361666542455032303a204245503230206f7065726174696f6e20646964206e6044820152691bdd081cdd58d8d9595960b21b6064820152608401610d9a565b60606111ad85611266565b6111ca5760405163304619b560e01b815260040160405180910390fd5b600080866001600160a01b031685876040516111e69190611659565b60006040518083038185875af1925050503d8060008114611223576040519150601f19603f3d011682016040523d82523d6000602084013e611228565b606091505b5091509150811561123c5791506106ce9050565b80511561124c5780518082602001fd5b8360405162461bcd60e51b8152600401610d9a9190611675565b6000813f7fc5d2460186f7233c927e7db2dcc703c0e500b653ca82273b7bfad8045d85a4708181148015906106ce575050151592915050565b600082601f8301126112af578081fd5b813560206112c46112bf836116f0565b6116bf565b80838252828201915082860187848660051b89010111156112e3578586fd5b855b85811015611301578135845292840192908401906001016112e5565b5090979650505050505050565b600082601f83011261131e578081fd5b813567ffffffffffffffff8111156113385761133861176f565b61134b601f8201601f19166020016116bf565b81815284602083860101111561135f578283fd5b816020850160208301379081016020019190915292915050565b60006020828403121561138a578081fd5b8151610fb381611785565b6000806000606084860312156113a9578182fd5b83356113b481611785565b925060208401356113c481611785565b915060408401356113d48161179d565b809150509250925092565b6000806000606084860312156113f3578283fd5b83356113fe81611785565b9250602084013561140e81611785565b929592945050506040919091013590565b600060208284031215611430578081fd5b8151610fb38161179d565b60006020828403121561144c578081fd5b813567ffffffffffffffff811115611462578182fd5b6106ce8482850161130e565b60008060008060808587031215611483578081fd5b843567ffffffffffffffff8082111561149a578283fd5b6114a68883890161130e565b95506020915081870135818111156114bc578384fd5b6114c889828a0161129f565b9550506040870135818111156114dc578384fd5b8701601f810189136114ec578384fd5b80356114fa6112bf826116f0565b8082825285820191508584018c878560051b8701011115611519578788fd5b8794505b8385101561154957803560ff81168114611535578889fd5b83526001949094019391860191860161151d565b5096505050506060870135915080821115611562578283fd5b5061156f8782880161129f565b91505092959194509250565b600060c0828403121561158c578081fd5b60405160c0810181811067ffffffffffffffff821117156115af576115af61176f565b60405282516115bd81611785565b815260208301516115cd81611785565b80602083015250604083015160408201526060830151606082015260808301516115f681611785565b608082015260a083015161160981611785565b60a08201529392505050565b600060208284031215611626578081fd5b5051919050565b60008151808452611645816020860160208601611743565b601f01601f19169290920160200192915050565b6000825161166b818460208701611743565b9190910192915050565b602081526000610fb3602083018461162d565b60408152600d60408201526c52616469616e74426f72726f7760981b6060820152608060208201526000610fb3608083018461162d565b604051601f8201601f1916810167ffffffffffffffff811182821017156116e8576116e861176f565b604052919050565b600067ffffffffffffffff82111561170a5761170a61176f565b5060051b60200190565b600060ff821660ff84168082101561173a57634e487b7160e01b83526011600452602483fd5b90039392505050565b60005b8381101561175e578181015183820152602001611746565b838111156108315750506000910152565b634e487b7160e01b600052604160045260246000fd5b6001600160a01b038116811461179a57600080fd5b50565b801515811461179a57600080fdfea264697066735822122060c69db889cc75535d7b42410735211f47ab0f41bf35d64ea625e2b3b642c0fb64736f6c63430008040033",
    "sourcePath": "e:/trava-saver-main-core/trava-station-core/contracts/actions/granary/GranaryBorrow.sol",
    "compiler": {
        "name": "solc",
        "version": "0.8.4+commit.c7e474f2"
    },
    "functionHashes": {
        "DATA_PROVIDER_ID()": "daa60599",
        "GRANARY_REFERRAL_CODE()": "cfcd924c",
        "NO_PARAM_MAPPING()": "2fa13cb8",
        "RETURN_MAX_INDEX_VALUE()": "9864dcdd",
        "RETURN_MIN_INDEX_VALUE()": "8bcb6216",
        "SUB_MAX_INDEX_VALUE()": "d3c2e7ed",
        "SUB_MIN_INDEX_VALUE()": "0f2eee42",
        "actionType()": "247492f8",
        "adminVault()": "8cedca71",
        "enableAsCollateral(address,address,bool)": "f1cb3088",
        "executeAction(bytes,bytes32[],uint8[],bytes32[])": "8df50f74",
        "executeActionDirect(bytes)": "389f87ff",
        "kill()": "41c0e1b5",
        "logger()": "f24ccbfe",
        "parseInputs(bytes)": "9093410d",
        "registry()": "7b103999",
        "withdrawStuckFunds(address,address,uint256)": "c579d490"
    },
    "gasEstimates": {
        "creation": {
            "codeDepositCost": "1222600",
            "executionCost": "1275",
            "totalCost": "1223875"
        },
        "external": {
            "DATA_PROVIDER_ID()": "267",
            "GRANARY_REFERRAL_CODE()": "226",
            "NO_PARAM_MAPPING()": "261",
            "RETURN_MAX_INDEX_VALUE()": "260",
            "RETURN_MIN_INDEX_VALUE()": "260",
            "SUB_MAX_INDEX_VALUE()": "237",
            "SUB_MIN_INDEX_VALUE()": "217",
            "actionType()": "236",
            "adminVault()": "305",
            "enableAsCollateral(address,address,bool)": "infinite",
            "executeAction(bytes,bytes32[],uint8[],bytes32[])": "infinite",
            "executeActionDirect(bytes)": "infinite",
            "kill()": "infinite",
            "logger()": "326",
            "parseInputs(bytes)": "infinite",
            "registry()": "261",
            "withdrawStuckFunds(address,address,uint256)": "infinite"
        },
        "internal": {
            "_borrow(address,address,uint256,uint256,address,address)": "infinite"
        }
    }
}