{
    "contractName": "GranaryWithdraw",
    "abi": [
        {
            "inputs": [],
            "name": "NonContractCall",
            "type": "error"
        },
        {
            "inputs": [],
            "name": "ReturnIndexValueError",
            "type": "error"
        },
        {
            "inputs": [],
            "name": "SenderNotAdmin",
            "type": "error"
        },
        {
            "inputs": [],
            "name": "SenderNotOwner",
            "type": "error"
        },
        {
            "inputs": [],
            "name": "SubIndexValueError",
            "type": "error"
        },
        {
            "anonymous": false,
            "inputs": [
                {
                    "indexed": true,
                    "internalType": "string",
                    "name": "logName",
                    "type": "string"
                },
                {
                    "indexed": false,
                    "internalType": "bytes",
                    "name": "data",
                    "type": "bytes"
                }
            ],
            "name": "ActionEvent",
            "type": "event"
        },
        {
            "inputs": [],
            "name": "DATA_PROVIDER_ID",
            "outputs": [
                {
                    "internalType": "bytes32",
                    "name": "",
                    "type": "bytes32"
                }
            ],
            "stateMutability": "view",
            "type": "function"
        },
        {
            "inputs": [],
            "name": "GRANARY_REFERRAL_CODE",
            "outputs": [
                {
                    "internalType": "uint16",
                    "name": "",
                    "type": "uint16"
                }
            ],
            "stateMutability": "view",
            "type": "function"
        },
        {
            "inputs": [],
            "name": "NO_PARAM_MAPPING",
            "outputs": [
                {
                    "internalType": "uint8",
                    "name": "",
                    "type": "uint8"
                }
            ],
            "stateMutability": "view",
            "type": "function"
        },
        {
            "inputs": [],
            "name": "RETURN_MAX_INDEX_VALUE",
            "outputs": [
                {
                    "internalType": "uint8",
                    "name": "",
                    "type": "uint8"
                }
            ],
            "stateMutability": "view",
            "type": "function"
        },
        {
            "inputs": [],
            "name": "RETURN_MIN_INDEX_VALUE",
            "outputs": [
                {
                    "internalType": "uint8",
                    "name": "",
                    "type": "uint8"
                }
            ],
            "stateMutability": "view",
            "type": "function"
        },
        {
            "inputs": [],
            "name": "SUB_MAX_INDEX_VALUE",
            "outputs": [
                {
                    "internalType": "uint8",
                    "name": "",
                    "type": "uint8"
                }
            ],
            "stateMutability": "view",
            "type": "function"
        },
        {
            "inputs": [],
            "name": "SUB_MIN_INDEX_VALUE",
            "outputs": [
                {
                    "internalType": "uint8",
                    "name": "",
                    "type": "uint8"
                }
            ],
            "stateMutability": "view",
            "type": "function"
        },
        {
            "inputs": [],
            "name": "actionType",
            "outputs": [
                {
                    "internalType": "uint8",
                    "name": "",
                    "type": "uint8"
                }
            ],
            "stateMutability": "pure",
            "type": "function"
        },
        {
            "inputs": [],
            "name": "adminVault",
            "outputs": [
                {
                    "internalType": "contract AdminVault",
                    "name": "",
                    "type": "address"
                }
            ],
            "stateMutability": "view",
            "type": "function"
        },
        {
            "inputs": [
                {
                    "internalType": "address",
                    "name": "_market",
                    "type": "address"
                },
                {
                    "internalType": "address",
                    "name": "_tokenAddr",
                    "type": "address"
                },
                {
                    "internalType": "bool",
                    "name": "_useAsCollateral",
                    "type": "bool"
                }
            ],
            "name": "enableAsCollateral",
            "outputs": [],
            "stateMutability": "nonpayable",
            "type": "function"
        },
        {
            "inputs": [
                {
                    "internalType": "bytes",
                    "name": "_callData",
                    "type": "bytes"
                },
                {
                    "internalType": "bytes32[]",
                    "name": "_subData",
                    "type": "bytes32[]"
                },
                {
                    "internalType": "uint8[]",
                    "name": "_paramMapping",
                    "type": "uint8[]"
                },
                {
                    "internalType": "bytes32[]",
                    "name": "_returnValues",
                    "type": "bytes32[]"
                }
            ],
            "name": "executeAction",
            "outputs": [
                {
                    "internalType": "bytes32",
                    "name": "",
                    "type": "bytes32"
                }
            ],
            "stateMutability": "payable",
            "type": "function"
        },
        {
            "inputs": [
                {
                    "internalType": "bytes",
                    "name": "_callData",
                    "type": "bytes"
                }
            ],
            "name": "executeActionDirect",
            "outputs": [],
            "stateMutability": "payable",
            "type": "function"
        },
        {
            "inputs": [],
            "name": "kill",
            "outputs": [],
            "stateMutability": "nonpayable",
            "type": "function"
        },
        {
            "inputs": [],
            "name": "logger",
            "outputs": [
                {
                    "internalType": "contract DefisaverLogger",
                    "name": "",
                    "type": "address"
                }
            ],
            "stateMutability": "view",
            "type": "function"
        },
        {
            "inputs": [
                {
                    "internalType": "bytes",
                    "name": "_callData",
                    "type": "bytes"
                }
            ],
            "name": "parseInputs",
            "outputs": [
                {
                    "components": [
                        {
                            "internalType": "address",
                            "name": "market",
                            "type": "address"
                        },
                        {
                            "internalType": "address",
                            "name": "tokenAddr",
                            "type": "address"
                        },
                        {
                            "internalType": "uint256",
                            "name": "amount",
                            "type": "uint256"
                        },
                        {
                            "internalType": "address",
                            "name": "to",
                            "type": "address"
                        }
                    ],
                    "internalType": "struct GranaryWithdraw.Params",
                    "name": "params",
                    "type": "tuple"
                }
            ],
            "stateMutability": "pure",
            "type": "function"
        },
        {
            "inputs": [],
            "name": "registry",
            "outputs": [
                {
                    "internalType": "contract DFSRegistry",
                    "name": "",
                    "type": "address"
                }
            ],
            "stateMutability": "view",
            "type": "function"
        },
        {
            "inputs": [
                {
                    "internalType": "address",
                    "name": "_token",
                    "type": "address"
                },
                {
                    "internalType": "address",
                    "name": "_receiver",
                    "type": "address"
                },
                {
                    "internalType": "uint256",
                    "name": "_amount",
                    "type": "uint256"
                }
            ],
            "name": "withdrawStuckFunds",
            "outputs": [],
            "stateMutability": "nonpayable",
            "type": "function"
        }
    ],
    "bytecode": "608060405234801561001057600080fd5b50611469806100206000396000f3fe6080604052600436106100fe5760003560e01c80638df50f7411610095578063cfcd924c11610064578063cfcd924c146102b6578063d3c2e7ed146102de578063daa60599146102f3578063f1cb30881461030b578063f24ccbfe1461032b57600080fd5b80638df50f74146101ff5780639093410d146102205780639864dcdd14610281578063c579d4901461029657600080fd5b806341c0e1b5116100d157806341c0e1b51461016d5780637b103999146101825780638bcb6216146101c25780638cedca71146101d757600080fd5b80630f2eee4214610103578063247492f81461012f5780632fa13cb814610143578063389f87ff14610158575b600080fd5b34801561010f57600080fd5b50610118608081565b60405160ff90911681526020015b60405180910390f35b34801561013b57600080fd5b506001610118565b34801561014f57600080fd5b50610118600081565b61016b6101663660046110bf565b610353565b005b34801561017957600080fd5b5061016b6103f0565b34801561018e57600080fd5b506101aa73147f157cb4e328e9c0db68dba5305fb7c29e732881565b6040516001600160a01b039091168152602001610126565b3480156101ce57600080fd5b50610118600181565b3480156101e357600080fd5b506101aa73f30f1fdcc52e1774cbc84c57e11a538d6b1404aa81565b61021261020d3660046110f2565b6104a9565b604051908152602001610126565b34801561022c57600080fd5b5061024061023b3660046110bf565b61063d565b604051610126919081516001600160a01b03908116825260208084015182169083015260408084015190830152606092830151169181019190915260800190565b34801561028d57600080fd5b50610118607f81565b3480156102a257600080fd5b5061016b6102b1366004611063565b610679565b3480156102c257600080fd5b506102cb604081565b60405161ffff9091168152602001610126565b3480156102ea57600080fd5b5061011860ff81565b3480156102ff57600080fd5b50610212600160f81b81565b34801561031757600080fd5b5061016b610326366004611019565b6107a9565b34801561033757600080fd5b506101aa7337cfac15ede74f29fe164c460974bd61cc799eff81565b600061035e8261063d565b9050600061037e8260000151836020015184604001518560600151610889565b60405163f4b24b5560e01b81529092507337cfac15ede74f29fe164c460974bd61cc799eff915063f4b24b55906103b99084906004016112ed565b600060405180830381600087803b1580156103d357600080fd5b505af11580156103e7573d6000803e3d6000fd5b50505050505050565b336001600160a01b031673f30f1fdcc52e1774cbc84c57e11a538d6b1404aa6001600160a01b031663f851a4406040518163ffffffff1660e01b815260040160206040518083038186803b15801561044757600080fd5b505afa15801561045b573d6000803e3d6000fd5b505050506040513d601f19601f8201168201806040525081019061047f9190610ffd565b6001600160a01b0316146104a65760405163a6c827a960e01b815260040160405180910390fd5b33ff5b6000806104b58661063d565b90506104ef8160000151856000815181106104e057634e487b7160e01b600052603260045260246000fd5b602002602001015187866109bf565b6001600160a01b03168152602081015184516105279190869060019081106104e057634e487b7160e01b600052603260045260246000fd5b6001600160a01b031660208201526040810151845161057191908690600290811061056257634e487b7160e01b600052603260045260246000fd5b60200260200101518786610aee565b8160400181815250506105a38160600151856003815181106104e057634e487b7160e01b600052603260045260246000fd5b6001600160a01b03166060820181905281516020830151604084015160009384936105d19390929091610889565b6040516e4772616e617279576974686472617760881b81529193509150600f0160405180910390207f2b6d22f419271bcc89bbac8deec947c664365d6e24d06fef0ca7c325c704dce38260405161062891906112da565b60405180910390a2509150505b949350505050565b604080516080810182526000808252602080830182905292820181905260608201528251909161067391840181019084016111ff565b92915050565b336001600160a01b031673f30f1fdcc52e1774cbc84c57e11a538d6b1404aa6001600160a01b0316638da5cb5b6040518163ffffffff1660e01b815260040160206040518083038186803b1580156106d057600080fd5b505afa1580156106e4573d6000803e3d6000fd5b505050506040513d601f19601f820116820180604052508101906107089190610ffd565b6001600160a01b03161461072f57604051630ca4a64560e11b815260040160405180910390fd5b73eeeeeeeeeeeeeeeeeeeeeeeeeeeeeeeeeeeeeeee6001600160a01b0384161415610790576040516001600160a01b0383169082156108fc029083906000818181858888f1935050505015801561078a573d6000803e3d6000fd5b50505050565b6107a46001600160a01b0384168383610b44565b505050565b6000836001600160a01b0316630261bf8b6040518163ffffffff1660e01b815260040160206040518083038186803b1580156107e457600080fd5b505afa1580156107f8573d6000803e3d6000fd5b505050506040513d601f19601f8201168201806040525081019061081c9190610ffd565b604051635a3b74b960e01b81526001600160a01b038581166004830152841515602483015291925090821690635a3b74b990604401600060405180830381600087803b15801561086b57600080fd5b505af115801561087f573d6000803e3d6000fd5b5050505050505050565b60006060600061089887610b96565b90506000856000198114156108bd576108ba6001600160a01b03891687610c09565b91505b604051631a4ca37b60e21b81526001600160a01b0389811660048301526024820183905287811660448301528416906369328dec90606401602060405180830381600087803b15801561090f57600080fd5b505af1158015610923573d6000803e3d6000fd5b505050506040513d601f19601f82011682018060405250810190610947919061127a565b5060001987141561097357816109666001600160a01b038a1688610c09565b610970919061137b565b96505b5050604080516001600160a01b0398891660208201529688168782015260608701869052939096166080808701919091528351808703909101815260a090950190925250909391925050565b600060ff841615610ae5576109d384610cc1565b15610a1557816109e285610ce0565b60ff1681518110610a0357634e487b7160e01b600052603260045260246000fd5b602002602001015160601c9450610ae5565b8360ff1660fe1415610a28575030610635565b8360ff1660ff1415610aac57306001600160a01b0316638da5cb5b6040518163ffffffff1660e01b815260040160206040518083038186803b158015610a6d57600080fd5b505afa158015610a81573d6000803e3d6000fd5b505050506040513d601f19601f82011682018060405250810190610aa59190610ffd565b9050610635565b82610ab685610d13565b60ff1681518110610ad757634e487b7160e01b600052603260045260246000fd5b602002602001015160001c94505b50929392505050565b600060ff841615610ae557610b0284610cc1565b15610aac5781610b1185610ce0565b60ff1681518110610b3257634e487b7160e01b600052603260045260246000fd5b602002602001015160001c9450610ae5565b604080516001600160a01b038416602482015260448082018490528251808303909101815260649091019091526020810180516001600160e01b031663a9059cbb60e01b1790526107a4908490610d45565b6000816001600160a01b0316630261bf8b6040518163ffffffff1660e01b815260040160206040518083038186803b158015610bd157600080fd5b505afa158015610be5573d6000803e3d6000fd5b505050506040513d601f19601f820116820180604052508101906106739190610ffd565b60006001600160a01b03831673eeeeeeeeeeeeeeeeeeeeeeeeeeeeeeeeeeeeeeee1415610c4157506001600160a01b03811631610673565b6040516370a0823160e01b81526001600160a01b0383811660048301528416906370a082319060240160206040518083038186803b158015610c8257600080fd5b505afa158015610c96573d6000803e3d6000fd5b505050506040513d601f19601f82011682018060405250810190610cba919061127a565b9392505050565b6000600160ff8316108015906106735750607f60ff8316111592915050565b6000610ceb82610cc1565b610d085760405163dcc95a3960e01b815260040160405180910390fd5b610673600183611392565b6000608060ff83161015610d3a5760405163866f6e8760e01b815260040160405180910390fd5b610673608083611392565b6000610d9a826040518060400160405280602081526020017f5361666545524332303a206c6f772d6c6576656c2063616c6c206661696c6564815250856001600160a01b0316610e1c9092919063ffffffff16565b8051909150156107a45780806020019051810190610db891906110a3565b6107a45760405162461bcd60e51b815260206004820152602a60248201527f5361666545524332303a204552433230206f7065726174696f6e20646964206e6044820152691bdd081cdd58d8d9595960b21b60648201526084015b60405180910390fd5b606061063584846000856060610e3185610eea565b610e4e5760405163304619b560e01b815260040160405180910390fd5b600080866001600160a01b03168587604051610e6a91906112be565b60006040518083038185875af1925050503d8060008114610ea7576040519150601f19603f3d011682016040523d82523d6000602084013e610eac565b606091505b50915091508115610ec05791506106359050565b805115610ed05780518082602001fd5b8360405162461bcd60e51b8152600401610e1391906112da565b6000813f7fc5d2460186f7233c927e7db2dcc703c0e500b653ca82273b7bfad8045d85a470818114801590610635575050151592915050565b600082601f830112610f33578081fd5b81356020610f48610f4383611357565b611326565b80838252828201915082860187848660051b8901011115610f67578586fd5b855b85811015610f8557813584529284019290840190600101610f69565b5090979650505050505050565b600082601f830112610fa2578081fd5b813567ffffffffffffffff811115610fbc57610fbc6113f7565b610fcf601f8201601f1916602001611326565b818152846020838601011115610fe3578283fd5b816020850160208301379081016020019190915292915050565b60006020828403121561100e578081fd5b8151610cba8161140d565b60008060006060848603121561102d578182fd5b83356110388161140d565b925060208401356110488161140d565b9150604084013561105881611425565b809150509250925092565b600080600060608486031215611077578283fd5b83356110828161140d565b925060208401356110928161140d565b929592945050506040919091013590565b6000602082840312156110b4578081fd5b8151610cba81611425565b6000602082840312156110d0578081fd5b813567ffffffffffffffff8111156110e6578182fd5b61063584828501610f92565b60008060008060808587031215611107578081fd5b843567ffffffffffffffff8082111561111e578283fd5b61112a88838901610f92565b9550602091508187013581811115611140578384fd5b61114c89828a01610f23565b955050604087013581811115611160578384fd5b8701601f81018913611170578384fd5b803561117e610f4382611357565b8082825285820191508584018c878560051b870101111561119d578788fd5b8794505b838510156111cd57803560ff811681146111b9578889fd5b8352600194909401939186019186016111a1565b50965050505060608701359150808211156111e6578283fd5b506111f387828801610f23565b91505092959194509250565b600060808284031215611210578081fd5b6040516080810181811067ffffffffffffffff82111715611233576112336113f7565b60405282516112418161140d565b815260208301516112518161140d565b602082015260408381015190820152606083015161126e8161140d565b60608201529392505050565b60006020828403121561128b578081fd5b5051919050565b600081518084526112aa8160208601602086016113b5565b601f01601f19169290920160200192915050565b600082516112d08184602087016113b5565b9190910192915050565b602081526000610cba6020830184611292565b60408152600f60408201526e4772616e617279576974686472617760881b6060820152608060208201526000610cba6080830184611292565b604051601f8201601f1916810167ffffffffffffffff8111828210171561134f5761134f6113f7565b604052919050565b600067ffffffffffffffff821115611371576113716113f7565b5060051b60200190565b60008282101561138d5761138d6113e1565b500390565b600060ff821660ff8416808210156113ac576113ac6113e1565b90039392505050565b60005b838110156113d05781810151838201526020016113b8565b8381111561078a5750506000910152565b634e487b7160e01b600052601160045260246000fd5b634e487b7160e01b600052604160045260246000fd5b6001600160a01b038116811461142257600080fd5b50565b801515811461142257600080fdfea264697066735822122025306821c606f4a2ec1ff58f32e6c1180cd879becea84416d0175b621d2fb4bc64736f6c63430008040033",
    "sourcePath": "e:/trava-saver-main-core/trava-station-core/contracts/actions/granary/GranaryWithdraw.sol",
    "compiler": {
        "name": "solc",
        "version": "0.8.4+commit.c7e474f2"
    },
    "functionHashes": {
        "DATA_PROVIDER_ID()": "daa60599",
        "GRANARY_REFERRAL_CODE()": "cfcd924c",
        "NO_PARAM_MAPPING()": "2fa13cb8",
        "RETURN_MAX_INDEX_VALUE()": "9864dcdd",
        "RETURN_MIN_INDEX_VALUE()": "8bcb6216",
        "SUB_MAX_INDEX_VALUE()": "d3c2e7ed",
        "SUB_MIN_INDEX_VALUE()": "0f2eee42",
        "actionType()": "247492f8",
        "adminVault()": "8cedca71",
        "enableAsCollateral(address,address,bool)": "f1cb3088",
        "executeAction(bytes,bytes32[],uint8[],bytes32[])": "8df50f74",
        "executeActionDirect(bytes)": "389f87ff",
        "kill()": "41c0e1b5",
        "logger()": "f24ccbfe",
        "parseInputs(bytes)": "9093410d",
        "registry()": "7b103999",
        "withdrawStuckFunds(address,address,uint256)": "c579d490"
    },
    "gasEstimates": {
        "creation": {
            "codeDepositCost": "1045000",
            "executionCost": "1087",
            "totalCost": "1046087"
        },
        "external": {
            "DATA_PROVIDER_ID()": "267",
            "GRANARY_REFERRAL_CODE()": "226",
            "NO_PARAM_MAPPING()": "261",
            "RETURN_MAX_INDEX_VALUE()": "260",
            "RETURN_MIN_INDEX_VALUE()": "260",
            "SUB_MAX_INDEX_VALUE()": "237",
            "SUB_MIN_INDEX_VALUE()": "217",
            "actionType()": "236",
            "adminVault()": "305",
            "enableAsCollateral(address,address,bool)": "infinite",
            "executeAction(bytes,bytes32[],uint8[],bytes32[])": "infinite",
            "executeActionDirect(bytes)": "infinite",
            "kill()": "infinite",
            "logger()": "326",
            "parseInputs(bytes)": "infinite",
            "registry()": "261",
            "withdrawStuckFunds(address,address,uint256)": "infinite"
        },
        "internal": {
            "_withdraw(address,address,uint256,address)": "infinite"
        }
    }
}