{
    "contractName": "TravaNFTAuctionCreateAuction",
    "abi": [
        {
            "inputs": [],
            "name": "NonContractCall",
            "type": "error"
        },
        {
            "inputs": [],
            "name": "ReturnIndexValueError",
            "type": "error"
        },
        {
            "inputs": [],
            "name": "SenderNotAdmin",
            "type": "error"
        },
        {
            "inputs": [],
            "name": "SenderNotOwner",
            "type": "error"
        },
        {
            "inputs": [],
            "name": "SubIndexValueError",
            "type": "error"
        },
        {
            "anonymous": false,
            "inputs": [
                {
                    "indexed": true,
                    "internalType": "string",
                    "name": "logName",
                    "type": "string"
                },
                {
                    "indexed": false,
                    "internalType": "bytes",
                    "name": "data",
                    "type": "bytes"
                }
            ],
            "name": "ActionEvent",
            "type": "event"
        },
        {
            "inputs": [],
            "name": "MINIMUM_BID_STEP_PERCENT",
            "outputs": [
                {
                    "internalType": "uint256",
                    "name": "",
                    "type": "uint256"
                }
            ],
            "stateMutability": "view",
            "type": "function"
        },
        {
            "inputs": [],
            "name": "NO_PARAM_MAPPING",
            "outputs": [
                {
                    "internalType": "uint8",
                    "name": "",
                    "type": "uint8"
                }
            ],
            "stateMutability": "view",
            "type": "function"
        },
        {
            "inputs": [],
            "name": "RETURN_MAX_INDEX_VALUE",
            "outputs": [
                {
                    "internalType": "uint8",
                    "name": "",
                    "type": "uint8"
                }
            ],
            "stateMutability": "view",
            "type": "function"
        },
        {
            "inputs": [],
            "name": "RETURN_MIN_INDEX_VALUE",
            "outputs": [
                {
                    "internalType": "uint8",
                    "name": "",
                    "type": "uint8"
                }
            ],
            "stateMutability": "view",
            "type": "function"
        },
        {
            "inputs": [],
            "name": "SUB_MAX_INDEX_VALUE",
            "outputs": [
                {
                    "internalType": "uint8",
                    "name": "",
                    "type": "uint8"
                }
            ],
            "stateMutability": "view",
            "type": "function"
        },
        {
            "inputs": [],
            "name": "SUB_MIN_INDEX_VALUE",
            "outputs": [
                {
                    "internalType": "uint8",
                    "name": "",
                    "type": "uint8"
                }
            ],
            "stateMutability": "view",
            "type": "function"
        },
        {
            "inputs": [],
            "name": "actionType",
            "outputs": [
                {
                    "internalType": "uint8",
                    "name": "",
                    "type": "uint8"
                }
            ],
            "stateMutability": "pure",
            "type": "function"
        },
        {
            "inputs": [],
            "name": "adminVault",
            "outputs": [
                {
                    "internalType": "contract AdminVault",
                    "name": "",
                    "type": "address"
                }
            ],
            "stateMutability": "view",
            "type": "function"
        },
        {
            "inputs": [
                {
                    "internalType": "bytes",
                    "name": "_callData",
                    "type": "bytes"
                },
                {
                    "internalType": "bytes32[]",
                    "name": "_subData",
                    "type": "bytes32[]"
                },
                {
                    "internalType": "uint8[]",
                    "name": "_paramMapping",
                    "type": "uint8[]"
                },
                {
                    "internalType": "bytes32[]",
                    "name": "_returnValues",
                    "type": "bytes32[]"
                }
            ],
            "name": "executeAction",
            "outputs": [
                {
                    "internalType": "bytes32",
                    "name": "",
                    "type": "bytes32"
                }
            ],
            "stateMutability": "payable",
            "type": "function"
        },
        {
            "inputs": [
                {
                    "internalType": "bytes",
                    "name": "_callData",
                    "type": "bytes"
                }
            ],
            "name": "executeActionDirect",
            "outputs": [],
            "stateMutability": "payable",
            "type": "function"
        },
        {
            "inputs": [],
            "name": "kill",
            "outputs": [],
            "stateMutability": "nonpayable",
            "type": "function"
        },
        {
            "inputs": [],
            "name": "logger",
            "outputs": [
                {
                    "internalType": "contract DefisaverLogger",
                    "name": "",
                    "type": "address"
                }
            ],
            "stateMutability": "view",
            "type": "function"
        },
        {
            "inputs": [
                {
                    "internalType": "bytes",
                    "name": "_callData",
                    "type": "bytes"
                }
            ],
            "name": "parseInputs",
            "outputs": [
                {
                    "components": [
                        {
                            "internalType": "uint256",
                            "name": "tokenId",
                            "type": "uint256"
                        },
                        {
                            "internalType": "uint256",
                            "name": "startingBid",
                            "type": "uint256"
                        },
                        {
                            "internalType": "uint256",
                            "name": "duration",
                            "type": "uint256"
                        },
                        {
                            "internalType": "uint256",
                            "name": "cellingPrice",
                            "type": "uint256"
                        },
                        {
                            "internalType": "uint256",
                            "name": "method",
                            "type": "uint256"
                        },
                        {
                            "internalType": "address",
                            "name": "from",
                            "type": "address"
                        }
                    ],
                    "internalType": "struct TravaNFTAuctionCreateAuction.Params",
                    "name": "params",
                    "type": "tuple"
                }
            ],
            "stateMutability": "pure",
            "type": "function"
        },
        {
            "inputs": [],
            "name": "registry",
            "outputs": [
                {
                    "internalType": "contract DFSRegistry",
                    "name": "",
                    "type": "address"
                }
            ],
            "stateMutability": "view",
            "type": "function"
        },
        {
            "inputs": [
                {
                    "internalType": "address",
                    "name": "_token",
                    "type": "address"
                },
                {
                    "internalType": "address",
                    "name": "_receiver",
                    "type": "address"
                },
                {
                    "internalType": "uint256",
                    "name": "_amount",
                    "type": "uint256"
                }
            ],
            "name": "withdrawStuckFunds",
            "outputs": [],
            "stateMutability": "nonpayable",
            "type": "function"
        }
    ],
    "bytecode": "608060405234801561001057600080fd5b506113d2806100206000396000f3fe6080604052600436106100e85760003560e01c80638bcb62161161008a5780639864dcdd116100595780639864dcdd14610290578063c579d490146102a5578063d3c2e7ed146102c5578063f24ccbfe146102da57600080fd5b80638bcb6216146101d05780638cedca71146101e55780638df50f741461020d5780639093410d1461022057600080fd5b8063389f87ff116100c6578063389f87ff1461014257806341c0e1b5146101575780634ce233001461016c5780637b1039991461019057600080fd5b80630f2eee42146100ed578063247492f8146101195780632fa13cb81461012d575b600080fd5b3480156100f957600080fd5b50610102608081565b60405160ff90911681526020015b60405180910390f35b34801561012557600080fd5b506001610102565b34801561013957600080fd5b50610102600081565b61015561015036600461105d565b610302565b005b34801561016357600080fd5b506101556103a9565b34801561017857600080fd5b506101826101f481565b604051908152602001610110565b34801561019c57600080fd5b506101b873147f157cb4e328e9c0db68dba5305fb7c29e732881565b6040516001600160a01b039091168152602001610110565b3480156101dc57600080fd5b50610102600181565b3480156101f157600080fd5b506101b873f30f1fdcc52e1774cbc84c57e11a538d6b1404aa81565b61018261021b366004611090565b610462565b34801561022c57600080fd5b5061024061023b36600461105d565b610664565b6040516101109190815181526020808301519082015260408083015190820152606080830151908201526080808301519082015260a0918201516001600160a01b03169181019190915260c00190565b34801561029c57600080fd5b50610102607f81565b3480156102b157600080fd5b506101556102c0366004610ffd565b6106c0565b3480156102d157600080fd5b5061010260ff81565b3480156102e657600080fd5b506101b87337cfac15ede74f29fe164c460974bd61cc799eff81565b600061030d82610664565b90506000610337826000015183602001518460400151856060015186608001518760a001516107f0565b60405163f4b24b5560e01b81529092507337cfac15ede74f29fe164c460974bd61cc799eff915063f4b24b5590610372908490600401611277565b600060405180830381600087803b15801561038c57600080fd5b505af11580156103a0573d6000803e3d6000fd5b50505050505050565b336001600160a01b031673f30f1fdcc52e1774cbc84c57e11a538d6b1404aa6001600160a01b031663f851a4406040518163ffffffff1660e01b815260040160206040518083038186803b15801561040057600080fd5b505afa158015610414573d6000803e3d6000fd5b505050506040513d601f19601f820116820180604052508101906104389190610fda565b6001600160a01b03161461045f5760405163a6c827a960e01b815260040160405180910390fd5b33ff5b60008061046e86610664565b90506104a881600001518560008151811061049957634e487b7160e01b600052603260045260246000fd5b60200260200101518786610acc565b8152602081015184516104d791908690600190811061049957634e487b7160e01b600052603260045260246000fd5b81602001818152505061050981604001518560028151811061049957634e487b7160e01b600052603260045260246000fd5b81604001818152505061053b81606001518560038151811061049957634e487b7160e01b600052603260045260246000fd5b81606001818152505061056d81608001518560048151811061049957634e487b7160e01b600052603260045260246000fd5b8160800181815250506105ae8160a001518560058151811061059f57634e487b7160e01b600052603260045260246000fd5b60200260200101518786610b64565b6001600160a01b031660a082018190528151602083015160408401516060850151608086015160009586956105ea9590949093909290916107f0565b6040517f54726176614e465441756374696f6e43726561746541756374696f6e0000000081529193509150601c0160405180910390207f2b6d22f419271bcc89bbac8deec947c664365d6e24d06fef0ca7c325c704dce38260405161064f9190611264565b60405180910390a2509150505b949350505050565b6106a66040518060c00160405280600081526020016000815260200160008152602001600081526020016000815260200160006001600160a01b031681525090565b818060200190518101906106ba919061119d565b92915050565b336001600160a01b031673f30f1fdcc52e1774cbc84c57e11a538d6b1404aa6001600160a01b0316638da5cb5b6040518163ffffffff1660e01b815260040160206040518083038186803b15801561071757600080fd5b505afa15801561072b573d6000803e3d6000fd5b505050506040513d601f19601f8201168201806040525081019061074f9190610fda565b6001600160a01b03161461077657604051630ca4a64560e11b815260040160405180910390fd5b73eeeeeeeeeeeeeeeeeeeeeeeeeeeeeeeeeeeeeeee6001600160a01b03841614156107d7576040516001600160a01b0383169082156108fc029083906000818181858888f193505050501580156107d1573d6000803e3d6000fd5b50505050565b6107eb6001600160a01b0384168383610c51565b505050565b600060606001600160a01b038316610806573092505b6040516331a9108f60e11b8152600481018990526001600160a01b03841690739c3e857ece6224544aa77c1a6e500d8fa1c9c10290636352211e9060240160206040518083038186803b15801561085c57600080fd5b505afa158015610870573d6000803e3d6000fd5b505050506040513d601f19601f820116820180604052508101906108949190610fda565b6001600160a01b0316146108ef5760405162461bcd60e51b815260206004820152601c60248201527f4f776e657220646f6573206e6f7420706f737365737320746f6b656e0000000060448201526064015b60405180910390fd5b6001600160a01b038316301461097a576040516323b872dd60e01b81526001600160a01b038416600482015230602482015260448101899052739c3e857ece6224544aa77c1a6e500d8fa1c9c102906323b872dd90606401600060405180830381600087803b15801561096157600080fd5b505af1158015610975573d6000803e3d6000fd5b505050505b60405163095ea7b360e01b815273c715bbe707d39524173c0635611cd69c250c59cb600482015260248101899052739c3e857ece6224544aa77c1a6e500d8fa1c9c1029063095ea7b390604401600060405180830381600087803b1580156109e157600080fd5b505af11580156109f5573d6000803e3d6000fd5b5050604051638a157df360e01b8152600481018b9052602481018a905260448101899052606481018890526084810187905273c715bbe707d39524173c0635611cd69c250c59cb9250638a157df3915060a401600060405180830381600087803b158015610a6257600080fd5b505af1158015610a76573d6000803e3d6000fd5b505060408051602081018c90528082019a909a5260608a019790975250505050608085019390935260a08401526001600160a01b0390911660c0808401919091528151808403909101815260e090920190529091565b600060ff841615610b5b57610ae084610ca3565b15610b225781610aef85610cc2565b60ff1681518110610b1057634e487b7160e01b600052603260045260246000fd5b602002602001015160001c9450610b5b565b82610b2c85610cf5565b60ff1681518110610b4d57634e487b7160e01b600052603260045260246000fd5b602002602001015160001c94505b50929392505050565b600060ff841615610b5b57610b7884610ca3565b15610bba5781610b8785610cc2565b60ff1681518110610ba857634e487b7160e01b600052603260045260246000fd5b602002602001015160601c9450610b5b565b8360ff1660fe1415610bcd57503061065c565b8360ff1660ff1415610b2257306001600160a01b0316638da5cb5b6040518163ffffffff1660e01b815260040160206040518083038186803b158015610c1257600080fd5b505afa158015610c26573d6000803e3d6000fd5b505050506040513d601f19601f82011682018060405250810190610c4a9190610fda565b905061065c565b604080516001600160a01b038416602482015260448082018490528251808303909101815260649091019091526020810180516001600160e01b031663a9059cbb60e01b1790526107eb908490610d27565b6000600160ff8316108015906106ba5750607f60ff8316111592915050565b6000610ccd82610ca3565b610cea5760405163dcc95a3960e01b815260040160405180910390fd5b6106ba600183611313565b6000608060ff83161015610d1c5760405163866f6e8760e01b815260040160405180910390fd5b6106ba608083611313565b6000610d7c826040518060400160405280602081526020017f5361666545524332303a206c6f772d6c6576656c2063616c6c206661696c6564815250856001600160a01b0316610df99092919063ffffffff16565b8051909150156107eb5780806020019051810190610d9a919061103d565b6107eb5760405162461bcd60e51b815260206004820152602a60248201527f5361666545524332303a204552433230206f7065726174696f6e20646964206e6044820152691bdd081cdd58d8d9595960b21b60648201526084016108e6565b606061065c84846000856060610e0e85610ec7565b610e2b5760405163304619b560e01b815260040160405180910390fd5b600080866001600160a01b03168587604051610e479190611248565b60006040518083038185875af1925050503d8060008114610e84576040519150601f19603f3d011682016040523d82523d6000602084013e610e89565b606091505b50915091508115610e9d57915061065c9050565b805115610ead5780518082602001fd5b8360405162461bcd60e51b81526004016108e69190611264565b6000813f7fc5d2460186f7233c927e7db2dcc703c0e500b653ca82273b7bfad8045d85a47081811480159061065c575050151592915050565b600082601f830112610f10578081fd5b81356020610f25610f20836112ef565b6112be565b80838252828201915082860187848660051b8901011115610f44578586fd5b855b85811015610f6257813584529284019290840190600101610f46565b5090979650505050505050565b600082601f830112610f7f578081fd5b813567ffffffffffffffff811115610f9957610f9961136e565b610fac601f8201601f19166020016112be565b818152846020838601011115610fc0578283fd5b816020850160208301379081016020019190915292915050565b600060208284031215610feb578081fd5b8151610ff681611384565b9392505050565b600080600060608486031215611011578182fd5b833561101c81611384565b9250602084013561102c81611384565b929592945050506040919091013590565b60006020828403121561104e578081fd5b81518015158114610ff6578182fd5b60006020828403121561106e578081fd5b813567ffffffffffffffff811115611084578182fd5b61065c84828501610f6f565b600080600080608085870312156110a5578081fd5b843567ffffffffffffffff808211156110bc578283fd5b6110c888838901610f6f565b95506020915081870135818111156110de578384fd5b6110ea89828a01610f00565b9550506040870135818111156110fe578384fd5b8701601f8101891361110e578384fd5b803561111c610f20826112ef565b8082825285820191508584018c878560051b870101111561113b578788fd5b8794505b8385101561116b57803560ff81168114611157578889fd5b83526001949094019391860191860161113f565b5096505050506060870135915080821115611184578283fd5b5061119187828801610f00565b91505092959194509250565b600060c082840312156111ae578081fd5b60405160c0810181811067ffffffffffffffff821117156111d1576111d161136e565b8060405250825181526020830151602082015260408301516040820152606083015160608201526080830151608082015260a083015161121081611384565b60a08201529392505050565b60008151808452611234816020860160208601611342565b601f01601f19169290920160200192915050565b6000825161125a818460208701611342565b9190910192915050565b602081526000610ff6602083018461121c565b60408152601c60408201527f54726176614e465441756374696f6e43726561746541756374696f6e000000006060820152608060208201526000610ff6608083018461121c565b604051601f8201601f1916810167ffffffffffffffff811182821017156112e7576112e761136e565b604052919050565b600067ffffffffffffffff8211156113095761130961136e565b5060051b60200190565b600060ff821660ff84168082101561133957634e487b7160e01b83526011600452602483fd5b90039392505050565b60005b8381101561135d578181015183820152602001611345565b838111156107d15750506000910152565b634e487b7160e01b600052604160045260246000fd5b6001600160a01b038116811461139957600080fd5b5056fea26469706673582212208e420bad82889e41f5ba13d681dac81b4bb4d0f921e57819fa502a80a3d5296e64736f6c63430008040033",
    "sourcePath": "e:/trava-saver-main-core/trava-station-core/contracts/actions/trava/nft/marketplace/auction/TravaNFTAuctionCreateAuction.sol",
    "compiler": {
        "name": "solc",
        "version": "0.8.4+commit.c7e474f2"
    },
    "functionHashes": {
        "MINIMUM_BID_STEP_PERCENT()": "4ce23300",
        "NO_PARAM_MAPPING()": "2fa13cb8",
        "RETURN_MAX_INDEX_VALUE()": "9864dcdd",
        "RETURN_MIN_INDEX_VALUE()": "8bcb6216",
        "SUB_MAX_INDEX_VALUE()": "d3c2e7ed",
        "SUB_MIN_INDEX_VALUE()": "0f2eee42",
        "actionType()": "247492f8",
        "adminVault()": "8cedca71",
        "executeAction(bytes,bytes32[],uint8[],bytes32[])": "8df50f74",
        "executeActionDirect(bytes)": "389f87ff",
        "kill()": "41c0e1b5",
        "logger()": "f24ccbfe",
        "parseInputs(bytes)": "9093410d",
        "registry()": "7b103999",
        "withdrawStuckFunds(address,address,uint256)": "c579d490"
    },
    "gasEstimates": {
        "creation": {
            "codeDepositCost": "1014800",
            "executionCost": "1054",
            "totalCost": "1015854"
        },
        "external": {
            "MINIMUM_BID_STEP_PERCENT()": "262",
            "NO_PARAM_MAPPING()": "261",
            "RETURN_MAX_INDEX_VALUE()": "215",
            "RETURN_MIN_INDEX_VALUE()": "216",
            "SUB_MAX_INDEX_VALUE()": "259",
            "SUB_MIN_INDEX_VALUE()": "217",
            "actionType()": "236",
            "adminVault()": "261",
            "executeAction(bytes,bytes32[],uint8[],bytes32[])": "infinite",
            "executeActionDirect(bytes)": "infinite",
            "kill()": "infinite",
            "logger()": "304",
            "parseInputs(bytes)": "infinite",
            "registry()": "305",
            "withdrawStuckFunds(address,address,uint256)": "infinite"
        },
        "internal": {
            "_createAuction(uint256,uint256,uint256,uint256,uint256,address)": "infinite"
        }
    }
}